{
	"contracts/candidates.sol": {
		"Candidates": {
			"abi": [
				{
					"inputs": [
						{
							"internalType": "uint256",
							"name": "",
							"type": "uint256"
						}
					],
					"name": "candidates",
					"outputs": [
						{
							"internalType": "string",
							"name": "name",
							"type": "string"
						},
						{
							"internalType": "string",
							"name": "rollno",
							"type": "string"
						},
						{
							"internalType": "uint256",
							"name": "voteCount",
							"type": "uint256"
						}
					],
					"stateMutability": "view",
					"type": "function"
				},
				{
					"inputs": [
						{
							"internalType": "string",
							"name": "_name",
							"type": "string"
						},
						{
							"internalType": "string",
							"name": "_rollno",
							"type": "string"
						}
					],
					"name": "createCandidate",
					"outputs": [],
					"stateMutability": "nonpayable",
					"type": "function"
				},
				{
					"inputs": [
						{
							"internalType": "string",
							"name": "_name",
							"type": "string"
						},
						{
							"internalType": "string",
							"name": "_rollno",
							"type": "string"
						}
					],
					"name": "createVoter",
					"outputs": [],
					"stateMutability": "nonpayable",
					"type": "function"
				},
				{
					"inputs": [
						{
							"internalType": "uint256",
							"name": "",
							"type": "uint256"
						}
					],
					"name": "voters",
					"outputs": [
						{
							"internalType": "string",
							"name": "name",
							"type": "string"
						},
						{
							"internalType": "string",
							"name": "rollno",
							"type": "string"
						},
						{
							"internalType": "uint8",
							"name": "voteStatus",
							"type": "uint8"
						}
					],
					"stateMutability": "view",
					"type": "function"
				}
			],
			"devdoc": {
				"kind": "dev",
				"methods": {},
				"version": 1
			},
			"evm": {
				"assembly": "    /* \"contracts/candidates.sol\":93:993  contract Candidates is Voters{... */\n  mstore(0x40, 0x80)\n  callvalue\n  dup1\n  iszero\n  tag_1\n  jumpi\n  0x00\n  dup1\n  revert\ntag_1:\n  pop\n  dataSize(sub_0)\n  dup1\n  dataOffset(sub_0)\n  0x00\n  codecopy\n  0x00\n  return\nstop\n\nsub_0: assembly {\n        /* \"contracts/candidates.sol\":93:993  contract Candidates is Voters{... */\n      mstore(0x40, 0x80)\n      callvalue\n      dup1\n      iszero\n      tag_1\n      jumpi\n      0x00\n      dup1\n      revert\n    tag_1:\n      pop\n      jumpi(tag_2, lt(calldatasize, 0x04))\n      shr(0xe0, calldataload(0x00))\n      dup1\n      0x3477ee2e\n      eq\n      tag_3\n      jumpi\n      dup1\n      0x961e5800\n      eq\n      tag_4\n      jumpi\n      dup1\n      0x9ab1c0ed\n      eq\n      tag_5\n      jumpi\n      dup1\n      0xda58c7d9\n      eq\n      tag_6\n      jumpi\n    tag_2:\n      0x00\n      dup1\n      revert\n        /* \"contracts/candidates.sol\":289:318  Candidate[] public candidates */\n    tag_3:\n      tag_7\n      0x04\n      dup1\n      calldatasize\n      sub\n      dup2\n      add\n      swap1\n      tag_8\n      swap2\n      swap1\n      tag_9\n      jump\t// in\n    tag_8:\n      tag_10\n      jump\t// in\n    tag_7:\n      mload(0x40)\n      tag_11\n      swap4\n      swap3\n      swap2\n      swap1\n      tag_12\n      jump\t// in\n    tag_11:\n      mload(0x40)\n      dup1\n      swap2\n      sub\n      swap1\n      return\n        /* \"contracts/voter.sol\":330:632  function createVoter(string memory _name, string memory _rollno) public{... */\n    tag_4:\n      tag_13\n      0x04\n      dup1\n      calldatasize\n      sub\n      dup2\n      add\n      swap1\n      tag_14\n      swap2\n      swap1\n      tag_15\n      jump\t// in\n    tag_14:\n      tag_16\n      jump\t// in\n    tag_13:\n      stop\n        /* \"contracts/candidates.sol\":502:989  function createCandidate(string memory _name, string memory _rollno) public{... */\n    tag_5:\n      tag_17\n      0x04\n      dup1\n      calldatasize\n      sub\n      dup2\n      add\n      swap1\n      tag_18\n      swap2\n      swap1\n      tag_15\n      jump\t// in\n    tag_18:\n      tag_19\n      jump\t// in\n    tag_17:\n      stop\n        /* \"contracts/voter.sol\":189:210  Voter[] public voters */\n    tag_6:\n      tag_20\n      0x04\n      dup1\n      calldatasize\n      sub\n      dup2\n      add\n      swap1\n      tag_21\n      swap2\n      swap1\n      tag_9\n      jump\t// in\n    tag_21:\n      tag_22\n      jump\t// in\n    tag_20:\n      mload(0x40)\n      tag_23\n      swap4\n      swap3\n      swap2\n      swap1\n      tag_24\n      jump\t// in\n    tag_23:\n      mload(0x40)\n      dup1\n      swap2\n      sub\n      swap1\n      return\n        /* \"contracts/candidates.sol\":289:318  Candidate[] public candidates */\n    tag_10:\n      0x03\n      dup2\n      dup2\n      sload\n      dup2\n      lt\n      tag_25\n      jumpi\n      0x00\n      dup1\n      revert\n    tag_25:\n      swap1\n      0x00\n      mstore\n      keccak256(0x00, 0x20)\n      swap1\n      0x03\n      mul\n      add\n      0x00\n      swap2\n      pop\n      swap1\n      pop\n      dup1\n      0x00\n      add\n      dup1\n      sload\n      tag_27\n      swap1\n      tag_28\n      jump\t// in\n    tag_27:\n      dup1\n      0x1f\n      add\n      0x20\n      dup1\n      swap2\n      div\n      mul\n      0x20\n      add\n      mload(0x40)\n      swap1\n      dup2\n      add\n      0x40\n      mstore\n      dup1\n      swap3\n      swap2\n      swap1\n      dup2\n      dup2\n      mstore\n      0x20\n      add\n      dup3\n      dup1\n      sload\n      tag_29\n      swap1\n      tag_28\n      jump\t// in\n    tag_29:\n      dup1\n      iszero\n      tag_30\n      jumpi\n      dup1\n      0x1f\n      lt\n      tag_31\n      jumpi\n      0x0100\n      dup1\n      dup4\n      sload\n      div\n      mul\n      dup4\n      mstore\n      swap2\n      0x20\n      add\n      swap2\n      jump(tag_30)\n    tag_31:\n      dup3\n      add\n      swap2\n      swap1\n      0x00\n      mstore\n      keccak256(0x00, 0x20)\n      swap1\n    tag_32:\n      dup2\n      sload\n      dup2\n      mstore\n      swap1\n      0x01\n      add\n      swap1\n      0x20\n      add\n      dup1\n      dup4\n      gt\n      tag_32\n      jumpi\n      dup3\n      swap1\n      sub\n      0x1f\n      and\n      dup3\n      add\n      swap2\n    tag_30:\n      pop\n      pop\n      pop\n      pop\n      pop\n      swap1\n      dup1\n      0x01\n      add\n      dup1\n      sload\n      tag_33\n      swap1\n      tag_28\n      jump\t// in\n    tag_33:\n      dup1\n      0x1f\n      add\n      0x20\n      dup1\n      swap2\n      div\n      mul\n      0x20\n      add\n      mload(0x40)\n      swap1\n      dup2\n      add\n      0x40\n      mstore\n      dup1\n      swap3\n      swap2\n      swap1\n      dup2\n      dup2\n      mstore\n      0x20\n      add\n      dup3\n      dup1\n      sload\n      tag_34\n      swap1\n      tag_28\n      jump\t// in\n    tag_34:\n      dup1\n      iszero\n      tag_35\n      jumpi\n      dup1\n      0x1f\n      lt\n      tag_36\n      jumpi\n      0x0100\n      dup1\n      dup4\n      sload\n      div\n      mul\n      dup4\n      mstore\n      swap2\n      0x20\n      add\n      swap2\n      jump(tag_35)\n    tag_36:\n      dup3\n      add\n      swap2\n      swap1\n      0x00\n      mstore\n      keccak256(0x00, 0x20)\n      swap1\n    tag_37:\n      dup2\n      sload\n      dup2\n      mstore\n      swap1\n      0x01\n      add\n      swap1\n      0x20\n      add\n      dup1\n      dup4\n      gt\n      tag_37\n      jumpi\n      dup3\n      swap1\n      sub\n      0x1f\n      and\n      dup3\n      add\n      swap2\n    tag_35:\n      pop\n      pop\n      pop\n      pop\n      pop\n      swap1\n      dup1\n      0x02\n      add\n      sload\n      swap1\n      pop\n      dup4\n      jump\t// out\n        /* \"contracts/voter.sol\":330:632  function createVoter(string memory _name, string memory _rollno) public{... */\n    tag_16:\n        /* \"contracts/voter.sol\":460:461  0 */\n      0x00\n        /* \"contracts/voter.sol\":425:436  voterRollno */\n      0x02\n        /* \"contracts/voter.sol\":425:448  voterRollno[msg.sender] */\n      0x00\n        /* \"contracts/voter.sol\":437:447  msg.sender */\n      caller\n        /* \"contracts/voter.sol\":425:448  voterRollno[msg.sender] */\n      0xffffffffffffffffffffffffffffffffffffffff\n      and\n      0xffffffffffffffffffffffffffffffffffffffff\n      and\n      dup2\n      mstore\n      0x20\n      add\n      swap1\n      dup2\n      mstore\n      0x20\n      add\n      0x00\n      keccak256\n        /* \"contracts/voter.sol\":419:456  bytes(voterRollno[msg.sender]).length */\n      dup1\n      sload\n      tag_39\n      swap1\n      tag_28\n      jump\t// in\n    tag_39:\n      swap1\n      pop\n        /* \"contracts/voter.sol\":419:461  bytes(voterRollno[msg.sender]).length == 0 */\n      eq\n        /* \"contracts/voter.sol\":411:487  require(bytes(voterRollno[msg.sender]).length == 0, \"Voter already exists!\") */\n      tag_40\n      jumpi\n      mload(0x40)\n      0x08c379a000000000000000000000000000000000000000000000000000000000\n      dup2\n      mstore\n      0x04\n      add\n      tag_41\n      swap1\n      tag_42\n      jump\t// in\n    tag_41:\n      mload(0x40)\n      dup1\n      swap2\n      sub\n      swap1\n      revert\n    tag_40:\n        /* \"contracts/voter.sol\":497:503  voters */\n      0x00\n        /* \"contracts/voter.sol\":509:532  Voter(_name, _rollno,0) */\n      mload(0x40)\n      dup1\n      0x60\n      add\n      0x40\n      mstore\n      dup1\n        /* \"contracts/voter.sol\":515:520  _name */\n      dup5\n        /* \"contracts/voter.sol\":509:532  Voter(_name, _rollno,0) */\n      dup2\n      mstore\n      0x20\n      add\n        /* \"contracts/voter.sol\":522:529  _rollno */\n      dup4\n        /* \"contracts/voter.sol\":509:532  Voter(_name, _rollno,0) */\n      dup2\n      mstore\n      0x20\n      add\n        /* \"contracts/voter.sol\":530:531  0 */\n      0x00\n        /* \"contracts/voter.sol\":509:532  Voter(_name, _rollno,0) */\n      0xff\n      and\n      dup2\n      mstore\n      pop\n        /* \"contracts/voter.sol\":497:533  voters.push(Voter(_name, _rollno,0)) */\n      swap1\n      dup1\n      0x01\n      dup2\n      sload\n      add\n      dup1\n      dup3\n      sstore\n      dup1\n      swap2\n      pop\n      pop\n      0x01\n      swap1\n      sub\n      swap1\n      0x00\n      mstore\n      keccak256(0x00, 0x20)\n      swap1\n      0x03\n      mul\n      add\n      0x00\n      swap1\n      swap2\n      swap1\n      swap2\n      swap1\n      swap2\n      pop\n      0x00\n      dup3\n      add\n      mload\n      dup2\n      0x00\n      add\n      swap1\n      dup2\n      tag_44\n      swap2\n      swap1\n      tag_45\n      jump\t// in\n    tag_44:\n      pop\n      0x20\n      dup3\n      add\n      mload\n      dup2\n      0x01\n      add\n      swap1\n      dup2\n      tag_46\n      swap2\n      swap1\n      tag_45\n      jump\t// in\n    tag_46:\n      pop\n      0x40\n      dup3\n      add\n      mload\n      dup2\n      0x02\n      add\n      exp(0x0100, 0x00)\n      dup2\n      sload\n      dup2\n      0xff\n      mul\n      not\n      and\n      swap1\n      dup4\n      0xff\n      and\n      mul\n      or\n      swap1\n      sstore\n      pop\n      pop\n      pop\n        /* \"contracts/voter.sol\":581:582  1 */\n      0x01\n        /* \"contracts/voter.sol\":565:571  voters */\n      0x00\n        /* \"contracts/voter.sol\":565:578  voters.length */\n      dup1\n      sload\n      swap1\n      pop\n        /* \"contracts/voter.sol\":565:582  voters.length - 1 */\n      tag_47\n      swap2\n      swap1\n      tag_48\n      jump\t// in\n    tag_47:\n        /* \"contracts/voter.sol\":543:553  voterIndex */\n      0x01\n        /* \"contracts/voter.sol\":554:561  _rollno */\n      dup3\n        /* \"contracts/voter.sol\":543:562  voterIndex[_rollno] */\n      mload(0x40)\n      tag_49\n      swap2\n      swap1\n      tag_50\n      jump\t// in\n    tag_49:\n      swap1\n      dup2\n      mstore\n      0x20\n      add\n      mload(0x40)\n      dup1\n      swap2\n      sub\n      swap1\n      keccak256\n        /* \"contracts/voter.sol\":543:582  voterIndex[_rollno] = voters.length - 1 */\n      dup2\n      swap1\n      sstore\n      pop\n        /* \"contracts/voter.sol\":618:625  _rollno */\n      dup1\n        /* \"contracts/voter.sol\":592:603  voterRollno */\n      0x02\n        /* \"contracts/voter.sol\":592:615  voterRollno[msg.sender] */\n      0x00\n        /* \"contracts/voter.sol\":604:614  msg.sender */\n      caller\n        /* \"contracts/voter.sol\":592:615  voterRollno[msg.sender] */\n      0xffffffffffffffffffffffffffffffffffffffff\n      and\n      0xffffffffffffffffffffffffffffffffffffffff\n      and\n      dup2\n      mstore\n      0x20\n      add\n      swap1\n      dup2\n      mstore\n      0x20\n      add\n      0x00\n      keccak256\n        /* \"contracts/voter.sol\":592:625  voterRollno[msg.sender] = _rollno */\n      swap1\n      dup2\n      tag_51\n      swap2\n      swap1\n      tag_45\n      jump\t// in\n    tag_51:\n      pop\n        /* \"contracts/voter.sol\":330:632  function createVoter(string memory _name, string memory _rollno) public{... */\n      pop\n      pop\n      jump\t// out\n        /* \"contracts/candidates.sol\":502:989  function createCandidate(string memory _name, string memory _rollno) public{... */\n    tag_19:\n        /* \"contracts/candidates.sol\":640:641  0 */\n      0x00\n        /* \"contracts/candidates.sol\":601:616  candidateRollno */\n      0x05\n        /* \"contracts/candidates.sol\":601:628  candidateRollno[msg.sender] */\n      0x00\n        /* \"contracts/candidates.sol\":617:627  msg.sender */\n      caller\n        /* \"contracts/candidates.sol\":601:628  candidateRollno[msg.sender] */\n      0xffffffffffffffffffffffffffffffffffffffff\n      and\n      0xffffffffffffffffffffffffffffffffffffffff\n      and\n      dup2\n      mstore\n      0x20\n      add\n      swap1\n      dup2\n      mstore\n      0x20\n      add\n      0x00\n      keccak256\n        /* \"contracts/candidates.sol\":595:636  bytes(candidateRollno[msg.sender]).length */\n      dup1\n      sload\n      tag_53\n      swap1\n      tag_28\n      jump\t// in\n    tag_53:\n      swap1\n      pop\n        /* \"contracts/candidates.sol\":595:641  bytes(candidateRollno[msg.sender]).length == 0 */\n      eq\n        /* \"contracts/candidates.sol\":587:671  require(bytes(candidateRollno[msg.sender]).length == 0, \"Candidate already exists!\") */\n      tag_54\n      jumpi\n      mload(0x40)\n      0x08c379a000000000000000000000000000000000000000000000000000000000\n      dup2\n      mstore\n      0x04\n      add\n      tag_55\n      swap1\n      tag_56\n      jump\t// in\n    tag_55:\n      mload(0x40)\n      dup1\n      swap2\n      sub\n      swap1\n      revert\n    tag_54:\n        /* \"contracts/candidates.sol\":772:779  _rollno */\n      dup1\n        /* \"contracts/candidates.sol\":755:780  abi.encodePacked(_rollno) */\n      add(0x20, mload(0x40))\n      tag_57\n      swap2\n      swap1\n      tag_50\n      jump\t// in\n    tag_57:\n      mload(0x40)\n      0x20\n      dup2\n      dup4\n      sub\n      sub\n      dup2\n      mstore\n      swap1\n      0x40\n      mstore\n        /* \"contracts/candidates.sol\":745:781  keccak256(abi.encodePacked(_rollno)) */\n      dup1\n      mload\n      swap1\n      0x20\n      add\n      keccak256\n        /* \"contracts/candidates.sol\":716:727  voterRollno */\n      0x02\n        /* \"contracts/candidates.sol\":716:739  voterRollno[msg.sender] */\n      0x00\n        /* \"contracts/candidates.sol\":728:738  msg.sender */\n      caller\n        /* \"contracts/candidates.sol\":716:739  voterRollno[msg.sender] */\n      0xffffffffffffffffffffffffffffffffffffffff\n      and\n      0xffffffffffffffffffffffffffffffffffffffff\n      and\n      dup2\n      mstore\n      0x20\n      add\n      swap1\n      dup2\n      mstore\n      0x20\n      add\n      0x00\n      keccak256\n        /* \"contracts/candidates.sol\":699:740  abi.encodePacked(voterRollno[msg.sender]) */\n      add(0x20, mload(0x40))\n      tag_58\n      swap2\n      swap1\n      tag_59\n      jump\t// in\n    tag_58:\n      mload(0x40)\n      0x20\n      dup2\n      dup4\n      sub\n      sub\n      dup2\n      mstore\n      swap1\n      0x40\n      mstore\n        /* \"contracts/candidates.sol\":689:741  keccak256(abi.encodePacked(voterRollno[msg.sender])) */\n      dup1\n      mload\n      swap1\n      0x20\n      add\n      keccak256\n        /* \"contracts/candidates.sol\":689:781  keccak256(abi.encodePacked(voterRollno[msg.sender])) == keccak256(abi.encodePacked(_rollno)) */\n      eq\n        /* \"contracts/candidates.sol\":681:823  require(keccak256(abi.encodePacked(voterRollno[msg.sender])) == keccak256(abi.encodePacked(_rollno)), \"make sure to enter your voter details\") */\n      tag_60\n      jumpi\n      mload(0x40)\n      0x08c379a000000000000000000000000000000000000000000000000000000000\n      dup2\n      mstore\n      0x04\n      add\n      tag_61\n      swap1\n      tag_62\n      jump\t// in\n    tag_61:\n      mload(0x40)\n      dup1\n      swap2\n      sub\n      swap1\n      revert\n    tag_60:\n        /* \"contracts/candidates.sol\":833:843  candidates */\n      0x03\n        /* \"contracts/candidates.sol\":849:877  Candidate(_name, _rollno, 0) */\n      mload(0x40)\n      dup1\n      0x60\n      add\n      0x40\n      mstore\n      dup1\n        /* \"contracts/candidates.sol\":859:864  _name */\n      dup5\n        /* \"contracts/candidates.sol\":849:877  Candidate(_name, _rollno, 0) */\n      dup2\n      mstore\n      0x20\n      add\n        /* \"contracts/candidates.sol\":866:873  _rollno */\n      dup4\n        /* \"contracts/candidates.sol\":849:877  Candidate(_name, _rollno, 0) */\n      dup2\n      mstore\n      0x20\n      add\n        /* \"contracts/candidates.sol\":875:876  0 */\n      0x00\n        /* \"contracts/candidates.sol\":849:877  Candidate(_name, _rollno, 0) */\n      dup2\n      mstore\n      pop\n        /* \"contracts/candidates.sol\":833:878  candidates.push(Candidate(_name, _rollno, 0)) */\n      swap1\n      dup1\n      0x01\n      dup2\n      sload\n      add\n      dup1\n      dup3\n      sstore\n      dup1\n      swap2\n      pop\n      pop\n      0x01\n      swap1\n      sub\n      swap1\n      0x00\n      mstore\n      keccak256(0x00, 0x20)\n      swap1\n      0x03\n      mul\n      add\n      0x00\n      swap1\n      swap2\n      swap1\n      swap2\n      swap1\n      swap2\n      pop\n      0x00\n      dup3\n      add\n      mload\n      dup2\n      0x00\n      add\n      swap1\n      dup2\n      tag_64\n      swap2\n      swap1\n      tag_45\n      jump\t// in\n    tag_64:\n      pop\n      0x20\n      dup3\n      add\n      mload\n      dup2\n      0x01\n      add\n      swap1\n      dup2\n      tag_65\n      swap2\n      swap1\n      tag_45\n      jump\t// in\n    tag_65:\n      pop\n      0x40\n      dup3\n      add\n      mload\n      dup2\n      0x02\n      add\n      sstore\n      pop\n      pop\n        /* \"contracts/candidates.sol\":934:935  1 */\n      0x01\n        /* \"contracts/candidates.sol\":914:924  candidates */\n      0x03\n        /* \"contracts/candidates.sol\":914:931  candidates.length */\n      dup1\n      sload\n      swap1\n      pop\n        /* \"contracts/candidates.sol\":914:935  candidates.length - 1 */\n      tag_66\n      swap2\n      swap1\n      tag_48\n      jump\t// in\n    tag_66:\n        /* \"contracts/candidates.sol\":888:902  candidateIndex */\n      0x04\n        /* \"contracts/candidates.sol\":903:910  _rollno */\n      dup3\n        /* \"contracts/candidates.sol\":888:911  candidateIndex[_rollno] */\n      mload(0x40)\n      tag_67\n      swap2\n      swap1\n      tag_50\n      jump\t// in\n    tag_67:\n      swap1\n      dup2\n      mstore\n      0x20\n      add\n      mload(0x40)\n      dup1\n      swap2\n      sub\n      swap1\n      keccak256\n        /* \"contracts/candidates.sol\":888:935  candidateIndex[_rollno] = candidates.length - 1 */\n      dup2\n      swap1\n      sstore\n      pop\n        /* \"contracts/candidates.sol\":975:982  _rollno */\n      dup1\n        /* \"contracts/candidates.sol\":945:960  candidateRollno */\n      0x05\n        /* \"contracts/candidates.sol\":945:972  candidateRollno[msg.sender] */\n      0x00\n        /* \"contracts/candidates.sol\":961:971  msg.sender */\n      caller\n        /* \"contracts/candidates.sol\":945:972  candidateRollno[msg.sender] */\n      0xffffffffffffffffffffffffffffffffffffffff\n      and\n      0xffffffffffffffffffffffffffffffffffffffff\n      and\n      dup2\n      mstore\n      0x20\n      add\n      swap1\n      dup2\n      mstore\n      0x20\n      add\n      0x00\n      keccak256\n        /* \"contracts/candidates.sol\":945:982  candidateRollno[msg.sender] = _rollno */\n      swap1\n      dup2\n      tag_68\n      swap2\n      swap1\n      tag_45\n      jump\t// in\n    tag_68:\n      pop\n        /* \"contracts/candidates.sol\":502:989  function createCandidate(string memory _name, string memory _rollno) public{... */\n      pop\n      pop\n      jump\t// out\n        /* \"contracts/voter.sol\":189:210  Voter[] public voters */\n    tag_22:\n      0x00\n      dup2\n      dup2\n      sload\n      dup2\n      lt\n      tag_69\n      jumpi\n      0x00\n      dup1\n      revert\n    tag_69:\n      swap1\n      0x00\n      mstore\n      keccak256(0x00, 0x20)\n      swap1\n      0x03\n      mul\n      add\n      0x00\n      swap2\n      pop\n      swap1\n      pop\n      dup1\n      0x00\n      add\n      dup1\n      sload\n      tag_71\n      swap1\n      tag_28\n      jump\t// in\n    tag_71:\n      dup1\n      0x1f\n      add\n      0x20\n      dup1\n      swap2\n      div\n      mul\n      0x20\n      add\n      mload(0x40)\n      swap1\n      dup2\n      add\n      0x40\n      mstore\n      dup1\n      swap3\n      swap2\n      swap1\n      dup2\n      dup2\n      mstore\n      0x20\n      add\n      dup3\n      dup1\n      sload\n      tag_72\n      swap1\n      tag_28\n      jump\t// in\n    tag_72:\n      dup1\n      iszero\n      tag_73\n      jumpi\n      dup1\n      0x1f\n      lt\n      tag_74\n      jumpi\n      0x0100\n      dup1\n      dup4\n      sload\n      div\n      mul\n      dup4\n      mstore\n      swap2\n      0x20\n      add\n      swap2\n      jump(tag_73)\n    tag_74:\n      dup3\n      add\n      swap2\n      swap1\n      0x00\n      mstore\n      keccak256(0x00, 0x20)\n      swap1\n    tag_75:\n      dup2\n      sload\n      dup2\n      mstore\n      swap1\n      0x01\n      add\n      swap1\n      0x20\n      add\n      dup1\n      dup4\n      gt\n      tag_75\n      jumpi\n      dup3\n      swap1\n      sub\n      0x1f\n      and\n      dup3\n      add\n      swap2\n    tag_73:\n      pop\n      pop\n      pop\n      pop\n      pop\n      swap1\n      dup1\n      0x01\n      add\n      dup1\n      sload\n      tag_76\n      swap1\n      tag_28\n      jump\t// in\n    tag_76:\n      dup1\n      0x1f\n      add\n      0x20\n      dup1\n      swap2\n      div\n      mul\n      0x20\n      add\n      mload(0x40)\n      swap1\n      dup2\n      add\n      0x40\n      mstore\n      dup1\n      swap3\n      swap2\n      swap1\n      dup2\n      dup2\n      mstore\n      0x20\n      add\n      dup3\n      dup1\n      sload\n      tag_77\n      swap1\n      tag_28\n      jump\t// in\n    tag_77:\n      dup1\n      iszero\n      tag_78\n      jumpi\n      dup1\n      0x1f\n      lt\n      tag_79\n      jumpi\n      0x0100\n      dup1\n      dup4\n      sload\n      div\n      mul\n      dup4\n      mstore\n      swap2\n      0x20\n      add\n      swap2\n      jump(tag_78)\n    tag_79:\n      dup3\n      add\n      swap2\n      swap1\n      0x00\n      mstore\n      keccak256(0x00, 0x20)\n      swap1\n    tag_80:\n      dup2\n      sload\n      dup2\n      mstore\n      swap1\n      0x01\n      add\n      swap1\n      0x20\n      add\n      dup1\n      dup4\n      gt\n      tag_80\n      jumpi\n      dup3\n      swap1\n      sub\n      0x1f\n      and\n      dup3\n      add\n      swap2\n    tag_78:\n      pop\n      pop\n      pop\n      pop\n      pop\n      swap1\n      dup1\n      0x02\n      add\n      0x00\n      swap1\n      sload\n      swap1\n      0x0100\n      exp\n      swap1\n      div\n      0xff\n      and\n      swap1\n      pop\n      dup4\n      jump\t// out\n        /* \"#utility.yul\":7:82   */\n    tag_81:\n        /* \"#utility.yul\":40:46   */\n      0x00\n        /* \"#utility.yul\":73:75   */\n      0x40\n        /* \"#utility.yul\":67:76   */\n      mload\n        /* \"#utility.yul\":57:76   */\n      swap1\n      pop\n        /* \"#utility.yul\":7:82   */\n      swap1\n      jump\t// out\n        /* \"#utility.yul\":88:205   */\n    tag_82:\n        /* \"#utility.yul\":197:198   */\n      0x00\n        /* \"#utility.yul\":194:195   */\n      dup1\n        /* \"#utility.yul\":187:199   */\n      revert\n        /* \"#utility.yul\":211:328   */\n    tag_83:\n        /* \"#utility.yul\":320:321   */\n      0x00\n        /* \"#utility.yul\":317:318   */\n      dup1\n        /* \"#utility.yul\":310:322   */\n      revert\n        /* \"#utility.yul\":334:411   */\n    tag_84:\n        /* \"#utility.yul\":371:378   */\n      0x00\n        /* \"#utility.yul\":400:405   */\n      dup2\n        /* \"#utility.yul\":389:405   */\n      swap1\n      pop\n        /* \"#utility.yul\":334:411   */\n      swap2\n      swap1\n      pop\n      jump\t// out\n        /* \"#utility.yul\":417:539   */\n    tag_85:\n        /* \"#utility.yul\":490:514   */\n      tag_136\n        /* \"#utility.yul\":508:513   */\n      dup2\n        /* \"#utility.yul\":490:514   */\n      tag_84\n      jump\t// in\n    tag_136:\n        /* \"#utility.yul\":483:488   */\n      dup2\n        /* \"#utility.yul\":480:515   */\n      eq\n        /* \"#utility.yul\":470:533   */\n      tag_137\n      jumpi\n        /* \"#utility.yul\":529:530   */\n      0x00\n        /* \"#utility.yul\":526:527   */\n      dup1\n        /* \"#utility.yul\":519:531   */\n      revert\n        /* \"#utility.yul\":470:533   */\n    tag_137:\n        /* \"#utility.yul\":417:539   */\n      pop\n      jump\t// out\n        /* \"#utility.yul\":545:684   */\n    tag_86:\n        /* \"#utility.yul\":591:596   */\n      0x00\n        /* \"#utility.yul\":629:635   */\n      dup2\n        /* \"#utility.yul\":616:636   */\n      calldataload\n        /* \"#utility.yul\":607:636   */\n      swap1\n      pop\n        /* \"#utility.yul\":645:678   */\n      tag_139\n        /* \"#utility.yul\":672:677   */\n      dup2\n        /* \"#utility.yul\":645:678   */\n      tag_85\n      jump\t// in\n    tag_139:\n        /* \"#utility.yul\":545:684   */\n      swap3\n      swap2\n      pop\n      pop\n      jump\t// out\n        /* \"#utility.yul\":690:1019   */\n    tag_9:\n        /* \"#utility.yul\":749:755   */\n      0x00\n        /* \"#utility.yul\":798:800   */\n      0x20\n        /* \"#utility.yul\":786:795   */\n      dup3\n        /* \"#utility.yul\":777:784   */\n      dup5\n        /* \"#utility.yul\":773:796   */\n      sub\n        /* \"#utility.yul\":769:801   */\n      slt\n        /* \"#utility.yul\":766:885   */\n      iszero\n      tag_141\n      jumpi\n        /* \"#utility.yul\":804:883   */\n      tag_142\n      tag_82\n      jump\t// in\n    tag_142:\n        /* \"#utility.yul\":766:885   */\n    tag_141:\n        /* \"#utility.yul\":924:925   */\n      0x00\n        /* \"#utility.yul\":949:1002   */\n      tag_143\n        /* \"#utility.yul\":994:1001   */\n      dup5\n        /* \"#utility.yul\":985:991   */\n      dup3\n        /* \"#utility.yul\":974:983   */\n      dup6\n        /* \"#utility.yul\":970:992   */\n      add\n        /* \"#utility.yul\":949:1002   */\n      tag_86\n      jump\t// in\n    tag_143:\n        /* \"#utility.yul\":939:1002   */\n      swap2\n      pop\n        /* \"#utility.yul\":895:1012   */\n      pop\n        /* \"#utility.yul\":690:1019   */\n      swap3\n      swap2\n      pop\n      pop\n      jump\t// out\n        /* \"#utility.yul\":1025:1124   */\n    tag_87:\n        /* \"#utility.yul\":1077:1083   */\n      0x00\n        /* \"#utility.yul\":1111:1116   */\n      dup2\n        /* \"#utility.yul\":1105:1117   */\n      mload\n        /* \"#utility.yul\":1095:1117   */\n      swap1\n      pop\n        /* \"#utility.yul\":1025:1124   */\n      swap2\n      swap1\n      pop\n      jump\t// out\n        /* \"#utility.yul\":1130:1299   */\n    tag_88:\n        /* \"#utility.yul\":1214:1225   */\n      0x00\n        /* \"#utility.yul\":1248:1254   */\n      dup3\n        /* \"#utility.yul\":1243:1246   */\n      dup3\n        /* \"#utility.yul\":1236:1255   */\n      mstore\n        /* \"#utility.yul\":1288:1292   */\n      0x20\n        /* \"#utility.yul\":1283:1286   */\n      dup3\n        /* \"#utility.yul\":1279:1293   */\n      add\n        /* \"#utility.yul\":1264:1293   */\n      swap1\n      pop\n        /* \"#utility.yul\":1130:1299   */\n      swap3\n      swap2\n      pop\n      pop\n      jump\t// out\n        /* \"#utility.yul\":1305:1444   */\n    tag_89:\n        /* \"#utility.yul\":1394:1400   */\n      dup3\n        /* \"#utility.yul\":1389:1392   */\n      dup2\n        /* \"#utility.yul\":1384:1387   */\n      dup4\n        /* \"#utility.yul\":1378:1401   */\n      mcopy\n        /* \"#utility.yul\":1435:1436   */\n      0x00\n        /* \"#utility.yul\":1426:1432   */\n      dup4\n        /* \"#utility.yul\":1421:1424   */\n      dup4\n        /* \"#utility.yul\":1417:1433   */\n      add\n        /* \"#utility.yul\":1410:1437   */\n      mstore\n        /* \"#utility.yul\":1305:1444   */\n      pop\n      pop\n      pop\n      jump\t// out\n        /* \"#utility.yul\":1450:1552   */\n    tag_90:\n        /* \"#utility.yul\":1491:1497   */\n      0x00\n        /* \"#utility.yul\":1542:1544   */\n      0x1f\n        /* \"#utility.yul\":1538:1545   */\n      not\n        /* \"#utility.yul\":1533:1535   */\n      0x1f\n        /* \"#utility.yul\":1526:1531   */\n      dup4\n        /* \"#utility.yul\":1522:1536   */\n      add\n        /* \"#utility.yul\":1518:1546   */\n      and\n        /* \"#utility.yul\":1508:1546   */\n      swap1\n      pop\n        /* \"#utility.yul\":1450:1552   */\n      swap2\n      swap1\n      pop\n      jump\t// out\n        /* \"#utility.yul\":1558:1935   */\n    tag_91:\n        /* \"#utility.yul\":1646:1649   */\n      0x00\n        /* \"#utility.yul\":1674:1713   */\n      tag_149\n        /* \"#utility.yul\":1707:1712   */\n      dup3\n        /* \"#utility.yul\":1674:1713   */\n      tag_87\n      jump\t// in\n    tag_149:\n        /* \"#utility.yul\":1729:1800   */\n      tag_150\n        /* \"#utility.yul\":1793:1799   */\n      dup2\n        /* \"#utility.yul\":1788:1791   */\n      dup6\n        /* \"#utility.yul\":1729:1800   */\n      tag_88\n      jump\t// in\n    tag_150:\n        /* \"#utility.yul\":1722:1800   */\n      swap4\n      pop\n        /* \"#utility.yul\":1809:1874   */\n      tag_151\n        /* \"#utility.yul\":1867:1873   */\n      dup2\n        /* \"#utility.yul\":1862:1865   */\n      dup6\n        /* \"#utility.yul\":1855:1859   */\n      0x20\n        /* \"#utility.yul\":1848:1853   */\n      dup7\n        /* \"#utility.yul\":1844:1860   */\n      add\n        /* \"#utility.yul\":1809:1874   */\n      tag_89\n      jump\t// in\n    tag_151:\n        /* \"#utility.yul\":1899:1928   */\n      tag_152\n        /* \"#utility.yul\":1921:1927   */\n      dup2\n        /* \"#utility.yul\":1899:1928   */\n      tag_90\n      jump\t// in\n    tag_152:\n        /* \"#utility.yul\":1894:1897   */\n      dup5\n        /* \"#utility.yul\":1890:1929   */\n      add\n        /* \"#utility.yul\":1883:1929   */\n      swap2\n      pop\n        /* \"#utility.yul\":1650:1935   */\n      pop\n        /* \"#utility.yul\":1558:1935   */\n      swap3\n      swap2\n      pop\n      pop\n      jump\t// out\n        /* \"#utility.yul\":1941:2059   */\n    tag_92:\n        /* \"#utility.yul\":2028:2052   */\n      tag_154\n        /* \"#utility.yul\":2046:2051   */\n      dup2\n        /* \"#utility.yul\":2028:2052   */\n      tag_84\n      jump\t// in\n    tag_154:\n        /* \"#utility.yul\":2023:2026   */\n      dup3\n        /* \"#utility.yul\":2016:2053   */\n      mstore\n        /* \"#utility.yul\":1941:2059   */\n      pop\n      pop\n      jump\t// out\n        /* \"#utility.yul\":2065:2689   */\n    tag_12:\n        /* \"#utility.yul\":2254:2258   */\n      0x00\n        /* \"#utility.yul\":2292:2294   */\n      0x60\n        /* \"#utility.yul\":2281:2290   */\n      dup3\n        /* \"#utility.yul\":2277:2295   */\n      add\n        /* \"#utility.yul\":2269:2295   */\n      swap1\n      pop\n        /* \"#utility.yul\":2341:2350   */\n      dup2\n        /* \"#utility.yul\":2335:2339   */\n      dup2\n        /* \"#utility.yul\":2331:2351   */\n      sub\n        /* \"#utility.yul\":2327:2328   */\n      0x00\n        /* \"#utility.yul\":2316:2325   */\n      dup4\n        /* \"#utility.yul\":2312:2329   */\n      add\n        /* \"#utility.yul\":2305:2352   */\n      mstore\n        /* \"#utility.yul\":2369:2447   */\n      tag_156\n        /* \"#utility.yul\":2442:2446   */\n      dup2\n        /* \"#utility.yul\":2433:2439   */\n      dup7\n        /* \"#utility.yul\":2369:2447   */\n      tag_91\n      jump\t// in\n    tag_156:\n        /* \"#utility.yul\":2361:2447   */\n      swap1\n      pop\n        /* \"#utility.yul\":2494:2503   */\n      dup2\n        /* \"#utility.yul\":2488:2492   */\n      dup2\n        /* \"#utility.yul\":2484:2504   */\n      sub\n        /* \"#utility.yul\":2479:2481   */\n      0x20\n        /* \"#utility.yul\":2468:2477   */\n      dup4\n        /* \"#utility.yul\":2464:2482   */\n      add\n        /* \"#utility.yul\":2457:2505   */\n      mstore\n        /* \"#utility.yul\":2522:2600   */\n      tag_157\n        /* \"#utility.yul\":2595:2599   */\n      dup2\n        /* \"#utility.yul\":2586:2592   */\n      dup6\n        /* \"#utility.yul\":2522:2600   */\n      tag_91\n      jump\t// in\n    tag_157:\n        /* \"#utility.yul\":2514:2600   */\n      swap1\n      pop\n        /* \"#utility.yul\":2610:2682   */\n      tag_158\n        /* \"#utility.yul\":2678:2680   */\n      0x40\n        /* \"#utility.yul\":2667:2676   */\n      dup4\n        /* \"#utility.yul\":2663:2681   */\n      add\n        /* \"#utility.yul\":2654:2660   */\n      dup5\n        /* \"#utility.yul\":2610:2682   */\n      tag_92\n      jump\t// in\n    tag_158:\n        /* \"#utility.yul\":2065:2689   */\n      swap5\n      swap4\n      pop\n      pop\n      pop\n      pop\n      jump\t// out\n        /* \"#utility.yul\":2695:2812   */\n    tag_93:\n        /* \"#utility.yul\":2804:2805   */\n      0x00\n        /* \"#utility.yul\":2801:2802   */\n      dup1\n        /* \"#utility.yul\":2794:2806   */\n      revert\n        /* \"#utility.yul\":2818:2935   */\n    tag_94:\n        /* \"#utility.yul\":2927:2928   */\n      0x00\n        /* \"#utility.yul\":2924:2925   */\n      dup1\n        /* \"#utility.yul\":2917:2929   */\n      revert\n        /* \"#utility.yul\":2941:3121   */\n    tag_95:\n        /* \"#utility.yul\":2989:3066   */\n      0x4e487b7100000000000000000000000000000000000000000000000000000000\n        /* \"#utility.yul\":2986:2987   */\n      0x00\n        /* \"#utility.yul\":2979:3067   */\n      mstore\n        /* \"#utility.yul\":3086:3090   */\n      0x41\n        /* \"#utility.yul\":3083:3084   */\n      0x04\n        /* \"#utility.yul\":3076:3091   */\n      mstore\n        /* \"#utility.yul\":3110:3114   */\n      0x24\n        /* \"#utility.yul\":3107:3108   */\n      0x00\n        /* \"#utility.yul\":3100:3115   */\n      revert\n        /* \"#utility.yul\":3127:3408   */\n    tag_96:\n        /* \"#utility.yul\":3210:3237   */\n      tag_163\n        /* \"#utility.yul\":3232:3236   */\n      dup3\n        /* \"#utility.yul\":3210:3237   */\n      tag_90\n      jump\t// in\n    tag_163:\n        /* \"#utility.yul\":3202:3208   */\n      dup2\n        /* \"#utility.yul\":3198:3238   */\n      add\n        /* \"#utility.yul\":3340:3346   */\n      dup2\n        /* \"#utility.yul\":3328:3338   */\n      dup2\n        /* \"#utility.yul\":3325:3347   */\n      lt\n        /* \"#utility.yul\":3304:3322   */\n      0xffffffffffffffff\n        /* \"#utility.yul\":3292:3302   */\n      dup3\n        /* \"#utility.yul\":3289:3323   */\n      gt\n        /* \"#utility.yul\":3286:3348   */\n      or\n        /* \"#utility.yul\":3283:3371   */\n      iszero\n      tag_164\n      jumpi\n        /* \"#utility.yul\":3351:3369   */\n      tag_165\n      tag_95\n      jump\t// in\n    tag_165:\n        /* \"#utility.yul\":3283:3371   */\n    tag_164:\n        /* \"#utility.yul\":3391:3401   */\n      dup1\n        /* \"#utility.yul\":3387:3389   */\n      0x40\n        /* \"#utility.yul\":3380:3402   */\n      mstore\n        /* \"#utility.yul\":3170:3408   */\n      pop\n        /* \"#utility.yul\":3127:3408   */\n      pop\n      pop\n      jump\t// out\n        /* \"#utility.yul\":3414:3543   */\n    tag_97:\n        /* \"#utility.yul\":3448:3454   */\n      0x00\n        /* \"#utility.yul\":3475:3495   */\n      tag_167\n      tag_81\n      jump\t// in\n    tag_167:\n        /* \"#utility.yul\":3465:3495   */\n      swap1\n      pop\n        /* \"#utility.yul\":3504:3537   */\n      tag_168\n        /* \"#utility.yul\":3532:3536   */\n      dup3\n        /* \"#utility.yul\":3524:3530   */\n      dup3\n        /* \"#utility.yul\":3504:3537   */\n      tag_96\n      jump\t// in\n    tag_168:\n        /* \"#utility.yul\":3414:3543   */\n      swap2\n      swap1\n      pop\n      jump\t// out\n        /* \"#utility.yul\":3549:3857   */\n    tag_98:\n        /* \"#utility.yul\":3611:3615   */\n      0x00\n        /* \"#utility.yul\":3701:3719   */\n      0xffffffffffffffff\n        /* \"#utility.yul\":3693:3699   */\n      dup3\n        /* \"#utility.yul\":3690:3720   */\n      gt\n        /* \"#utility.yul\":3687:3743   */\n      iszero\n      tag_170\n      jumpi\n        /* \"#utility.yul\":3723:3741   */\n      tag_171\n      tag_95\n      jump\t// in\n    tag_171:\n        /* \"#utility.yul\":3687:3743   */\n    tag_170:\n        /* \"#utility.yul\":3761:3790   */\n      tag_172\n        /* \"#utility.yul\":3783:3789   */\n      dup3\n        /* \"#utility.yul\":3761:3790   */\n      tag_90\n      jump\t// in\n    tag_172:\n        /* \"#utility.yul\":3753:3790   */\n      swap1\n      pop\n        /* \"#utility.yul\":3845:3849   */\n      0x20\n        /* \"#utility.yul\":3839:3843   */\n      dup2\n        /* \"#utility.yul\":3835:3850   */\n      add\n        /* \"#utility.yul\":3827:3850   */\n      swap1\n      pop\n        /* \"#utility.yul\":3549:3857   */\n      swap2\n      swap1\n      pop\n      jump\t// out\n        /* \"#utility.yul\":3863:4011   */\n    tag_99:\n        /* \"#utility.yul\":3961:3967   */\n      dup3\n        /* \"#utility.yul\":3956:3959   */\n      dup2\n        /* \"#utility.yul\":3951:3954   */\n      dup4\n        /* \"#utility.yul\":3938:3968   */\n      calldatacopy\n        /* \"#utility.yul\":4002:4003   */\n      0x00\n        /* \"#utility.yul\":3993:3999   */\n      dup4\n        /* \"#utility.yul\":3988:3991   */\n      dup4\n        /* \"#utility.yul\":3984:4000   */\n      add\n        /* \"#utility.yul\":3977:4004   */\n      mstore\n        /* \"#utility.yul\":3863:4011   */\n      pop\n      pop\n      pop\n      jump\t// out\n        /* \"#utility.yul\":4017:4442   */\n    tag_100:\n        /* \"#utility.yul\":4095:4100   */\n      0x00\n        /* \"#utility.yul\":4120:4186   */\n      tag_175\n        /* \"#utility.yul\":4136:4185   */\n      tag_176\n        /* \"#utility.yul\":4178:4184   */\n      dup5\n        /* \"#utility.yul\":4136:4185   */\n      tag_98\n      jump\t// in\n    tag_176:\n        /* \"#utility.yul\":4120:4186   */\n      tag_97\n      jump\t// in\n    tag_175:\n        /* \"#utility.yul\":4111:4186   */\n      swap1\n      pop\n        /* \"#utility.yul\":4209:4215   */\n      dup3\n        /* \"#utility.yul\":4202:4207   */\n      dup2\n        /* \"#utility.yul\":4195:4216   */\n      mstore\n        /* \"#utility.yul\":4247:4251   */\n      0x20\n        /* \"#utility.yul\":4240:4245   */\n      dup2\n        /* \"#utility.yul\":4236:4252   */\n      add\n        /* \"#utility.yul\":4285:4288   */\n      dup5\n        /* \"#utility.yul\":4276:4282   */\n      dup5\n        /* \"#utility.yul\":4271:4274   */\n      dup5\n        /* \"#utility.yul\":4267:4283   */\n      add\n        /* \"#utility.yul\":4264:4289   */\n      gt\n        /* \"#utility.yul\":4261:4373   */\n      iszero\n      tag_177\n      jumpi\n        /* \"#utility.yul\":4292:4371   */\n      tag_178\n      tag_94\n      jump\t// in\n    tag_178:\n        /* \"#utility.yul\":4261:4373   */\n    tag_177:\n        /* \"#utility.yul\":4382:4436   */\n      tag_179\n        /* \"#utility.yul\":4429:4435   */\n      dup5\n        /* \"#utility.yul\":4424:4427   */\n      dup3\n        /* \"#utility.yul\":4419:4422   */\n      dup6\n        /* \"#utility.yul\":4382:4436   */\n      tag_99\n      jump\t// in\n    tag_179:\n        /* \"#utility.yul\":4101:4442   */\n      pop\n        /* \"#utility.yul\":4017:4442   */\n      swap4\n      swap3\n      pop\n      pop\n      pop\n      jump\t// out\n        /* \"#utility.yul\":4462:4802   */\n    tag_101:\n        /* \"#utility.yul\":4518:4523   */\n      0x00\n        /* \"#utility.yul\":4567:4570   */\n      dup3\n        /* \"#utility.yul\":4560:4564   */\n      0x1f\n        /* \"#utility.yul\":4552:4558   */\n      dup4\n        /* \"#utility.yul\":4548:4565   */\n      add\n        /* \"#utility.yul\":4544:4571   */\n      slt\n        /* \"#utility.yul\":4534:4656   */\n      tag_181\n      jumpi\n        /* \"#utility.yul\":4575:4654   */\n      tag_182\n      tag_93\n      jump\t// in\n    tag_182:\n        /* \"#utility.yul\":4534:4656   */\n    tag_181:\n        /* \"#utility.yul\":4692:4698   */\n      dup2\n        /* \"#utility.yul\":4679:4699   */\n      calldataload\n        /* \"#utility.yul\":4717:4796   */\n      tag_183\n        /* \"#utility.yul\":4792:4795   */\n      dup5\n        /* \"#utility.yul\":4784:4790   */\n      dup3\n        /* \"#utility.yul\":4777:4781   */\n      0x20\n        /* \"#utility.yul\":4769:4775   */\n      dup7\n        /* \"#utility.yul\":4765:4782   */\n      add\n        /* \"#utility.yul\":4717:4796   */\n      tag_100\n      jump\t// in\n    tag_183:\n        /* \"#utility.yul\":4708:4796   */\n      swap2\n      pop\n        /* \"#utility.yul\":4524:4802   */\n      pop\n        /* \"#utility.yul\":4462:4802   */\n      swap3\n      swap2\n      pop\n      pop\n      jump\t// out\n        /* \"#utility.yul\":4808:5642   */\n    tag_15:\n        /* \"#utility.yul\":4896:4902   */\n      0x00\n        /* \"#utility.yul\":4904:4910   */\n      dup1\n        /* \"#utility.yul\":4953:4955   */\n      0x40\n        /* \"#utility.yul\":4941:4950   */\n      dup4\n        /* \"#utility.yul\":4932:4939   */\n      dup6\n        /* \"#utility.yul\":4928:4951   */\n      sub\n        /* \"#utility.yul\":4924:4956   */\n      slt\n        /* \"#utility.yul\":4921:5040   */\n      iszero\n      tag_185\n      jumpi\n        /* \"#utility.yul\":4959:5038   */\n      tag_186\n      tag_82\n      jump\t// in\n    tag_186:\n        /* \"#utility.yul\":4921:5040   */\n    tag_185:\n        /* \"#utility.yul\":5107:5108   */\n      0x00\n        /* \"#utility.yul\":5096:5105   */\n      dup4\n        /* \"#utility.yul\":5092:5109   */\n      add\n        /* \"#utility.yul\":5079:5110   */\n      calldataload\n        /* \"#utility.yul\":5137:5155   */\n      0xffffffffffffffff\n        /* \"#utility.yul\":5129:5135   */\n      dup2\n        /* \"#utility.yul\":5126:5156   */\n      gt\n        /* \"#utility.yul\":5123:5240   */\n      iszero\n      tag_187\n      jumpi\n        /* \"#utility.yul\":5159:5238   */\n      tag_188\n      tag_83\n      jump\t// in\n    tag_188:\n        /* \"#utility.yul\":5123:5240   */\n    tag_187:\n        /* \"#utility.yul\":5264:5327   */\n      tag_189\n        /* \"#utility.yul\":5319:5326   */\n      dup6\n        /* \"#utility.yul\":5310:5316   */\n      dup3\n        /* \"#utility.yul\":5299:5308   */\n      dup7\n        /* \"#utility.yul\":5295:5317   */\n      add\n        /* \"#utility.yul\":5264:5327   */\n      tag_101\n      jump\t// in\n    tag_189:\n        /* \"#utility.yul\":5254:5327   */\n      swap3\n      pop\n        /* \"#utility.yul\":5050:5337   */\n      pop\n        /* \"#utility.yul\":5404:5406   */\n      0x20\n        /* \"#utility.yul\":5393:5402   */\n      dup4\n        /* \"#utility.yul\":5389:5407   */\n      add\n        /* \"#utility.yul\":5376:5408   */\n      calldataload\n        /* \"#utility.yul\":5435:5453   */\n      0xffffffffffffffff\n        /* \"#utility.yul\":5427:5433   */\n      dup2\n        /* \"#utility.yul\":5424:5454   */\n      gt\n        /* \"#utility.yul\":5421:5538   */\n      iszero\n      tag_190\n      jumpi\n        /* \"#utility.yul\":5457:5536   */\n      tag_191\n      tag_83\n      jump\t// in\n    tag_191:\n        /* \"#utility.yul\":5421:5538   */\n    tag_190:\n        /* \"#utility.yul\":5562:5625   */\n      tag_192\n        /* \"#utility.yul\":5617:5624   */\n      dup6\n        /* \"#utility.yul\":5608:5614   */\n      dup3\n        /* \"#utility.yul\":5597:5606   */\n      dup7\n        /* \"#utility.yul\":5593:5615   */\n      add\n        /* \"#utility.yul\":5562:5625   */\n      tag_101\n      jump\t// in\n    tag_192:\n        /* \"#utility.yul\":5552:5625   */\n      swap2\n      pop\n        /* \"#utility.yul\":5347:5635   */\n      pop\n        /* \"#utility.yul\":4808:5642   */\n      swap3\n      pop\n      swap3\n      swap1\n      pop\n      jump\t// out\n        /* \"#utility.yul\":5648:5734   */\n    tag_102:\n        /* \"#utility.yul\":5683:5690   */\n      0x00\n        /* \"#utility.yul\":5723:5727   */\n      0xff\n        /* \"#utility.yul\":5716:5721   */\n      dup3\n        /* \"#utility.yul\":5712:5728   */\n      and\n        /* \"#utility.yul\":5701:5728   */\n      swap1\n      pop\n        /* \"#utility.yul\":5648:5734   */\n      swap2\n      swap1\n      pop\n      jump\t// out\n        /* \"#utility.yul\":5740:5852   */\n    tag_103:\n        /* \"#utility.yul\":5823:5845   */\n      tag_195\n        /* \"#utility.yul\":5839:5844   */\n      dup2\n        /* \"#utility.yul\":5823:5845   */\n      tag_102\n      jump\t// in\n    tag_195:\n        /* \"#utility.yul\":5818:5821   */\n      dup3\n        /* \"#utility.yul\":5811:5846   */\n      mstore\n        /* \"#utility.yul\":5740:5852   */\n      pop\n      pop\n      jump\t// out\n        /* \"#utility.yul\":5858:6474   */\n    tag_24:\n        /* \"#utility.yul\":6043:6047   */\n      0x00\n        /* \"#utility.yul\":6081:6083   */\n      0x60\n        /* \"#utility.yul\":6070:6079   */\n      dup3\n        /* \"#utility.yul\":6066:6084   */\n      add\n        /* \"#utility.yul\":6058:6084   */\n      swap1\n      pop\n        /* \"#utility.yul\":6130:6139   */\n      dup2\n        /* \"#utility.yul\":6124:6128   */\n      dup2\n        /* \"#utility.yul\":6120:6140   */\n      sub\n        /* \"#utility.yul\":6116:6117   */\n      0x00\n        /* \"#utility.yul\":6105:6114   */\n      dup4\n        /* \"#utility.yul\":6101:6118   */\n      add\n        /* \"#utility.yul\":6094:6141   */\n      mstore\n        /* \"#utility.yul\":6158:6236   */\n      tag_197\n        /* \"#utility.yul\":6231:6235   */\n      dup2\n        /* \"#utility.yul\":6222:6228   */\n      dup7\n        /* \"#utility.yul\":6158:6236   */\n      tag_91\n      jump\t// in\n    tag_197:\n        /* \"#utility.yul\":6150:6236   */\n      swap1\n      pop\n        /* \"#utility.yul\":6283:6292   */\n      dup2\n        /* \"#utility.yul\":6277:6281   */\n      dup2\n        /* \"#utility.yul\":6273:6293   */\n      sub\n        /* \"#utility.yul\":6268:6270   */\n      0x20\n        /* \"#utility.yul\":6257:6266   */\n      dup4\n        /* \"#utility.yul\":6253:6271   */\n      add\n        /* \"#utility.yul\":6246:6294   */\n      mstore\n        /* \"#utility.yul\":6311:6389   */\n      tag_198\n        /* \"#utility.yul\":6384:6388   */\n      dup2\n        /* \"#utility.yul\":6375:6381   */\n      dup6\n        /* \"#utility.yul\":6311:6389   */\n      tag_91\n      jump\t// in\n    tag_198:\n        /* \"#utility.yul\":6303:6389   */\n      swap1\n      pop\n        /* \"#utility.yul\":6399:6467   */\n      tag_199\n        /* \"#utility.yul\":6463:6465   */\n      0x40\n        /* \"#utility.yul\":6452:6461   */\n      dup4\n        /* \"#utility.yul\":6448:6466   */\n      add\n        /* \"#utility.yul\":6439:6445   */\n      dup5\n        /* \"#utility.yul\":6399:6467   */\n      tag_103\n      jump\t// in\n    tag_199:\n        /* \"#utility.yul\":5858:6474   */\n      swap5\n      swap4\n      pop\n      pop\n      pop\n      pop\n      jump\t// out\n        /* \"#utility.yul\":6480:6660   */\n    tag_104:\n        /* \"#utility.yul\":6528:6605   */\n      0x4e487b7100000000000000000000000000000000000000000000000000000000\n        /* \"#utility.yul\":6525:6526   */\n      0x00\n        /* \"#utility.yul\":6518:6606   */\n      mstore\n        /* \"#utility.yul\":6625:6629   */\n      0x22\n        /* \"#utility.yul\":6622:6623   */\n      0x04\n        /* \"#utility.yul\":6615:6630   */\n      mstore\n        /* \"#utility.yul\":6649:6653   */\n      0x24\n        /* \"#utility.yul\":6646:6647   */\n      0x00\n        /* \"#utility.yul\":6639:6654   */\n      revert\n        /* \"#utility.yul\":6666:6986   */\n    tag_28:\n        /* \"#utility.yul\":6710:6716   */\n      0x00\n        /* \"#utility.yul\":6747:6748   */\n      0x02\n        /* \"#utility.yul\":6741:6745   */\n      dup3\n        /* \"#utility.yul\":6737:6749   */\n      div\n        /* \"#utility.yul\":6727:6749   */\n      swap1\n      pop\n        /* \"#utility.yul\":6794:6795   */\n      0x01\n        /* \"#utility.yul\":6788:6792   */\n      dup3\n        /* \"#utility.yul\":6784:6796   */\n      and\n        /* \"#utility.yul\":6815:6833   */\n      dup1\n        /* \"#utility.yul\":6805:6886   */\n      tag_202\n      jumpi\n        /* \"#utility.yul\":6871:6875   */\n      0x7f\n        /* \"#utility.yul\":6863:6869   */\n      dup3\n        /* \"#utility.yul\":6859:6876   */\n      and\n        /* \"#utility.yul\":6849:6876   */\n      swap2\n      pop\n        /* \"#utility.yul\":6805:6886   */\n    tag_202:\n        /* \"#utility.yul\":6933:6935   */\n      0x20\n        /* \"#utility.yul\":6925:6931   */\n      dup3\n        /* \"#utility.yul\":6922:6936   */\n      lt\n        /* \"#utility.yul\":6902:6920   */\n      dup2\n        /* \"#utility.yul\":6899:6937   */\n      sub\n        /* \"#utility.yul\":6896:6980   */\n      tag_203\n      jumpi\n        /* \"#utility.yul\":6952:6970   */\n      tag_204\n      tag_104\n      jump\t// in\n    tag_204:\n        /* \"#utility.yul\":6896:6980   */\n    tag_203:\n        /* \"#utility.yul\":6717:6986   */\n      pop\n        /* \"#utility.yul\":6666:6986   */\n      swap2\n      swap1\n      pop\n      jump\t// out\n        /* \"#utility.yul\":6992:7163   */\n    tag_105:\n        /* \"#utility.yul\":7132:7155   */\n      0x566f74657220616c726561647920657869737473210000000000000000000000\n        /* \"#utility.yul\":7128:7129   */\n      0x00\n        /* \"#utility.yul\":7120:7126   */\n      dup3\n        /* \"#utility.yul\":7116:7130   */\n      add\n        /* \"#utility.yul\":7109:7156   */\n      mstore\n        /* \"#utility.yul\":6992:7163   */\n      pop\n      jump\t// out\n        /* \"#utility.yul\":7169:7535   */\n    tag_106:\n        /* \"#utility.yul\":7311:7314   */\n      0x00\n        /* \"#utility.yul\":7332:7399   */\n      tag_207\n        /* \"#utility.yul\":7396:7398   */\n      0x15\n        /* \"#utility.yul\":7391:7394   */\n      dup4\n        /* \"#utility.yul\":7332:7399   */\n      tag_88\n      jump\t// in\n    tag_207:\n        /* \"#utility.yul\":7325:7399   */\n      swap2\n      pop\n        /* \"#utility.yul\":7408:7501   */\n      tag_208\n        /* \"#utility.yul\":7497:7500   */\n      dup3\n        /* \"#utility.yul\":7408:7501   */\n      tag_105\n      jump\t// in\n    tag_208:\n        /* \"#utility.yul\":7526:7528   */\n      0x20\n        /* \"#utility.yul\":7521:7524   */\n      dup3\n        /* \"#utility.yul\":7517:7529   */\n      add\n        /* \"#utility.yul\":7510:7529   */\n      swap1\n      pop\n        /* \"#utility.yul\":7169:7535   */\n      swap2\n      swap1\n      pop\n      jump\t// out\n        /* \"#utility.yul\":7541:7960   */\n    tag_42:\n        /* \"#utility.yul\":7707:7711   */\n      0x00\n        /* \"#utility.yul\":7745:7747   */\n      0x20\n        /* \"#utility.yul\":7734:7743   */\n      dup3\n        /* \"#utility.yul\":7730:7748   */\n      add\n        /* \"#utility.yul\":7722:7748   */\n      swap1\n      pop\n        /* \"#utility.yul\":7794:7803   */\n      dup2\n        /* \"#utility.yul\":7788:7792   */\n      dup2\n        /* \"#utility.yul\":7784:7804   */\n      sub\n        /* \"#utility.yul\":7780:7781   */\n      0x00\n        /* \"#utility.yul\":7769:7778   */\n      dup4\n        /* \"#utility.yul\":7765:7782   */\n      add\n        /* \"#utility.yul\":7758:7805   */\n      mstore\n        /* \"#utility.yul\":7822:7953   */\n      tag_210\n        /* \"#utility.yul\":7948:7952   */\n      dup2\n        /* \"#utility.yul\":7822:7953   */\n      tag_106\n      jump\t// in\n    tag_210:\n        /* \"#utility.yul\":7814:7953   */\n      swap1\n      pop\n        /* \"#utility.yul\":7541:7960   */\n      swap2\n      swap1\n      pop\n      jump\t// out\n        /* \"#utility.yul\":7966:8107   */\n    tag_107:\n        /* \"#utility.yul\":8015:8019   */\n      0x00\n        /* \"#utility.yul\":8038:8041   */\n      dup2\n        /* \"#utility.yul\":8030:8041   */\n      swap1\n      pop\n        /* \"#utility.yul\":8061:8064   */\n      dup2\n        /* \"#utility.yul\":8058:8059   */\n      0x00\n        /* \"#utility.yul\":8051:8065   */\n      mstore\n        /* \"#utility.yul\":8095:8099   */\n      0x20\n        /* \"#utility.yul\":8092:8093   */\n      0x00\n        /* \"#utility.yul\":8082:8100   */\n      keccak256\n        /* \"#utility.yul\":8074:8100   */\n      swap1\n      pop\n        /* \"#utility.yul\":7966:8107   */\n      swap2\n      swap1\n      pop\n      jump\t// out\n        /* \"#utility.yul\":8113:8206   */\n    tag_108:\n        /* \"#utility.yul\":8150:8156   */\n      0x00\n        /* \"#utility.yul\":8197:8199   */\n      0x20\n        /* \"#utility.yul\":8192:8194   */\n      0x1f\n        /* \"#utility.yul\":8185:8190   */\n      dup4\n        /* \"#utility.yul\":8181:8195   */\n      add\n        /* \"#utility.yul\":8177:8200   */\n      div\n        /* \"#utility.yul\":8167:8200   */\n      swap1\n      pop\n        /* \"#utility.yul\":8113:8206   */\n      swap2\n      swap1\n      pop\n      jump\t// out\n        /* \"#utility.yul\":8212:8319   */\n    tag_109:\n        /* \"#utility.yul\":8256:8264   */\n      0x00\n        /* \"#utility.yul\":8306:8311   */\n      dup3\n        /* \"#utility.yul\":8300:8304   */\n      dup3\n        /* \"#utility.yul\":8296:8312   */\n      shl\n        /* \"#utility.yul\":8275:8312   */\n      swap1\n      pop\n        /* \"#utility.yul\":8212:8319   */\n      swap3\n      swap2\n      pop\n      pop\n      jump\t// out\n        /* \"#utility.yul\":8325:8718   */\n    tag_110:\n        /* \"#utility.yul\":8394:8400   */\n      0x00\n        /* \"#utility.yul\":8444:8445   */\n      0x08\n        /* \"#utility.yul\":8432:8442   */\n      dup4\n        /* \"#utility.yul\":8428:8446   */\n      mul\n        /* \"#utility.yul\":8467:8564   */\n      tag_215\n        /* \"#utility.yul\":8497:8563   */\n      0xffffffffffffffffffffffffffffffffffffffffffffffffffffffffffffffff\n        /* \"#utility.yul\":8486:8495   */\n      dup3\n        /* \"#utility.yul\":8467:8564   */\n      tag_109\n      jump\t// in\n    tag_215:\n        /* \"#utility.yul\":8585:8624   */\n      tag_216\n        /* \"#utility.yul\":8615:8623   */\n      dup7\n        /* \"#utility.yul\":8604:8613   */\n      dup4\n        /* \"#utility.yul\":8585:8624   */\n      tag_109\n      jump\t// in\n    tag_216:\n        /* \"#utility.yul\":8573:8624   */\n      swap6\n      pop\n        /* \"#utility.yul\":8657:8661   */\n      dup1\n        /* \"#utility.yul\":8653:8662   */\n      not\n        /* \"#utility.yul\":8646:8651   */\n      dup5\n        /* \"#utility.yul\":8642:8663   */\n      and\n        /* \"#utility.yul\":8633:8663   */\n      swap4\n      pop\n        /* \"#utility.yul\":8706:8710   */\n      dup1\n        /* \"#utility.yul\":8696:8704   */\n      dup7\n        /* \"#utility.yul\":8692:8711   */\n      and\n        /* \"#utility.yul\":8685:8690   */\n      dup5\n        /* \"#utility.yul\":8682:8712   */\n      or\n        /* \"#utility.yul\":8672:8712   */\n      swap3\n      pop\n        /* \"#utility.yul\":8401:8718   */\n      pop\n      pop\n        /* \"#utility.yul\":8325:8718   */\n      swap4\n      swap3\n      pop\n      pop\n      pop\n      jump\t// out\n        /* \"#utility.yul\":8724:8784   */\n    tag_111:\n        /* \"#utility.yul\":8752:8755   */\n      0x00\n        /* \"#utility.yul\":8773:8778   */\n      dup2\n        /* \"#utility.yul\":8766:8778   */\n      swap1\n      pop\n        /* \"#utility.yul\":8724:8784   */\n      swap2\n      swap1\n      pop\n      jump\t// out\n        /* \"#utility.yul\":8790:8932   */\n    tag_112:\n        /* \"#utility.yul\":8840:8849   */\n      0x00\n        /* \"#utility.yul\":8873:8926   */\n      tag_219\n        /* \"#utility.yul\":8891:8925   */\n      tag_220\n        /* \"#utility.yul\":8900:8924   */\n      tag_221\n        /* \"#utility.yul\":8918:8923   */\n      dup5\n        /* \"#utility.yul\":8900:8924   */\n      tag_84\n      jump\t// in\n    tag_221:\n        /* \"#utility.yul\":8891:8925   */\n      tag_111\n      jump\t// in\n    tag_220:\n        /* \"#utility.yul\":8873:8926   */\n      tag_84\n      jump\t// in\n    tag_219:\n        /* \"#utility.yul\":8860:8926   */\n      swap1\n      pop\n        /* \"#utility.yul\":8790:8932   */\n      swap2\n      swap1\n      pop\n      jump\t// out\n        /* \"#utility.yul\":8938:9013   */\n    tag_113:\n        /* \"#utility.yul\":8981:8984   */\n      0x00\n        /* \"#utility.yul\":9002:9007   */\n      dup2\n        /* \"#utility.yul\":8995:9007   */\n      swap1\n      pop\n        /* \"#utility.yul\":8938:9013   */\n      swap2\n      swap1\n      pop\n      jump\t// out\n        /* \"#utility.yul\":9019:9288   */\n    tag_114:\n        /* \"#utility.yul\":9129:9168   */\n      tag_224\n        /* \"#utility.yul\":9160:9167   */\n      dup4\n        /* \"#utility.yul\":9129:9168   */\n      tag_112\n      jump\t// in\n    tag_224:\n        /* \"#utility.yul\":9190:9281   */\n      tag_225\n        /* \"#utility.yul\":9239:9280   */\n      tag_226\n        /* \"#utility.yul\":9263:9279   */\n      dup3\n        /* \"#utility.yul\":9239:9280   */\n      tag_113\n      jump\t// in\n    tag_226:\n        /* \"#utility.yul\":9231:9237   */\n      dup5\n        /* \"#utility.yul\":9224:9228   */\n      dup5\n        /* \"#utility.yul\":9218:9229   */\n      sload\n        /* \"#utility.yul\":9190:9281   */\n      tag_110\n      jump\t// in\n    tag_225:\n        /* \"#utility.yul\":9184:9188   */\n      dup3\n        /* \"#utility.yul\":9177:9282   */\n      sstore\n        /* \"#utility.yul\":9095:9288   */\n      pop\n        /* \"#utility.yul\":9019:9288   */\n      pop\n      pop\n      pop\n      jump\t// out\n        /* \"#utility.yul\":9294:9367   */\n    tag_115:\n        /* \"#utility.yul\":9339:9342   */\n      0x00\n        /* \"#utility.yul\":9294:9367   */\n      swap1\n      jump\t// out\n        /* \"#utility.yul\":9373:9562   */\n    tag_116:\n        /* \"#utility.yul\":9450:9482   */\n      tag_229\n      tag_115\n      jump\t// in\n    tag_229:\n        /* \"#utility.yul\":9491:9556   */\n      tag_230\n        /* \"#utility.yul\":9549:9555   */\n      dup2\n        /* \"#utility.yul\":9541:9547   */\n      dup5\n        /* \"#utility.yul\":9535:9539   */\n      dup5\n        /* \"#utility.yul\":9491:9556   */\n      tag_114\n      jump\t// in\n    tag_230:\n        /* \"#utility.yul\":9426:9562   */\n      pop\n        /* \"#utility.yul\":9373:9562   */\n      pop\n      pop\n      jump\t// out\n        /* \"#utility.yul\":9568:9754   */\n    tag_117:\n        /* \"#utility.yul\":9628:9748   */\n    tag_232:\n        /* \"#utility.yul\":9645:9648   */\n      dup2\n        /* \"#utility.yul\":9638:9643   */\n      dup2\n        /* \"#utility.yul\":9635:9649   */\n      lt\n        /* \"#utility.yul\":9628:9748   */\n      iszero\n      tag_234\n      jumpi\n        /* \"#utility.yul\":9699:9738   */\n      tag_235\n        /* \"#utility.yul\":9736:9737   */\n      0x00\n        /* \"#utility.yul\":9729:9734   */\n      dup3\n        /* \"#utility.yul\":9699:9738   */\n      tag_116\n      jump\t// in\n    tag_235:\n        /* \"#utility.yul\":9672:9673   */\n      0x01\n        /* \"#utility.yul\":9665:9670   */\n      dup2\n        /* \"#utility.yul\":9661:9674   */\n      add\n        /* \"#utility.yul\":9652:9674   */\n      swap1\n      pop\n        /* \"#utility.yul\":9628:9748   */\n      jump(tag_232)\n    tag_234:\n        /* \"#utility.yul\":9568:9754   */\n      pop\n      pop\n      jump\t// out\n        /* \"#utility.yul\":9760:10303   */\n    tag_118:\n        /* \"#utility.yul\":9861:9863   */\n      0x1f\n        /* \"#utility.yul\":9856:9859   */\n      dup3\n        /* \"#utility.yul\":9853:9864   */\n      gt\n        /* \"#utility.yul\":9850:10296   */\n      iszero\n      tag_237\n      jumpi\n        /* \"#utility.yul\":9895:9933   */\n      tag_238\n        /* \"#utility.yul\":9927:9932   */\n      dup2\n        /* \"#utility.yul\":9895:9933   */\n      tag_107\n      jump\t// in\n    tag_238:\n        /* \"#utility.yul\":9979:10008   */\n      tag_239\n        /* \"#utility.yul\":9997:10007   */\n      dup5\n        /* \"#utility.yul\":9979:10008   */\n      tag_108\n      jump\t// in\n    tag_239:\n        /* \"#utility.yul\":9969:9977   */\n      dup2\n        /* \"#utility.yul\":9965:10009   */\n      add\n        /* \"#utility.yul\":10162:10164   */\n      0x20\n        /* \"#utility.yul\":10150:10160   */\n      dup6\n        /* \"#utility.yul\":10147:10165   */\n      lt\n        /* \"#utility.yul\":10144:10193   */\n      iszero\n      tag_240\n      jumpi\n        /* \"#utility.yul\":10183:10191   */\n      dup2\n        /* \"#utility.yul\":10168:10191   */\n      swap1\n      pop\n        /* \"#utility.yul\":10144:10193   */\n    tag_240:\n        /* \"#utility.yul\":10206:10286   */\n      tag_241\n        /* \"#utility.yul\":10262:10284   */\n      tag_242\n        /* \"#utility.yul\":10280:10283   */\n      dup6\n        /* \"#utility.yul\":10262:10284   */\n      tag_108\n      jump\t// in\n    tag_242:\n        /* \"#utility.yul\":10252:10260   */\n      dup4\n        /* \"#utility.yul\":10248:10285   */\n      add\n        /* \"#utility.yul\":10235:10246   */\n      dup3\n        /* \"#utility.yul\":10206:10286   */\n      tag_117\n      jump\t// in\n    tag_241:\n        /* \"#utility.yul\":9865:10296   */\n      pop\n      pop\n        /* \"#utility.yul\":9850:10296   */\n    tag_237:\n        /* \"#utility.yul\":9760:10303   */\n      pop\n      pop\n      pop\n      jump\t// out\n        /* \"#utility.yul\":10309:10426   */\n    tag_119:\n        /* \"#utility.yul\":10363:10371   */\n      0x00\n        /* \"#utility.yul\":10413:10418   */\n      dup3\n        /* \"#utility.yul\":10407:10411   */\n      dup3\n        /* \"#utility.yul\":10403:10419   */\n      shr\n        /* \"#utility.yul\":10382:10419   */\n      swap1\n      pop\n        /* \"#utility.yul\":10309:10426   */\n      swap3\n      swap2\n      pop\n      pop\n      jump\t// out\n        /* \"#utility.yul\":10432:10601   */\n    tag_120:\n        /* \"#utility.yul\":10476:10482   */\n      0x00\n        /* \"#utility.yul\":10509:10560   */\n      tag_245\n        /* \"#utility.yul\":10557:10558   */\n      0x00\n        /* \"#utility.yul\":10553:10559   */\n      not\n        /* \"#utility.yul\":10545:10550   */\n      dup5\n        /* \"#utility.yul\":10542:10543   */\n      0x08\n        /* \"#utility.yul\":10538:10551   */\n      mul\n        /* \"#utility.yul\":10509:10560   */\n      tag_119\n      jump\t// in\n    tag_245:\n        /* \"#utility.yul\":10505:10561   */\n      not\n        /* \"#utility.yul\":10590:10594   */\n      dup1\n        /* \"#utility.yul\":10584:10588   */\n      dup4\n        /* \"#utility.yul\":10580:10595   */\n      and\n        /* \"#utility.yul\":10570:10595   */\n      swap2\n      pop\n        /* \"#utility.yul\":10483:10601   */\n      pop\n        /* \"#utility.yul\":10432:10601   */\n      swap3\n      swap2\n      pop\n      pop\n      jump\t// out\n        /* \"#utility.yul\":10606:10901   */\n    tag_121:\n        /* \"#utility.yul\":10682:10686   */\n      0x00\n        /* \"#utility.yul\":10828:10857   */\n      tag_247\n        /* \"#utility.yul\":10853:10856   */\n      dup4\n        /* \"#utility.yul\":10847:10851   */\n      dup4\n        /* \"#utility.yul\":10828:10857   */\n      tag_120\n      jump\t// in\n    tag_247:\n        /* \"#utility.yul\":10820:10857   */\n      swap2\n      pop\n        /* \"#utility.yul\":10890:10893   */\n      dup3\n        /* \"#utility.yul\":10887:10888   */\n      0x02\n        /* \"#utility.yul\":10883:10894   */\n      mul\n        /* \"#utility.yul\":10877:10881   */\n      dup3\n        /* \"#utility.yul\":10874:10895   */\n      or\n        /* \"#utility.yul\":10866:10895   */\n      swap1\n      pop\n        /* \"#utility.yul\":10606:10901   */\n      swap3\n      swap2\n      pop\n      pop\n      jump\t// out\n        /* \"#utility.yul\":10906:12301   */\n    tag_45:\n        /* \"#utility.yul\":11023:11060   */\n      tag_249\n        /* \"#utility.yul\":11056:11059   */\n      dup3\n        /* \"#utility.yul\":11023:11060   */\n      tag_87\n      jump\t// in\n    tag_249:\n        /* \"#utility.yul\":11125:11143   */\n      0xffffffffffffffff\n        /* \"#utility.yul\":11117:11123   */\n      dup2\n        /* \"#utility.yul\":11114:11144   */\n      gt\n        /* \"#utility.yul\":11111:11167   */\n      iszero\n      tag_250\n      jumpi\n        /* \"#utility.yul\":11147:11165   */\n      tag_251\n      tag_95\n      jump\t// in\n    tag_251:\n        /* \"#utility.yul\":11111:11167   */\n    tag_250:\n        /* \"#utility.yul\":11191:11229   */\n      tag_252\n        /* \"#utility.yul\":11223:11227   */\n      dup3\n        /* \"#utility.yul\":11217:11228   */\n      sload\n        /* \"#utility.yul\":11191:11229   */\n      tag_28\n      jump\t// in\n    tag_252:\n        /* \"#utility.yul\":11276:11343   */\n      tag_253\n        /* \"#utility.yul\":11336:11342   */\n      dup3\n        /* \"#utility.yul\":11328:11334   */\n      dup3\n        /* \"#utility.yul\":11322:11326   */\n      dup6\n        /* \"#utility.yul\":11276:11343   */\n      tag_118\n      jump\t// in\n    tag_253:\n        /* \"#utility.yul\":11370:11371   */\n      0x00\n        /* \"#utility.yul\":11394:11398   */\n      0x20\n        /* \"#utility.yul\":11381:11398   */\n      swap1\n      pop\n        /* \"#utility.yul\":11426:11428   */\n      0x1f\n        /* \"#utility.yul\":11418:11424   */\n      dup4\n        /* \"#utility.yul\":11415:11429   */\n      gt\n        /* \"#utility.yul\":11443:11444   */\n      0x01\n        /* \"#utility.yul\":11438:12056   */\n      dup2\n      eq\n      tag_255\n      jumpi\n        /* \"#utility.yul\":12100:12101   */\n      0x00\n        /* \"#utility.yul\":12117:12123   */\n      dup5\n        /* \"#utility.yul\":12114:12191   */\n      iszero\n      tag_256\n      jumpi\n        /* \"#utility.yul\":12166:12175   */\n      dup3\n        /* \"#utility.yul\":12161:12164   */\n      dup8\n        /* \"#utility.yul\":12157:12176   */\n      add\n        /* \"#utility.yul\":12151:12177   */\n      mload\n        /* \"#utility.yul\":12142:12177   */\n      swap1\n      pop\n        /* \"#utility.yul\":12114:12191   */\n    tag_256:\n        /* \"#utility.yul\":12217:12284   */\n      tag_257\n        /* \"#utility.yul\":12277:12283   */\n      dup6\n        /* \"#utility.yul\":12270:12275   */\n      dup3\n        /* \"#utility.yul\":12217:12284   */\n      tag_121\n      jump\t// in\n    tag_257:\n        /* \"#utility.yul\":12211:12215   */\n      dup7\n        /* \"#utility.yul\":12204:12285   */\n      sstore\n        /* \"#utility.yul\":12073:12295   */\n      pop\n        /* \"#utility.yul\":11408:12295   */\n      jump(tag_254)\n        /* \"#utility.yul\":11438:12056   */\n    tag_255:\n        /* \"#utility.yul\":11490:11494   */\n      0x1f\n        /* \"#utility.yul\":11486:11495   */\n      not\n        /* \"#utility.yul\":11478:11484   */\n      dup5\n        /* \"#utility.yul\":11474:11496   */\n      and\n        /* \"#utility.yul\":11524:11561   */\n      tag_258\n        /* \"#utility.yul\":11556:11560   */\n      dup7\n        /* \"#utility.yul\":11524:11561   */\n      tag_107\n      jump\t// in\n    tag_258:\n        /* \"#utility.yul\":11583:11584   */\n      0x00\n        /* \"#utility.yul\":11597:11805   */\n    tag_259:\n        /* \"#utility.yul\":11611:11618   */\n      dup3\n        /* \"#utility.yul\":11608:11609   */\n      dup2\n        /* \"#utility.yul\":11605:11619   */\n      lt\n        /* \"#utility.yul\":11597:11805   */\n      iszero\n      tag_261\n      jumpi\n        /* \"#utility.yul\":11690:11699   */\n      dup5\n        /* \"#utility.yul\":11685:11688   */\n      dup10\n        /* \"#utility.yul\":11681:11700   */\n      add\n        /* \"#utility.yul\":11675:11701   */\n      mload\n        /* \"#utility.yul\":11667:11673   */\n      dup3\n        /* \"#utility.yul\":11660:11702   */\n      sstore\n        /* \"#utility.yul\":11741:11742   */\n      0x01\n        /* \"#utility.yul\":11733:11739   */\n      dup3\n        /* \"#utility.yul\":11729:11743   */\n      add\n        /* \"#utility.yul\":11719:11743   */\n      swap2\n      pop\n        /* \"#utility.yul\":11788:11790   */\n      0x20\n        /* \"#utility.yul\":11777:11786   */\n      dup6\n        /* \"#utility.yul\":11773:11791   */\n      add\n        /* \"#utility.yul\":11760:11791   */\n      swap5\n      pop\n        /* \"#utility.yul\":11634:11638   */\n      0x20\n        /* \"#utility.yul\":11631:11632   */\n      dup2\n        /* \"#utility.yul\":11627:11639   */\n      add\n        /* \"#utility.yul\":11622:11639   */\n      swap1\n      pop\n        /* \"#utility.yul\":11597:11805   */\n      jump(tag_259)\n    tag_261:\n        /* \"#utility.yul\":11833:11839   */\n      dup7\n        /* \"#utility.yul\":11824:11831   */\n      dup4\n        /* \"#utility.yul\":11821:11840   */\n      lt\n        /* \"#utility.yul\":11818:11997   */\n      iszero\n      tag_262\n      jumpi\n        /* \"#utility.yul\":11891:11900   */\n      dup5\n        /* \"#utility.yul\":11886:11889   */\n      dup10\n        /* \"#utility.yul\":11882:11901   */\n      add\n        /* \"#utility.yul\":11876:11902   */\n      mload\n        /* \"#utility.yul\":11934:11982   */\n      tag_263\n        /* \"#utility.yul\":11976:11980   */\n      0x1f\n        /* \"#utility.yul\":11968:11974   */\n      dup10\n        /* \"#utility.yul\":11964:11981   */\n      and\n        /* \"#utility.yul\":11953:11962   */\n      dup3\n        /* \"#utility.yul\":11934:11982   */\n      tag_120\n      jump\t// in\n    tag_263:\n        /* \"#utility.yul\":11926:11932   */\n      dup4\n        /* \"#utility.yul\":11919:11983   */\n      sstore\n        /* \"#utility.yul\":11841:11997   */\n      pop\n        /* \"#utility.yul\":11818:11997   */\n    tag_262:\n        /* \"#utility.yul\":12043:12044   */\n      0x01\n        /* \"#utility.yul\":12039:12040   */\n      0x02\n        /* \"#utility.yul\":12031:12037   */\n      dup9\n        /* \"#utility.yul\":12027:12041   */\n      mul\n        /* \"#utility.yul\":12023:12045   */\n      add\n        /* \"#utility.yul\":12017:12021   */\n      dup9\n        /* \"#utility.yul\":12010:12046   */\n      sstore\n        /* \"#utility.yul\":11445:12056   */\n      pop\n      pop\n      pop\n        /* \"#utility.yul\":11408:12295   */\n    tag_254:\n      pop\n        /* \"#utility.yul\":10998:12301   */\n      pop\n      pop\n      pop\n        /* \"#utility.yul\":10906:12301   */\n      pop\n      pop\n      jump\t// out\n        /* \"#utility.yul\":12307:12487   */\n    tag_122:\n        /* \"#utility.yul\":12355:12432   */\n      0x4e487b7100000000000000000000000000000000000000000000000000000000\n        /* \"#utility.yul\":12352:12353   */\n      0x00\n        /* \"#utility.yul\":12345:12433   */\n      mstore\n        /* \"#utility.yul\":12452:12456   */\n      0x11\n        /* \"#utility.yul\":12449:12450   */\n      0x04\n        /* \"#utility.yul\":12442:12457   */\n      mstore\n        /* \"#utility.yul\":12476:12480   */\n      0x24\n        /* \"#utility.yul\":12473:12474   */\n      0x00\n        /* \"#utility.yul\":12466:12481   */\n      revert\n        /* \"#utility.yul\":12493:12687   */\n    tag_48:\n        /* \"#utility.yul\":12533:12537   */\n      0x00\n        /* \"#utility.yul\":12553:12573   */\n      tag_266\n        /* \"#utility.yul\":12571:12572   */\n      dup3\n        /* \"#utility.yul\":12553:12573   */\n      tag_84\n      jump\t// in\n    tag_266:\n        /* \"#utility.yul\":12548:12573   */\n      swap2\n      pop\n        /* \"#utility.yul\":12587:12607   */\n      tag_267\n        /* \"#utility.yul\":12605:12606   */\n      dup4\n        /* \"#utility.yul\":12587:12607   */\n      tag_84\n      jump\t// in\n    tag_267:\n        /* \"#utility.yul\":12582:12607   */\n      swap3\n      pop\n        /* \"#utility.yul\":12631:12632   */\n      dup3\n        /* \"#utility.yul\":12628:12629   */\n      dup3\n        /* \"#utility.yul\":12624:12633   */\n      sub\n        /* \"#utility.yul\":12616:12633   */\n      swap1\n      pop\n        /* \"#utility.yul\":12655:12656   */\n      dup2\n        /* \"#utility.yul\":12649:12653   */\n      dup2\n        /* \"#utility.yul\":12646:12657   */\n      gt\n        /* \"#utility.yul\":12643:12680   */\n      iszero\n      tag_268\n      jumpi\n        /* \"#utility.yul\":12660:12678   */\n      tag_269\n      tag_122\n      jump\t// in\n    tag_269:\n        /* \"#utility.yul\":12643:12680   */\n    tag_268:\n        /* \"#utility.yul\":12493:12687   */\n      swap3\n      swap2\n      pop\n      pop\n      jump\t// out\n        /* \"#utility.yul\":12693:12841   */\n    tag_123:\n        /* \"#utility.yul\":12795:12806   */\n      0x00\n        /* \"#utility.yul\":12832:12835   */\n      dup2\n        /* \"#utility.yul\":12817:12835   */\n      swap1\n      pop\n        /* \"#utility.yul\":12693:12841   */\n      swap3\n      swap2\n      pop\n      pop\n      jump\t// out\n        /* \"#utility.yul\":12847:13237   */\n    tag_124:\n        /* \"#utility.yul\":12953:12956   */\n      0x00\n        /* \"#utility.yul\":12981:13020   */\n      tag_272\n        /* \"#utility.yul\":13014:13019   */\n      dup3\n        /* \"#utility.yul\":12981:13020   */\n      tag_87\n      jump\t// in\n    tag_272:\n        /* \"#utility.yul\":13036:13125   */\n      tag_273\n        /* \"#utility.yul\":13118:13124   */\n      dup2\n        /* \"#utility.yul\":13113:13116   */\n      dup6\n        /* \"#utility.yul\":13036:13125   */\n      tag_123\n      jump\t// in\n    tag_273:\n        /* \"#utility.yul\":13029:13125   */\n      swap4\n      pop\n        /* \"#utility.yul\":13134:13199   */\n      tag_274\n        /* \"#utility.yul\":13192:13198   */\n      dup2\n        /* \"#utility.yul\":13187:13190   */\n      dup6\n        /* \"#utility.yul\":13180:13184   */\n      0x20\n        /* \"#utility.yul\":13173:13178   */\n      dup7\n        /* \"#utility.yul\":13169:13185   */\n      add\n        /* \"#utility.yul\":13134:13199   */\n      tag_89\n      jump\t// in\n    tag_274:\n        /* \"#utility.yul\":13224:13230   */\n      dup1\n        /* \"#utility.yul\":13219:13222   */\n      dup5\n        /* \"#utility.yul\":13215:13231   */\n      add\n        /* \"#utility.yul\":13208:13231   */\n      swap2\n      pop\n        /* \"#utility.yul\":12957:13237   */\n      pop\n        /* \"#utility.yul\":12847:13237   */\n      swap3\n      swap2\n      pop\n      pop\n      jump\t// out\n        /* \"#utility.yul\":13243:13518   */\n    tag_50:\n        /* \"#utility.yul\":13375:13378   */\n      0x00\n        /* \"#utility.yul\":13397:13492   */\n      tag_276\n        /* \"#utility.yul\":13488:13491   */\n      dup3\n        /* \"#utility.yul\":13479:13485   */\n      dup5\n        /* \"#utility.yul\":13397:13492   */\n      tag_124\n      jump\t// in\n    tag_276:\n        /* \"#utility.yul\":13390:13492   */\n      swap2\n      pop\n        /* \"#utility.yul\":13509:13512   */\n      dup2\n        /* \"#utility.yul\":13502:13512   */\n      swap1\n      pop\n        /* \"#utility.yul\":13243:13518   */\n      swap3\n      swap2\n      pop\n      pop\n      jump\t// out\n        /* \"#utility.yul\":13524:13699   */\n    tag_125:\n        /* \"#utility.yul\":13664:13691   */\n      0x43616e64696461746520616c7265616479206578697374732100000000000000\n        /* \"#utility.yul\":13660:13661   */\n      0x00\n        /* \"#utility.yul\":13652:13658   */\n      dup3\n        /* \"#utility.yul\":13648:13662   */\n      add\n        /* \"#utility.yul\":13641:13692   */\n      mstore\n        /* \"#utility.yul\":13524:13699   */\n      pop\n      jump\t// out\n        /* \"#utility.yul\":13705:14071   */\n    tag_126:\n        /* \"#utility.yul\":13847:13850   */\n      0x00\n        /* \"#utility.yul\":13868:13935   */\n      tag_279\n        /* \"#utility.yul\":13932:13934   */\n      0x19\n        /* \"#utility.yul\":13927:13930   */\n      dup4\n        /* \"#utility.yul\":13868:13935   */\n      tag_88\n      jump\t// in\n    tag_279:\n        /* \"#utility.yul\":13861:13935   */\n      swap2\n      pop\n        /* \"#utility.yul\":13944:14037   */\n      tag_280\n        /* \"#utility.yul\":14033:14036   */\n      dup3\n        /* \"#utility.yul\":13944:14037   */\n      tag_125\n      jump\t// in\n    tag_280:\n        /* \"#utility.yul\":14062:14064   */\n      0x20\n        /* \"#utility.yul\":14057:14060   */\n      dup3\n        /* \"#utility.yul\":14053:14065   */\n      add\n        /* \"#utility.yul\":14046:14065   */\n      swap1\n      pop\n        /* \"#utility.yul\":13705:14071   */\n      swap2\n      swap1\n      pop\n      jump\t// out\n        /* \"#utility.yul\":14077:14496   */\n    tag_56:\n        /* \"#utility.yul\":14243:14247   */\n      0x00\n        /* \"#utility.yul\":14281:14283   */\n      0x20\n        /* \"#utility.yul\":14270:14279   */\n      dup3\n        /* \"#utility.yul\":14266:14284   */\n      add\n        /* \"#utility.yul\":14258:14284   */\n      swap1\n      pop\n        /* \"#utility.yul\":14330:14339   */\n      dup2\n        /* \"#utility.yul\":14324:14328   */\n      dup2\n        /* \"#utility.yul\":14320:14340   */\n      sub\n        /* \"#utility.yul\":14316:14317   */\n      0x00\n        /* \"#utility.yul\":14305:14314   */\n      dup4\n        /* \"#utility.yul\":14301:14318   */\n      add\n        /* \"#utility.yul\":14294:14341   */\n      mstore\n        /* \"#utility.yul\":14358:14489   */\n      tag_282\n        /* \"#utility.yul\":14484:14488   */\n      dup2\n        /* \"#utility.yul\":14358:14489   */\n      tag_126\n      jump\t// in\n    tag_282:\n        /* \"#utility.yul\":14350:14489   */\n      swap1\n      pop\n        /* \"#utility.yul\":14077:14496   */\n      swap2\n      swap1\n      pop\n      jump\t// out\n        /* \"#utility.yul\":14526:15400   */\n    tag_127:\n        /* \"#utility.yul\":14629:14632   */\n      0x00\n        /* \"#utility.yul\":14666:14671   */\n      dup2\n        /* \"#utility.yul\":14660:14672   */\n      sload\n        /* \"#utility.yul\":14695:14731   */\n      tag_284\n        /* \"#utility.yul\":14721:14730   */\n      dup2\n        /* \"#utility.yul\":14695:14731   */\n      tag_28\n      jump\t// in\n    tag_284:\n        /* \"#utility.yul\":14747:14836   */\n      tag_285\n        /* \"#utility.yul\":14829:14835   */\n      dup2\n        /* \"#utility.yul\":14824:14827   */\n      dup7\n        /* \"#utility.yul\":14747:14836   */\n      tag_123\n      jump\t// in\n    tag_285:\n        /* \"#utility.yul\":14740:14836   */\n      swap5\n      pop\n        /* \"#utility.yul\":14867:14868   */\n      0x01\n        /* \"#utility.yul\":14856:14865   */\n      dup3\n        /* \"#utility.yul\":14852:14869   */\n      and\n        /* \"#utility.yul\":14883:14884   */\n      0x00\n        /* \"#utility.yul\":14878:15044   */\n      dup2\n      eq\n      tag_287\n      jumpi\n        /* \"#utility.yul\":15058:15059   */\n      0x01\n        /* \"#utility.yul\":15053:15394   */\n      dup2\n      eq\n      tag_288\n      jumpi\n        /* \"#utility.yul\":14845:15394   */\n      jump(tag_286)\n        /* \"#utility.yul\":14878:15044   */\n    tag_287:\n        /* \"#utility.yul\":14962:14966   */\n      0xff\n        /* \"#utility.yul\":14958:14967   */\n      not\n        /* \"#utility.yul\":14947:14956   */\n      dup4\n        /* \"#utility.yul\":14943:14968   */\n      and\n        /* \"#utility.yul\":14938:14941   */\n      dup7\n        /* \"#utility.yul\":14931:14969   */\n      mstore\n        /* \"#utility.yul\":15024:15030   */\n      dup2\n        /* \"#utility.yul\":15017:15031   */\n      iszero\n        /* \"#utility.yul\":15010:15032   */\n      iszero\n        /* \"#utility.yul\":15002:15008   */\n      dup3\n        /* \"#utility.yul\":14998:15033   */\n      mul\n        /* \"#utility.yul\":14993:14996   */\n      dup7\n        /* \"#utility.yul\":14989:15034   */\n      add\n        /* \"#utility.yul\":14982:15034   */\n      swap4\n      pop\n        /* \"#utility.yul\":14878:15044   */\n      jump(tag_286)\n        /* \"#utility.yul\":15053:15394   */\n    tag_288:\n        /* \"#utility.yul\":15120:15158   */\n      tag_289\n        /* \"#utility.yul\":15152:15157   */\n      dup6\n        /* \"#utility.yul\":15120:15158   */\n      tag_107\n      jump\t// in\n    tag_289:\n        /* \"#utility.yul\":15180:15181   */\n      0x00\n        /* \"#utility.yul\":15194:15348   */\n    tag_290:\n        /* \"#utility.yul\":15208:15214   */\n      dup4\n        /* \"#utility.yul\":15205:15206   */\n      dup2\n        /* \"#utility.yul\":15202:15215   */\n      lt\n        /* \"#utility.yul\":15194:15348   */\n      iszero\n      tag_292\n      jumpi\n        /* \"#utility.yul\":15282:15289   */\n      dup2\n        /* \"#utility.yul\":15276:15290   */\n      sload\n        /* \"#utility.yul\":15272:15273   */\n      dup2\n        /* \"#utility.yul\":15267:15270   */\n      dup10\n        /* \"#utility.yul\":15263:15274   */\n      add\n        /* \"#utility.yul\":15256:15291   */\n      mstore\n        /* \"#utility.yul\":15332:15333   */\n      0x01\n        /* \"#utility.yul\":15323:15330   */\n      dup3\n        /* \"#utility.yul\":15319:15334   */\n      add\n        /* \"#utility.yul\":15308:15334   */\n      swap2\n      pop\n        /* \"#utility.yul\":15230:15234   */\n      0x20\n        /* \"#utility.yul\":15227:15228   */\n      dup2\n        /* \"#utility.yul\":15223:15235   */\n      add\n        /* \"#utility.yul\":15218:15235   */\n      swap1\n      pop\n        /* \"#utility.yul\":15194:15348   */\n      jump(tag_290)\n    tag_292:\n        /* \"#utility.yul\":15377:15383   */\n      dup4\n        /* \"#utility.yul\":15372:15375   */\n      dup9\n        /* \"#utility.yul\":15368:15384   */\n      add\n        /* \"#utility.yul\":15361:15384   */\n      swap6\n      pop\n        /* \"#utility.yul\":15060:15394   */\n      pop\n      pop\n        /* \"#utility.yul\":14845:15394   */\n    tag_286:\n      pop\n        /* \"#utility.yul\":14633:15400   */\n      pop\n      pop\n        /* \"#utility.yul\":14526:15400   */\n      swap3\n      swap2\n      pop\n      pop\n      jump\t// out\n        /* \"#utility.yul\":15406:15675   */\n    tag_59:\n        /* \"#utility.yul\":15535:15538   */\n      0x00\n        /* \"#utility.yul\":15557:15649   */\n      tag_294\n        /* \"#utility.yul\":15645:15648   */\n      dup3\n        /* \"#utility.yul\":15636:15642   */\n      dup5\n        /* \"#utility.yul\":15557:15649   */\n      tag_127\n      jump\t// in\n    tag_294:\n        /* \"#utility.yul\":15550:15649   */\n      swap2\n      pop\n        /* \"#utility.yul\":15666:15669   */\n      dup2\n        /* \"#utility.yul\":15659:15669   */\n      swap1\n      pop\n        /* \"#utility.yul\":15406:15675   */\n      swap3\n      swap2\n      pop\n      pop\n      jump\t// out\n        /* \"#utility.yul\":15681:15905   */\n    tag_128:\n        /* \"#utility.yul\":15821:15855   */\n      0x6d616b65207375726520746f20656e74657220796f757220766f746572206465\n        /* \"#utility.yul\":15817:15818   */\n      0x00\n        /* \"#utility.yul\":15809:15815   */\n      dup3\n        /* \"#utility.yul\":15805:15819   */\n      add\n        /* \"#utility.yul\":15798:15856   */\n      mstore\n        /* \"#utility.yul\":15890:15897   */\n      0x7461696c73000000000000000000000000000000000000000000000000000000\n        /* \"#utility.yul\":15885:15887   */\n      0x20\n        /* \"#utility.yul\":15877:15883   */\n      dup3\n        /* \"#utility.yul\":15873:15888   */\n      add\n        /* \"#utility.yul\":15866:15898   */\n      mstore\n        /* \"#utility.yul\":15681:15905   */\n      pop\n      jump\t// out\n        /* \"#utility.yul\":15911:16277   */\n    tag_129:\n        /* \"#utility.yul\":16053:16056   */\n      0x00\n        /* \"#utility.yul\":16074:16141   */\n      tag_297\n        /* \"#utility.yul\":16138:16140   */\n      0x25\n        /* \"#utility.yul\":16133:16136   */\n      dup4\n        /* \"#utility.yul\":16074:16141   */\n      tag_88\n      jump\t// in\n    tag_297:\n        /* \"#utility.yul\":16067:16141   */\n      swap2\n      pop\n        /* \"#utility.yul\":16150:16243   */\n      tag_298\n        /* \"#utility.yul\":16239:16242   */\n      dup3\n        /* \"#utility.yul\":16150:16243   */\n      tag_128\n      jump\t// in\n    tag_298:\n        /* \"#utility.yul\":16268:16270   */\n      0x40\n        /* \"#utility.yul\":16263:16266   */\n      dup3\n        /* \"#utility.yul\":16259:16271   */\n      add\n        /* \"#utility.yul\":16252:16271   */\n      swap1\n      pop\n        /* \"#utility.yul\":15911:16277   */\n      swap2\n      swap1\n      pop\n      jump\t// out\n        /* \"#utility.yul\":16283:16702   */\n    tag_62:\n        /* \"#utility.yul\":16449:16453   */\n      0x00\n        /* \"#utility.yul\":16487:16489   */\n      0x20\n        /* \"#utility.yul\":16476:16485   */\n      dup3\n        /* \"#utility.yul\":16472:16490   */\n      add\n        /* \"#utility.yul\":16464:16490   */\n      swap1\n      pop\n        /* \"#utility.yul\":16536:16545   */\n      dup2\n        /* \"#utility.yul\":16530:16534   */\n      dup2\n        /* \"#utility.yul\":16526:16546   */\n      sub\n        /* \"#utility.yul\":16522:16523   */\n      0x00\n        /* \"#utility.yul\":16511:16520   */\n      dup4\n        /* \"#utility.yul\":16507:16524   */\n      add\n        /* \"#utility.yul\":16500:16547   */\n      mstore\n        /* \"#utility.yul\":16564:16695   */\n      tag_300\n        /* \"#utility.yul\":16690:16694   */\n      dup2\n        /* \"#utility.yul\":16564:16695   */\n      tag_129\n      jump\t// in\n    tag_300:\n        /* \"#utility.yul\":16556:16695   */\n      swap1\n      pop\n        /* \"#utility.yul\":16283:16702   */\n      swap2\n      swap1\n      pop\n      jump\t// out\n\n    auxdata: 0xa2646970667358221220f95c4cfae4b80009d0de9b81f79bd8bbebf9010dd48c1a6bc9821699bd4c990564736f6c634300081a0033\n}\n",
				"bytecode": {
					"linkReferences": {},
					"object": "6080604052348015600e575f80fd5b5061103a8061001c5f395ff3fe608060405234801561000f575f80fd5b506004361061004a575f3560e01c80633477ee2e1461004e578063961e5800146100805780639ab1c0ed1461009c578063da58c7d9146100b8575b5f80fd5b610068600480360381019061006391906107aa565b6100ea565b60405161007793929190610854565b60405180910390f35b61009a600480360381019061009591906109c3565b61022b565b005b6100b660048036038101906100b191906109c3565b6103c9565b005b6100d260048036038101906100cd91906107aa565b61061a565b6040516100e193929190610a54565b60405180910390f35b600381815481106100f9575f80fd5b905f5260205f2090600302015f91509050805f01805461011890610ac4565b80601f016020809104026020016040519081016040528092919081815260200182805461014490610ac4565b801561018f5780601f106101665761010080835404028352916020019161018f565b820191905f5260205f20905b81548152906001019060200180831161017257829003601f168201915b5050505050908060010180546101a490610ac4565b80601f01602080910402602001604051908101604052809291908181526020018280546101d090610ac4565b801561021b5780601f106101f25761010080835404028352916020019161021b565b820191905f5260205f20905b8154815290600101906020018083116101fe57829003601f168201915b5050505050908060020154905083565b5f60025f3373ffffffffffffffffffffffffffffffffffffffff1673ffffffffffffffffffffffffffffffffffffffff1681526020019081526020015f20805461027490610ac4565b9050146102b6576040517f08c379a00000000000000000000000000000000000000000000000000000000081526004016102ad90610b3e565b60405180910390fd5b5f60405180606001604052808481526020018381526020015f60ff16815250908060018154018082558091505060019003905f5260205f2090600302015f909190919091505f820151815f01908161030e9190610cf9565b5060208201518160010190816103249190610cf9565b506040820151816002015f6101000a81548160ff021916908360ff160217905550505060015f805490506103589190610df5565b6001826040516103689190610e62565b9081526020016040518091039020819055508060025f3373ffffffffffffffffffffffffffffffffffffffff1673ffffffffffffffffffffffffffffffffffffffff1681526020019081526020015f2090816103c49190610cf9565b505050565b5f60055f3373ffffffffffffffffffffffffffffffffffffffff1673ffffffffffffffffffffffffffffffffffffffff1681526020019081526020015f20805461041290610ac4565b905014610454576040517f08c379a000000000000000000000000000000000000000000000000000000000815260040161044b90610ec2565b60405180910390fd5b806040516020016104659190610e62565b6040516020818303038152906040528051906020012060025f3373ffffffffffffffffffffffffffffffffffffffff1673ffffffffffffffffffffffffffffffffffffffff1681526020019081526020015f206040516020016104c89190610f60565b604051602081830303815290604052805190602001201461051e576040517f08c379a000000000000000000000000000000000000000000000000000000000815260040161051590610fe6565b60405180910390fd5b600360405180606001604052808481526020018381526020015f815250908060018154018082558091505060019003905f5260205f2090600302015f909190919091505f820151815f0190816105749190610cf9565b50602082015181600101908161058a9190610cf9565b5060408201518160020155505060016003805490506105a99190610df5565b6004826040516105b99190610e62565b9081526020016040518091039020819055508060055f3373ffffffffffffffffffffffffffffffffffffffff1673ffffffffffffffffffffffffffffffffffffffff1681526020019081526020015f2090816106159190610cf9565b505050565b5f8181548110610628575f80fd5b905f5260205f2090600302015f91509050805f01805461064790610ac4565b80601f016020809104026020016040519081016040528092919081815260200182805461067390610ac4565b80156106be5780601f10610695576101008083540402835291602001916106be565b820191905f5260205f20905b8154815290600101906020018083116106a157829003601f168201915b5050505050908060010180546106d390610ac4565b80601f01602080910402602001604051908101604052809291908181526020018280546106ff90610ac4565b801561074a5780601f106107215761010080835404028352916020019161074a565b820191905f5260205f20905b81548152906001019060200180831161072d57829003601f168201915b505050505090806002015f9054906101000a900460ff16905083565b5f604051905090565b5f80fd5b5f80fd5b5f819050919050565b61078981610777565b8114610793575f80fd5b50565b5f813590506107a481610780565b92915050565b5f602082840312156107bf576107be61076f565b5b5f6107cc84828501610796565b91505092915050565b5f81519050919050565b5f82825260208201905092915050565b8281835e5f83830152505050565b5f601f19601f8301169050919050565b5f610817826107d5565b61082181856107df565b93506108318185602086016107ef565b61083a816107fd565b840191505092915050565b61084e81610777565b82525050565b5f6060820190508181035f83015261086c818661080d565b90508181036020830152610880818561080d565b905061088f6040830184610845565b949350505050565b5f80fd5b5f80fd5b7f4e487b71000000000000000000000000000000000000000000000000000000005f52604160045260245ffd5b6108d5826107fd565b810181811067ffffffffffffffff821117156108f4576108f361089f565b5b80604052505050565b5f610906610766565b905061091282826108cc565b919050565b5f67ffffffffffffffff8211156109315761093061089f565b5b61093a826107fd565b9050602081019050919050565b828183375f83830152505050565b5f61096761096284610917565b6108fd565b9050828152602081018484840111156109835761098261089b565b5b61098e848285610947565b509392505050565b5f82601f8301126109aa576109a9610897565b5b81356109ba848260208601610955565b91505092915050565b5f80604083850312156109d9576109d861076f565b5b5f83013567ffffffffffffffff8111156109f6576109f5610773565b5b610a0285828601610996565b925050602083013567ffffffffffffffff811115610a2357610a22610773565b5b610a2f85828601610996565b9150509250929050565b5f60ff82169050919050565b610a4e81610a39565b82525050565b5f6060820190508181035f830152610a6c818661080d565b90508181036020830152610a80818561080d565b9050610a8f6040830184610a45565b949350505050565b7f4e487b71000000000000000000000000000000000000000000000000000000005f52602260045260245ffd5b5f6002820490506001821680610adb57607f821691505b602082108103610aee57610aed610a97565b5b50919050565b7f566f74657220616c7265616479206578697374732100000000000000000000005f82015250565b5f610b286015836107df565b9150610b3382610af4565b602082019050919050565b5f6020820190508181035f830152610b5581610b1c565b9050919050565b5f819050815f5260205f209050919050565b5f6020601f8301049050919050565b5f82821b905092915050565b5f60088302610bb87fffffffffffffffffffffffffffffffffffffffffffffffffffffffffffffffff82610b7d565b610bc28683610b7d565b95508019841693508086168417925050509392505050565b5f819050919050565b5f610bfd610bf8610bf384610777565b610bda565b610777565b9050919050565b5f819050919050565b610c1683610be3565b610c2a610c2282610c04565b848454610b89565b825550505050565b5f90565b610c3e610c32565b610c49818484610c0d565b505050565b5b81811015610c6c57610c615f82610c36565b600181019050610c4f565b5050565b601f821115610cb157610c8281610b5c565b610c8b84610b6e565b81016020851015610c9a578190505b610cae610ca685610b6e565b830182610c4e565b50505b505050565b5f82821c905092915050565b5f610cd15f1984600802610cb6565b1980831691505092915050565b5f610ce98383610cc2565b9150826002028217905092915050565b610d02826107d5565b67ffffffffffffffff811115610d1b57610d1a61089f565b5b610d258254610ac4565b610d30828285610c70565b5f60209050601f831160018114610d61575f8415610d4f578287015190505b610d598582610cde565b865550610dc0565b601f198416610d6f86610b5c565b5f5b82811015610d9657848901518255600182019150602085019450602081019050610d71565b86831015610db35784890151610daf601f891682610cc2565b8355505b6001600288020188555050505b505050505050565b7f4e487b71000000000000000000000000000000000000000000000000000000005f52601160045260245ffd5b5f610dff82610777565b9150610e0a83610777565b9250828203905081811115610e2257610e21610dc8565b5b92915050565b5f81905092915050565b5f610e3c826107d5565b610e468185610e28565b9350610e568185602086016107ef565b80840191505092915050565b5f610e6d8284610e32565b915081905092915050565b7f43616e64696461746520616c72656164792065786973747321000000000000005f82015250565b5f610eac6019836107df565b9150610eb782610e78565b602082019050919050565b5f6020820190508181035f830152610ed981610ea0565b9050919050565b5f8154610eec81610ac4565b610ef68186610e28565b9450600182165f8114610f105760018114610f2557610f57565b60ff1983168652811515820286019350610f57565b610f2e85610b5c565b5f5b83811015610f4f57815481890152600182019150602081019050610f30565b838801955050505b50505092915050565b5f610f6b8284610ee0565b915081905092915050565b7f6d616b65207375726520746f20656e74657220796f757220766f7465722064655f8201527f7461696c73000000000000000000000000000000000000000000000000000000602082015250565b5f610fd06025836107df565b9150610fdb82610f76565b604082019050919050565b5f6020820190508181035f830152610ffd81610fc4565b905091905056fea2646970667358221220f95c4cfae4b80009d0de9b81f79bd8bbebf9010dd48c1a6bc9821699bd4c990564736f6c634300081a0033",
					"opcodes": "PUSH1 0x80 PUSH1 0x40 MSTORE CALLVALUE DUP1 ISZERO PUSH1 0xE JUMPI PUSH0 DUP1 REVERT JUMPDEST POP PUSH2 0x103A DUP1 PUSH2 0x1C PUSH0 CODECOPY PUSH0 RETURN INVALID PUSH1 0x80 PUSH1 0x40 MSTORE CALLVALUE DUP1 ISZERO PUSH2 0xF JUMPI PUSH0 DUP1 REVERT JUMPDEST POP PUSH1 0x4 CALLDATASIZE LT PUSH2 0x4A JUMPI PUSH0 CALLDATALOAD PUSH1 0xE0 SHR DUP1 PUSH4 0x3477EE2E EQ PUSH2 0x4E JUMPI DUP1 PUSH4 0x961E5800 EQ PUSH2 0x80 JUMPI DUP1 PUSH4 0x9AB1C0ED EQ PUSH2 0x9C JUMPI DUP1 PUSH4 0xDA58C7D9 EQ PUSH2 0xB8 JUMPI JUMPDEST PUSH0 DUP1 REVERT JUMPDEST PUSH2 0x68 PUSH1 0x4 DUP1 CALLDATASIZE SUB DUP2 ADD SWAP1 PUSH2 0x63 SWAP2 SWAP1 PUSH2 0x7AA JUMP JUMPDEST PUSH2 0xEA JUMP JUMPDEST PUSH1 0x40 MLOAD PUSH2 0x77 SWAP4 SWAP3 SWAP2 SWAP1 PUSH2 0x854 JUMP JUMPDEST PUSH1 0x40 MLOAD DUP1 SWAP2 SUB SWAP1 RETURN JUMPDEST PUSH2 0x9A PUSH1 0x4 DUP1 CALLDATASIZE SUB DUP2 ADD SWAP1 PUSH2 0x95 SWAP2 SWAP1 PUSH2 0x9C3 JUMP JUMPDEST PUSH2 0x22B JUMP JUMPDEST STOP JUMPDEST PUSH2 0xB6 PUSH1 0x4 DUP1 CALLDATASIZE SUB DUP2 ADD SWAP1 PUSH2 0xB1 SWAP2 SWAP1 PUSH2 0x9C3 JUMP JUMPDEST PUSH2 0x3C9 JUMP JUMPDEST STOP JUMPDEST PUSH2 0xD2 PUSH1 0x4 DUP1 CALLDATASIZE SUB DUP2 ADD SWAP1 PUSH2 0xCD SWAP2 SWAP1 PUSH2 0x7AA JUMP JUMPDEST PUSH2 0x61A JUMP JUMPDEST PUSH1 0x40 MLOAD PUSH2 0xE1 SWAP4 SWAP3 SWAP2 SWAP1 PUSH2 0xA54 JUMP JUMPDEST PUSH1 0x40 MLOAD DUP1 SWAP2 SUB SWAP1 RETURN JUMPDEST PUSH1 0x3 DUP2 DUP2 SLOAD DUP2 LT PUSH2 0xF9 JUMPI PUSH0 DUP1 REVERT JUMPDEST SWAP1 PUSH0 MSTORE PUSH1 0x20 PUSH0 KECCAK256 SWAP1 PUSH1 0x3 MUL ADD PUSH0 SWAP2 POP SWAP1 POP DUP1 PUSH0 ADD DUP1 SLOAD PUSH2 0x118 SWAP1 PUSH2 0xAC4 JUMP JUMPDEST DUP1 PUSH1 0x1F ADD PUSH1 0x20 DUP1 SWAP2 DIV MUL PUSH1 0x20 ADD PUSH1 0x40 MLOAD SWAP1 DUP2 ADD PUSH1 0x40 MSTORE DUP1 SWAP3 SWAP2 SWAP1 DUP2 DUP2 MSTORE PUSH1 0x20 ADD DUP3 DUP1 SLOAD PUSH2 0x144 SWAP1 PUSH2 0xAC4 JUMP JUMPDEST DUP1 ISZERO PUSH2 0x18F JUMPI DUP1 PUSH1 0x1F LT PUSH2 0x166 JUMPI PUSH2 0x100 DUP1 DUP4 SLOAD DIV MUL DUP4 MSTORE SWAP2 PUSH1 0x20 ADD SWAP2 PUSH2 0x18F JUMP JUMPDEST DUP3 ADD SWAP2 SWAP1 PUSH0 MSTORE PUSH1 0x20 PUSH0 KECCAK256 SWAP1 JUMPDEST DUP2 SLOAD DUP2 MSTORE SWAP1 PUSH1 0x1 ADD SWAP1 PUSH1 0x20 ADD DUP1 DUP4 GT PUSH2 0x172 JUMPI DUP3 SWAP1 SUB PUSH1 0x1F AND DUP3 ADD SWAP2 JUMPDEST POP POP POP POP POP SWAP1 DUP1 PUSH1 0x1 ADD DUP1 SLOAD PUSH2 0x1A4 SWAP1 PUSH2 0xAC4 JUMP JUMPDEST DUP1 PUSH1 0x1F ADD PUSH1 0x20 DUP1 SWAP2 DIV MUL PUSH1 0x20 ADD PUSH1 0x40 MLOAD SWAP1 DUP2 ADD PUSH1 0x40 MSTORE DUP1 SWAP3 SWAP2 SWAP1 DUP2 DUP2 MSTORE PUSH1 0x20 ADD DUP3 DUP1 SLOAD PUSH2 0x1D0 SWAP1 PUSH2 0xAC4 JUMP JUMPDEST DUP1 ISZERO PUSH2 0x21B JUMPI DUP1 PUSH1 0x1F LT PUSH2 0x1F2 JUMPI PUSH2 0x100 DUP1 DUP4 SLOAD DIV MUL DUP4 MSTORE SWAP2 PUSH1 0x20 ADD SWAP2 PUSH2 0x21B JUMP JUMPDEST DUP3 ADD SWAP2 SWAP1 PUSH0 MSTORE PUSH1 0x20 PUSH0 KECCAK256 SWAP1 JUMPDEST DUP2 SLOAD DUP2 MSTORE SWAP1 PUSH1 0x1 ADD SWAP1 PUSH1 0x20 ADD DUP1 DUP4 GT PUSH2 0x1FE JUMPI DUP3 SWAP1 SUB PUSH1 0x1F AND DUP3 ADD SWAP2 JUMPDEST POP POP POP POP POP SWAP1 DUP1 PUSH1 0x2 ADD SLOAD SWAP1 POP DUP4 JUMP JUMPDEST PUSH0 PUSH1 0x2 PUSH0 CALLER PUSH20 0xFFFFFFFFFFFFFFFFFFFFFFFFFFFFFFFFFFFFFFFF AND PUSH20 0xFFFFFFFFFFFFFFFFFFFFFFFFFFFFFFFFFFFFFFFF AND DUP2 MSTORE PUSH1 0x20 ADD SWAP1 DUP2 MSTORE PUSH1 0x20 ADD PUSH0 KECCAK256 DUP1 SLOAD PUSH2 0x274 SWAP1 PUSH2 0xAC4 JUMP JUMPDEST SWAP1 POP EQ PUSH2 0x2B6 JUMPI PUSH1 0x40 MLOAD PUSH32 0x8C379A000000000000000000000000000000000000000000000000000000000 DUP2 MSTORE PUSH1 0x4 ADD PUSH2 0x2AD SWAP1 PUSH2 0xB3E JUMP JUMPDEST PUSH1 0x40 MLOAD DUP1 SWAP2 SUB SWAP1 REVERT JUMPDEST PUSH0 PUSH1 0x40 MLOAD DUP1 PUSH1 0x60 ADD PUSH1 0x40 MSTORE DUP1 DUP5 DUP2 MSTORE PUSH1 0x20 ADD DUP4 DUP2 MSTORE PUSH1 0x20 ADD PUSH0 PUSH1 0xFF AND DUP2 MSTORE POP SWAP1 DUP1 PUSH1 0x1 DUP2 SLOAD ADD DUP1 DUP3 SSTORE DUP1 SWAP2 POP POP PUSH1 0x1 SWAP1 SUB SWAP1 PUSH0 MSTORE PUSH1 0x20 PUSH0 KECCAK256 SWAP1 PUSH1 0x3 MUL ADD PUSH0 SWAP1 SWAP2 SWAP1 SWAP2 SWAP1 SWAP2 POP PUSH0 DUP3 ADD MLOAD DUP2 PUSH0 ADD SWAP1 DUP2 PUSH2 0x30E SWAP2 SWAP1 PUSH2 0xCF9 JUMP JUMPDEST POP PUSH1 0x20 DUP3 ADD MLOAD DUP2 PUSH1 0x1 ADD SWAP1 DUP2 PUSH2 0x324 SWAP2 SWAP1 PUSH2 0xCF9 JUMP JUMPDEST POP PUSH1 0x40 DUP3 ADD MLOAD DUP2 PUSH1 0x2 ADD PUSH0 PUSH2 0x100 EXP DUP2 SLOAD DUP2 PUSH1 0xFF MUL NOT AND SWAP1 DUP4 PUSH1 0xFF AND MUL OR SWAP1 SSTORE POP POP POP PUSH1 0x1 PUSH0 DUP1 SLOAD SWAP1 POP PUSH2 0x358 SWAP2 SWAP1 PUSH2 0xDF5 JUMP JUMPDEST PUSH1 0x1 DUP3 PUSH1 0x40 MLOAD PUSH2 0x368 SWAP2 SWAP1 PUSH2 0xE62 JUMP JUMPDEST SWAP1 DUP2 MSTORE PUSH1 0x20 ADD PUSH1 0x40 MLOAD DUP1 SWAP2 SUB SWAP1 KECCAK256 DUP2 SWAP1 SSTORE POP DUP1 PUSH1 0x2 PUSH0 CALLER PUSH20 0xFFFFFFFFFFFFFFFFFFFFFFFFFFFFFFFFFFFFFFFF AND PUSH20 0xFFFFFFFFFFFFFFFFFFFFFFFFFFFFFFFFFFFFFFFF AND DUP2 MSTORE PUSH1 0x20 ADD SWAP1 DUP2 MSTORE PUSH1 0x20 ADD PUSH0 KECCAK256 SWAP1 DUP2 PUSH2 0x3C4 SWAP2 SWAP1 PUSH2 0xCF9 JUMP JUMPDEST POP POP POP JUMP JUMPDEST PUSH0 PUSH1 0x5 PUSH0 CALLER PUSH20 0xFFFFFFFFFFFFFFFFFFFFFFFFFFFFFFFFFFFFFFFF AND PUSH20 0xFFFFFFFFFFFFFFFFFFFFFFFFFFFFFFFFFFFFFFFF AND DUP2 MSTORE PUSH1 0x20 ADD SWAP1 DUP2 MSTORE PUSH1 0x20 ADD PUSH0 KECCAK256 DUP1 SLOAD PUSH2 0x412 SWAP1 PUSH2 0xAC4 JUMP JUMPDEST SWAP1 POP EQ PUSH2 0x454 JUMPI PUSH1 0x40 MLOAD PUSH32 0x8C379A000000000000000000000000000000000000000000000000000000000 DUP2 MSTORE PUSH1 0x4 ADD PUSH2 0x44B SWAP1 PUSH2 0xEC2 JUMP JUMPDEST PUSH1 0x40 MLOAD DUP1 SWAP2 SUB SWAP1 REVERT JUMPDEST DUP1 PUSH1 0x40 MLOAD PUSH1 0x20 ADD PUSH2 0x465 SWAP2 SWAP1 PUSH2 0xE62 JUMP JUMPDEST PUSH1 0x40 MLOAD PUSH1 0x20 DUP2 DUP4 SUB SUB DUP2 MSTORE SWAP1 PUSH1 0x40 MSTORE DUP1 MLOAD SWAP1 PUSH1 0x20 ADD KECCAK256 PUSH1 0x2 PUSH0 CALLER PUSH20 0xFFFFFFFFFFFFFFFFFFFFFFFFFFFFFFFFFFFFFFFF AND PUSH20 0xFFFFFFFFFFFFFFFFFFFFFFFFFFFFFFFFFFFFFFFF AND DUP2 MSTORE PUSH1 0x20 ADD SWAP1 DUP2 MSTORE PUSH1 0x20 ADD PUSH0 KECCAK256 PUSH1 0x40 MLOAD PUSH1 0x20 ADD PUSH2 0x4C8 SWAP2 SWAP1 PUSH2 0xF60 JUMP JUMPDEST PUSH1 0x40 MLOAD PUSH1 0x20 DUP2 DUP4 SUB SUB DUP2 MSTORE SWAP1 PUSH1 0x40 MSTORE DUP1 MLOAD SWAP1 PUSH1 0x20 ADD KECCAK256 EQ PUSH2 0x51E JUMPI PUSH1 0x40 MLOAD PUSH32 0x8C379A000000000000000000000000000000000000000000000000000000000 DUP2 MSTORE PUSH1 0x4 ADD PUSH2 0x515 SWAP1 PUSH2 0xFE6 JUMP JUMPDEST PUSH1 0x40 MLOAD DUP1 SWAP2 SUB SWAP1 REVERT JUMPDEST PUSH1 0x3 PUSH1 0x40 MLOAD DUP1 PUSH1 0x60 ADD PUSH1 0x40 MSTORE DUP1 DUP5 DUP2 MSTORE PUSH1 0x20 ADD DUP4 DUP2 MSTORE PUSH1 0x20 ADD PUSH0 DUP2 MSTORE POP SWAP1 DUP1 PUSH1 0x1 DUP2 SLOAD ADD DUP1 DUP3 SSTORE DUP1 SWAP2 POP POP PUSH1 0x1 SWAP1 SUB SWAP1 PUSH0 MSTORE PUSH1 0x20 PUSH0 KECCAK256 SWAP1 PUSH1 0x3 MUL ADD PUSH0 SWAP1 SWAP2 SWAP1 SWAP2 SWAP1 SWAP2 POP PUSH0 DUP3 ADD MLOAD DUP2 PUSH0 ADD SWAP1 DUP2 PUSH2 0x574 SWAP2 SWAP1 PUSH2 0xCF9 JUMP JUMPDEST POP PUSH1 0x20 DUP3 ADD MLOAD DUP2 PUSH1 0x1 ADD SWAP1 DUP2 PUSH2 0x58A SWAP2 SWAP1 PUSH2 0xCF9 JUMP JUMPDEST POP PUSH1 0x40 DUP3 ADD MLOAD DUP2 PUSH1 0x2 ADD SSTORE POP POP PUSH1 0x1 PUSH1 0x3 DUP1 SLOAD SWAP1 POP PUSH2 0x5A9 SWAP2 SWAP1 PUSH2 0xDF5 JUMP JUMPDEST PUSH1 0x4 DUP3 PUSH1 0x40 MLOAD PUSH2 0x5B9 SWAP2 SWAP1 PUSH2 0xE62 JUMP JUMPDEST SWAP1 DUP2 MSTORE PUSH1 0x20 ADD PUSH1 0x40 MLOAD DUP1 SWAP2 SUB SWAP1 KECCAK256 DUP2 SWAP1 SSTORE POP DUP1 PUSH1 0x5 PUSH0 CALLER PUSH20 0xFFFFFFFFFFFFFFFFFFFFFFFFFFFFFFFFFFFFFFFF AND PUSH20 0xFFFFFFFFFFFFFFFFFFFFFFFFFFFFFFFFFFFFFFFF AND DUP2 MSTORE PUSH1 0x20 ADD SWAP1 DUP2 MSTORE PUSH1 0x20 ADD PUSH0 KECCAK256 SWAP1 DUP2 PUSH2 0x615 SWAP2 SWAP1 PUSH2 0xCF9 JUMP JUMPDEST POP POP POP JUMP JUMPDEST PUSH0 DUP2 DUP2 SLOAD DUP2 LT PUSH2 0x628 JUMPI PUSH0 DUP1 REVERT JUMPDEST SWAP1 PUSH0 MSTORE PUSH1 0x20 PUSH0 KECCAK256 SWAP1 PUSH1 0x3 MUL ADD PUSH0 SWAP2 POP SWAP1 POP DUP1 PUSH0 ADD DUP1 SLOAD PUSH2 0x647 SWAP1 PUSH2 0xAC4 JUMP JUMPDEST DUP1 PUSH1 0x1F ADD PUSH1 0x20 DUP1 SWAP2 DIV MUL PUSH1 0x20 ADD PUSH1 0x40 MLOAD SWAP1 DUP2 ADD PUSH1 0x40 MSTORE DUP1 SWAP3 SWAP2 SWAP1 DUP2 DUP2 MSTORE PUSH1 0x20 ADD DUP3 DUP1 SLOAD PUSH2 0x673 SWAP1 PUSH2 0xAC4 JUMP JUMPDEST DUP1 ISZERO PUSH2 0x6BE JUMPI DUP1 PUSH1 0x1F LT PUSH2 0x695 JUMPI PUSH2 0x100 DUP1 DUP4 SLOAD DIV MUL DUP4 MSTORE SWAP2 PUSH1 0x20 ADD SWAP2 PUSH2 0x6BE JUMP JUMPDEST DUP3 ADD SWAP2 SWAP1 PUSH0 MSTORE PUSH1 0x20 PUSH0 KECCAK256 SWAP1 JUMPDEST DUP2 SLOAD DUP2 MSTORE SWAP1 PUSH1 0x1 ADD SWAP1 PUSH1 0x20 ADD DUP1 DUP4 GT PUSH2 0x6A1 JUMPI DUP3 SWAP1 SUB PUSH1 0x1F AND DUP3 ADD SWAP2 JUMPDEST POP POP POP POP POP SWAP1 DUP1 PUSH1 0x1 ADD DUP1 SLOAD PUSH2 0x6D3 SWAP1 PUSH2 0xAC4 JUMP JUMPDEST DUP1 PUSH1 0x1F ADD PUSH1 0x20 DUP1 SWAP2 DIV MUL PUSH1 0x20 ADD PUSH1 0x40 MLOAD SWAP1 DUP2 ADD PUSH1 0x40 MSTORE DUP1 SWAP3 SWAP2 SWAP1 DUP2 DUP2 MSTORE PUSH1 0x20 ADD DUP3 DUP1 SLOAD PUSH2 0x6FF SWAP1 PUSH2 0xAC4 JUMP JUMPDEST DUP1 ISZERO PUSH2 0x74A JUMPI DUP1 PUSH1 0x1F LT PUSH2 0x721 JUMPI PUSH2 0x100 DUP1 DUP4 SLOAD DIV MUL DUP4 MSTORE SWAP2 PUSH1 0x20 ADD SWAP2 PUSH2 0x74A JUMP JUMPDEST DUP3 ADD SWAP2 SWAP1 PUSH0 MSTORE PUSH1 0x20 PUSH0 KECCAK256 SWAP1 JUMPDEST DUP2 SLOAD DUP2 MSTORE SWAP1 PUSH1 0x1 ADD SWAP1 PUSH1 0x20 ADD DUP1 DUP4 GT PUSH2 0x72D JUMPI DUP3 SWAP1 SUB PUSH1 0x1F AND DUP3 ADD SWAP2 JUMPDEST POP POP POP POP POP SWAP1 DUP1 PUSH1 0x2 ADD PUSH0 SWAP1 SLOAD SWAP1 PUSH2 0x100 EXP SWAP1 DIV PUSH1 0xFF AND SWAP1 POP DUP4 JUMP JUMPDEST PUSH0 PUSH1 0x40 MLOAD SWAP1 POP SWAP1 JUMP JUMPDEST PUSH0 DUP1 REVERT JUMPDEST PUSH0 DUP1 REVERT JUMPDEST PUSH0 DUP2 SWAP1 POP SWAP2 SWAP1 POP JUMP JUMPDEST PUSH2 0x789 DUP2 PUSH2 0x777 JUMP JUMPDEST DUP2 EQ PUSH2 0x793 JUMPI PUSH0 DUP1 REVERT JUMPDEST POP JUMP JUMPDEST PUSH0 DUP2 CALLDATALOAD SWAP1 POP PUSH2 0x7A4 DUP2 PUSH2 0x780 JUMP JUMPDEST SWAP3 SWAP2 POP POP JUMP JUMPDEST PUSH0 PUSH1 0x20 DUP3 DUP5 SUB SLT ISZERO PUSH2 0x7BF JUMPI PUSH2 0x7BE PUSH2 0x76F JUMP JUMPDEST JUMPDEST PUSH0 PUSH2 0x7CC DUP5 DUP3 DUP6 ADD PUSH2 0x796 JUMP JUMPDEST SWAP2 POP POP SWAP3 SWAP2 POP POP JUMP JUMPDEST PUSH0 DUP2 MLOAD SWAP1 POP SWAP2 SWAP1 POP JUMP JUMPDEST PUSH0 DUP3 DUP3 MSTORE PUSH1 0x20 DUP3 ADD SWAP1 POP SWAP3 SWAP2 POP POP JUMP JUMPDEST DUP3 DUP2 DUP4 MCOPY PUSH0 DUP4 DUP4 ADD MSTORE POP POP POP JUMP JUMPDEST PUSH0 PUSH1 0x1F NOT PUSH1 0x1F DUP4 ADD AND SWAP1 POP SWAP2 SWAP1 POP JUMP JUMPDEST PUSH0 PUSH2 0x817 DUP3 PUSH2 0x7D5 JUMP JUMPDEST PUSH2 0x821 DUP2 DUP6 PUSH2 0x7DF JUMP JUMPDEST SWAP4 POP PUSH2 0x831 DUP2 DUP6 PUSH1 0x20 DUP7 ADD PUSH2 0x7EF JUMP JUMPDEST PUSH2 0x83A DUP2 PUSH2 0x7FD JUMP JUMPDEST DUP5 ADD SWAP2 POP POP SWAP3 SWAP2 POP POP JUMP JUMPDEST PUSH2 0x84E DUP2 PUSH2 0x777 JUMP JUMPDEST DUP3 MSTORE POP POP JUMP JUMPDEST PUSH0 PUSH1 0x60 DUP3 ADD SWAP1 POP DUP2 DUP2 SUB PUSH0 DUP4 ADD MSTORE PUSH2 0x86C DUP2 DUP7 PUSH2 0x80D JUMP JUMPDEST SWAP1 POP DUP2 DUP2 SUB PUSH1 0x20 DUP4 ADD MSTORE PUSH2 0x880 DUP2 DUP6 PUSH2 0x80D JUMP JUMPDEST SWAP1 POP PUSH2 0x88F PUSH1 0x40 DUP4 ADD DUP5 PUSH2 0x845 JUMP JUMPDEST SWAP5 SWAP4 POP POP POP POP JUMP JUMPDEST PUSH0 DUP1 REVERT JUMPDEST PUSH0 DUP1 REVERT JUMPDEST PUSH32 0x4E487B7100000000000000000000000000000000000000000000000000000000 PUSH0 MSTORE PUSH1 0x41 PUSH1 0x4 MSTORE PUSH1 0x24 PUSH0 REVERT JUMPDEST PUSH2 0x8D5 DUP3 PUSH2 0x7FD JUMP JUMPDEST DUP2 ADD DUP2 DUP2 LT PUSH8 0xFFFFFFFFFFFFFFFF DUP3 GT OR ISZERO PUSH2 0x8F4 JUMPI PUSH2 0x8F3 PUSH2 0x89F JUMP JUMPDEST JUMPDEST DUP1 PUSH1 0x40 MSTORE POP POP POP JUMP JUMPDEST PUSH0 PUSH2 0x906 PUSH2 0x766 JUMP JUMPDEST SWAP1 POP PUSH2 0x912 DUP3 DUP3 PUSH2 0x8CC JUMP JUMPDEST SWAP2 SWAP1 POP JUMP JUMPDEST PUSH0 PUSH8 0xFFFFFFFFFFFFFFFF DUP3 GT ISZERO PUSH2 0x931 JUMPI PUSH2 0x930 PUSH2 0x89F JUMP JUMPDEST JUMPDEST PUSH2 0x93A DUP3 PUSH2 0x7FD JUMP JUMPDEST SWAP1 POP PUSH1 0x20 DUP2 ADD SWAP1 POP SWAP2 SWAP1 POP JUMP JUMPDEST DUP3 DUP2 DUP4 CALLDATACOPY PUSH0 DUP4 DUP4 ADD MSTORE POP POP POP JUMP JUMPDEST PUSH0 PUSH2 0x967 PUSH2 0x962 DUP5 PUSH2 0x917 JUMP JUMPDEST PUSH2 0x8FD JUMP JUMPDEST SWAP1 POP DUP3 DUP2 MSTORE PUSH1 0x20 DUP2 ADD DUP5 DUP5 DUP5 ADD GT ISZERO PUSH2 0x983 JUMPI PUSH2 0x982 PUSH2 0x89B JUMP JUMPDEST JUMPDEST PUSH2 0x98E DUP5 DUP3 DUP6 PUSH2 0x947 JUMP JUMPDEST POP SWAP4 SWAP3 POP POP POP JUMP JUMPDEST PUSH0 DUP3 PUSH1 0x1F DUP4 ADD SLT PUSH2 0x9AA JUMPI PUSH2 0x9A9 PUSH2 0x897 JUMP JUMPDEST JUMPDEST DUP2 CALLDATALOAD PUSH2 0x9BA DUP5 DUP3 PUSH1 0x20 DUP7 ADD PUSH2 0x955 JUMP JUMPDEST SWAP2 POP POP SWAP3 SWAP2 POP POP JUMP JUMPDEST PUSH0 DUP1 PUSH1 0x40 DUP4 DUP6 SUB SLT ISZERO PUSH2 0x9D9 JUMPI PUSH2 0x9D8 PUSH2 0x76F JUMP JUMPDEST JUMPDEST PUSH0 DUP4 ADD CALLDATALOAD PUSH8 0xFFFFFFFFFFFFFFFF DUP2 GT ISZERO PUSH2 0x9F6 JUMPI PUSH2 0x9F5 PUSH2 0x773 JUMP JUMPDEST JUMPDEST PUSH2 0xA02 DUP6 DUP3 DUP7 ADD PUSH2 0x996 JUMP JUMPDEST SWAP3 POP POP PUSH1 0x20 DUP4 ADD CALLDATALOAD PUSH8 0xFFFFFFFFFFFFFFFF DUP2 GT ISZERO PUSH2 0xA23 JUMPI PUSH2 0xA22 PUSH2 0x773 JUMP JUMPDEST JUMPDEST PUSH2 0xA2F DUP6 DUP3 DUP7 ADD PUSH2 0x996 JUMP JUMPDEST SWAP2 POP POP SWAP3 POP SWAP3 SWAP1 POP JUMP JUMPDEST PUSH0 PUSH1 0xFF DUP3 AND SWAP1 POP SWAP2 SWAP1 POP JUMP JUMPDEST PUSH2 0xA4E DUP2 PUSH2 0xA39 JUMP JUMPDEST DUP3 MSTORE POP POP JUMP JUMPDEST PUSH0 PUSH1 0x60 DUP3 ADD SWAP1 POP DUP2 DUP2 SUB PUSH0 DUP4 ADD MSTORE PUSH2 0xA6C DUP2 DUP7 PUSH2 0x80D JUMP JUMPDEST SWAP1 POP DUP2 DUP2 SUB PUSH1 0x20 DUP4 ADD MSTORE PUSH2 0xA80 DUP2 DUP6 PUSH2 0x80D JUMP JUMPDEST SWAP1 POP PUSH2 0xA8F PUSH1 0x40 DUP4 ADD DUP5 PUSH2 0xA45 JUMP JUMPDEST SWAP5 SWAP4 POP POP POP POP JUMP JUMPDEST PUSH32 0x4E487B7100000000000000000000000000000000000000000000000000000000 PUSH0 MSTORE PUSH1 0x22 PUSH1 0x4 MSTORE PUSH1 0x24 PUSH0 REVERT JUMPDEST PUSH0 PUSH1 0x2 DUP3 DIV SWAP1 POP PUSH1 0x1 DUP3 AND DUP1 PUSH2 0xADB JUMPI PUSH1 0x7F DUP3 AND SWAP2 POP JUMPDEST PUSH1 0x20 DUP3 LT DUP2 SUB PUSH2 0xAEE JUMPI PUSH2 0xAED PUSH2 0xA97 JUMP JUMPDEST JUMPDEST POP SWAP2 SWAP1 POP JUMP JUMPDEST PUSH32 0x566F74657220616C726561647920657869737473210000000000000000000000 PUSH0 DUP3 ADD MSTORE POP JUMP JUMPDEST PUSH0 PUSH2 0xB28 PUSH1 0x15 DUP4 PUSH2 0x7DF JUMP JUMPDEST SWAP2 POP PUSH2 0xB33 DUP3 PUSH2 0xAF4 JUMP JUMPDEST PUSH1 0x20 DUP3 ADD SWAP1 POP SWAP2 SWAP1 POP JUMP JUMPDEST PUSH0 PUSH1 0x20 DUP3 ADD SWAP1 POP DUP2 DUP2 SUB PUSH0 DUP4 ADD MSTORE PUSH2 0xB55 DUP2 PUSH2 0xB1C JUMP JUMPDEST SWAP1 POP SWAP2 SWAP1 POP JUMP JUMPDEST PUSH0 DUP2 SWAP1 POP DUP2 PUSH0 MSTORE PUSH1 0x20 PUSH0 KECCAK256 SWAP1 POP SWAP2 SWAP1 POP JUMP JUMPDEST PUSH0 PUSH1 0x20 PUSH1 0x1F DUP4 ADD DIV SWAP1 POP SWAP2 SWAP1 POP JUMP JUMPDEST PUSH0 DUP3 DUP3 SHL SWAP1 POP SWAP3 SWAP2 POP POP JUMP JUMPDEST PUSH0 PUSH1 0x8 DUP4 MUL PUSH2 0xBB8 PUSH32 0xFFFFFFFFFFFFFFFFFFFFFFFFFFFFFFFFFFFFFFFFFFFFFFFFFFFFFFFFFFFFFFFF DUP3 PUSH2 0xB7D JUMP JUMPDEST PUSH2 0xBC2 DUP7 DUP4 PUSH2 0xB7D JUMP JUMPDEST SWAP6 POP DUP1 NOT DUP5 AND SWAP4 POP DUP1 DUP7 AND DUP5 OR SWAP3 POP POP POP SWAP4 SWAP3 POP POP POP JUMP JUMPDEST PUSH0 DUP2 SWAP1 POP SWAP2 SWAP1 POP JUMP JUMPDEST PUSH0 PUSH2 0xBFD PUSH2 0xBF8 PUSH2 0xBF3 DUP5 PUSH2 0x777 JUMP JUMPDEST PUSH2 0xBDA JUMP JUMPDEST PUSH2 0x777 JUMP JUMPDEST SWAP1 POP SWAP2 SWAP1 POP JUMP JUMPDEST PUSH0 DUP2 SWAP1 POP SWAP2 SWAP1 POP JUMP JUMPDEST PUSH2 0xC16 DUP4 PUSH2 0xBE3 JUMP JUMPDEST PUSH2 0xC2A PUSH2 0xC22 DUP3 PUSH2 0xC04 JUMP JUMPDEST DUP5 DUP5 SLOAD PUSH2 0xB89 JUMP JUMPDEST DUP3 SSTORE POP POP POP POP JUMP JUMPDEST PUSH0 SWAP1 JUMP JUMPDEST PUSH2 0xC3E PUSH2 0xC32 JUMP JUMPDEST PUSH2 0xC49 DUP2 DUP5 DUP5 PUSH2 0xC0D JUMP JUMPDEST POP POP POP JUMP JUMPDEST JUMPDEST DUP2 DUP2 LT ISZERO PUSH2 0xC6C JUMPI PUSH2 0xC61 PUSH0 DUP3 PUSH2 0xC36 JUMP JUMPDEST PUSH1 0x1 DUP2 ADD SWAP1 POP PUSH2 0xC4F JUMP JUMPDEST POP POP JUMP JUMPDEST PUSH1 0x1F DUP3 GT ISZERO PUSH2 0xCB1 JUMPI PUSH2 0xC82 DUP2 PUSH2 0xB5C JUMP JUMPDEST PUSH2 0xC8B DUP5 PUSH2 0xB6E JUMP JUMPDEST DUP2 ADD PUSH1 0x20 DUP6 LT ISZERO PUSH2 0xC9A JUMPI DUP2 SWAP1 POP JUMPDEST PUSH2 0xCAE PUSH2 0xCA6 DUP6 PUSH2 0xB6E JUMP JUMPDEST DUP4 ADD DUP3 PUSH2 0xC4E JUMP JUMPDEST POP POP JUMPDEST POP POP POP JUMP JUMPDEST PUSH0 DUP3 DUP3 SHR SWAP1 POP SWAP3 SWAP2 POP POP JUMP JUMPDEST PUSH0 PUSH2 0xCD1 PUSH0 NOT DUP5 PUSH1 0x8 MUL PUSH2 0xCB6 JUMP JUMPDEST NOT DUP1 DUP4 AND SWAP2 POP POP SWAP3 SWAP2 POP POP JUMP JUMPDEST PUSH0 PUSH2 0xCE9 DUP4 DUP4 PUSH2 0xCC2 JUMP JUMPDEST SWAP2 POP DUP3 PUSH1 0x2 MUL DUP3 OR SWAP1 POP SWAP3 SWAP2 POP POP JUMP JUMPDEST PUSH2 0xD02 DUP3 PUSH2 0x7D5 JUMP JUMPDEST PUSH8 0xFFFFFFFFFFFFFFFF DUP2 GT ISZERO PUSH2 0xD1B JUMPI PUSH2 0xD1A PUSH2 0x89F JUMP JUMPDEST JUMPDEST PUSH2 0xD25 DUP3 SLOAD PUSH2 0xAC4 JUMP JUMPDEST PUSH2 0xD30 DUP3 DUP3 DUP6 PUSH2 0xC70 JUMP JUMPDEST PUSH0 PUSH1 0x20 SWAP1 POP PUSH1 0x1F DUP4 GT PUSH1 0x1 DUP2 EQ PUSH2 0xD61 JUMPI PUSH0 DUP5 ISZERO PUSH2 0xD4F JUMPI DUP3 DUP8 ADD MLOAD SWAP1 POP JUMPDEST PUSH2 0xD59 DUP6 DUP3 PUSH2 0xCDE JUMP JUMPDEST DUP7 SSTORE POP PUSH2 0xDC0 JUMP JUMPDEST PUSH1 0x1F NOT DUP5 AND PUSH2 0xD6F DUP7 PUSH2 0xB5C JUMP JUMPDEST PUSH0 JUMPDEST DUP3 DUP2 LT ISZERO PUSH2 0xD96 JUMPI DUP5 DUP10 ADD MLOAD DUP3 SSTORE PUSH1 0x1 DUP3 ADD SWAP2 POP PUSH1 0x20 DUP6 ADD SWAP5 POP PUSH1 0x20 DUP2 ADD SWAP1 POP PUSH2 0xD71 JUMP JUMPDEST DUP7 DUP4 LT ISZERO PUSH2 0xDB3 JUMPI DUP5 DUP10 ADD MLOAD PUSH2 0xDAF PUSH1 0x1F DUP10 AND DUP3 PUSH2 0xCC2 JUMP JUMPDEST DUP4 SSTORE POP JUMPDEST PUSH1 0x1 PUSH1 0x2 DUP9 MUL ADD DUP9 SSTORE POP POP POP JUMPDEST POP POP POP POP POP POP JUMP JUMPDEST PUSH32 0x4E487B7100000000000000000000000000000000000000000000000000000000 PUSH0 MSTORE PUSH1 0x11 PUSH1 0x4 MSTORE PUSH1 0x24 PUSH0 REVERT JUMPDEST PUSH0 PUSH2 0xDFF DUP3 PUSH2 0x777 JUMP JUMPDEST SWAP2 POP PUSH2 0xE0A DUP4 PUSH2 0x777 JUMP JUMPDEST SWAP3 POP DUP3 DUP3 SUB SWAP1 POP DUP2 DUP2 GT ISZERO PUSH2 0xE22 JUMPI PUSH2 0xE21 PUSH2 0xDC8 JUMP JUMPDEST JUMPDEST SWAP3 SWAP2 POP POP JUMP JUMPDEST PUSH0 DUP2 SWAP1 POP SWAP3 SWAP2 POP POP JUMP JUMPDEST PUSH0 PUSH2 0xE3C DUP3 PUSH2 0x7D5 JUMP JUMPDEST PUSH2 0xE46 DUP2 DUP6 PUSH2 0xE28 JUMP JUMPDEST SWAP4 POP PUSH2 0xE56 DUP2 DUP6 PUSH1 0x20 DUP7 ADD PUSH2 0x7EF JUMP JUMPDEST DUP1 DUP5 ADD SWAP2 POP POP SWAP3 SWAP2 POP POP JUMP JUMPDEST PUSH0 PUSH2 0xE6D DUP3 DUP5 PUSH2 0xE32 JUMP JUMPDEST SWAP2 POP DUP2 SWAP1 POP SWAP3 SWAP2 POP POP JUMP JUMPDEST PUSH32 0x43616E64696461746520616C7265616479206578697374732100000000000000 PUSH0 DUP3 ADD MSTORE POP JUMP JUMPDEST PUSH0 PUSH2 0xEAC PUSH1 0x19 DUP4 PUSH2 0x7DF JUMP JUMPDEST SWAP2 POP PUSH2 0xEB7 DUP3 PUSH2 0xE78 JUMP JUMPDEST PUSH1 0x20 DUP3 ADD SWAP1 POP SWAP2 SWAP1 POP JUMP JUMPDEST PUSH0 PUSH1 0x20 DUP3 ADD SWAP1 POP DUP2 DUP2 SUB PUSH0 DUP4 ADD MSTORE PUSH2 0xED9 DUP2 PUSH2 0xEA0 JUMP JUMPDEST SWAP1 POP SWAP2 SWAP1 POP JUMP JUMPDEST PUSH0 DUP2 SLOAD PUSH2 0xEEC DUP2 PUSH2 0xAC4 JUMP JUMPDEST PUSH2 0xEF6 DUP2 DUP7 PUSH2 0xE28 JUMP JUMPDEST SWAP5 POP PUSH1 0x1 DUP3 AND PUSH0 DUP2 EQ PUSH2 0xF10 JUMPI PUSH1 0x1 DUP2 EQ PUSH2 0xF25 JUMPI PUSH2 0xF57 JUMP JUMPDEST PUSH1 0xFF NOT DUP4 AND DUP7 MSTORE DUP2 ISZERO ISZERO DUP3 MUL DUP7 ADD SWAP4 POP PUSH2 0xF57 JUMP JUMPDEST PUSH2 0xF2E DUP6 PUSH2 0xB5C JUMP JUMPDEST PUSH0 JUMPDEST DUP4 DUP2 LT ISZERO PUSH2 0xF4F JUMPI DUP2 SLOAD DUP2 DUP10 ADD MSTORE PUSH1 0x1 DUP3 ADD SWAP2 POP PUSH1 0x20 DUP2 ADD SWAP1 POP PUSH2 0xF30 JUMP JUMPDEST DUP4 DUP9 ADD SWAP6 POP POP POP JUMPDEST POP POP POP SWAP3 SWAP2 POP POP JUMP JUMPDEST PUSH0 PUSH2 0xF6B DUP3 DUP5 PUSH2 0xEE0 JUMP JUMPDEST SWAP2 POP DUP2 SWAP1 POP SWAP3 SWAP2 POP POP JUMP JUMPDEST PUSH32 0x6D616B65207375726520746F20656E74657220796F757220766F746572206465 PUSH0 DUP3 ADD MSTORE PUSH32 0x7461696C73000000000000000000000000000000000000000000000000000000 PUSH1 0x20 DUP3 ADD MSTORE POP JUMP JUMPDEST PUSH0 PUSH2 0xFD0 PUSH1 0x25 DUP4 PUSH2 0x7DF JUMP JUMPDEST SWAP2 POP PUSH2 0xFDB DUP3 PUSH2 0xF76 JUMP JUMPDEST PUSH1 0x40 DUP3 ADD SWAP1 POP SWAP2 SWAP1 POP JUMP JUMPDEST PUSH0 PUSH1 0x20 DUP3 ADD SWAP1 POP DUP2 DUP2 SUB PUSH0 DUP4 ADD MSTORE PUSH2 0xFFD DUP2 PUSH2 0xFC4 JUMP JUMPDEST SWAP1 POP SWAP2 SWAP1 POP JUMP INVALID LOG2 PUSH5 0x6970667358 0x22 SLT KECCAK256 0xF9 TLOAD 0x4C STATICCALL 0xE4 0xB8 STOP MULMOD 0xD0 0xDE SWAP12 DUP2 0xF7 SWAP12 0xD8 0xBB 0xEB 0xF9 ADD 0xD 0xD4 DUP13 BYTE PUSH12 0xC9821699BD4C990564736F6C PUSH4 0x4300081A STOP CALLER "
				},
				"gasEstimates": {
					"creation": {
						"codeDepositCost": "830800",
						"executionCost": "862",
						"totalCost": "831662"
					},
					"external": {
						"candidates(uint256)": "infinite",
						"createCandidate(string,string)": "infinite",
						"createVoter(string,string)": "infinite",
						"voters(uint256)": "infinite"
					}
				},
				"methodIdentifiers": {
					"candidates(uint256)": "3477ee2e",
					"createCandidate(string,string)": "9ab1c0ed",
					"createVoter(string,string)": "961e5800",
					"voters(uint256)": "da58c7d9"
				}
			},
			"storageLayout": {
				"storage": [
					{
						"astId": 105,
						"contract": "contracts/candidates.sol:Candidates",
						"label": "voters",
						"offset": 0,
						"slot": "0",
						"type": "t_array(t_struct(Voter)101_storage)dyn_storage"
					},
					{
						"astId": 109,
						"contract": "contracts/candidates.sol:Candidates",
						"label": "voterIndex",
						"offset": 0,
						"slot": "1",
						"type": "t_mapping(t_string_memory_ptr,t_uint256)"
					},
					{
						"astId": 113,
						"contract": "contracts/candidates.sol:Candidates",
						"label": "voterRollno",
						"offset": 0,
						"slot": "2",
						"type": "t_mapping(t_address,t_string_storage)"
					},
					{
						"astId": 15,
						"contract": "contracts/candidates.sol:Candidates",
						"label": "candidates",
						"offset": 0,
						"slot": "3",
						"type": "t_array(t_struct(Candidate)11_storage)dyn_storage"
					},
					{
						"astId": 19,
						"contract": "contracts/candidates.sol:Candidates",
						"label": "candidateIndex",
						"offset": 0,
						"slot": "4",
						"type": "t_mapping(t_string_memory_ptr,t_uint256)"
					},
					{
						"astId": 23,
						"contract": "contracts/candidates.sol:Candidates",
						"label": "candidateRollno",
						"offset": 0,
						"slot": "5",
						"type": "t_mapping(t_address,t_string_storage)"
					}
				],
				"types": {
					"t_address": {
						"encoding": "inplace",
						"label": "address",
						"numberOfBytes": "20"
					},
					"t_array(t_struct(Candidate)11_storage)dyn_storage": {
						"base": "t_struct(Candidate)11_storage",
						"encoding": "dynamic_array",
						"label": "struct Candidates.Candidate[]",
						"numberOfBytes": "32"
					},
					"t_array(t_struct(Voter)101_storage)dyn_storage": {
						"base": "t_struct(Voter)101_storage",
						"encoding": "dynamic_array",
						"label": "struct Voters.Voter[]",
						"numberOfBytes": "32"
					},
					"t_mapping(t_address,t_string_storage)": {
						"encoding": "mapping",
						"key": "t_address",
						"label": "mapping(address => string)",
						"numberOfBytes": "32",
						"value": "t_string_storage"
					},
					"t_mapping(t_string_memory_ptr,t_uint256)": {
						"encoding": "mapping",
						"key": "t_string_memory_ptr",
						"label": "mapping(string => uint256)",
						"numberOfBytes": "32",
						"value": "t_uint256"
					},
					"t_string_memory_ptr": {
						"encoding": "bytes",
						"label": "string",
						"numberOfBytes": "32"
					},
					"t_string_storage": {
						"encoding": "bytes",
						"label": "string",
						"numberOfBytes": "32"
					},
					"t_struct(Candidate)11_storage": {
						"encoding": "inplace",
						"label": "struct Candidates.Candidate",
						"members": [
							{
								"astId": 6,
								"contract": "contracts/candidates.sol:Candidates",
								"label": "name",
								"offset": 0,
								"slot": "0",
								"type": "t_string_storage"
							},
							{
								"astId": 8,
								"contract": "contracts/candidates.sol:Candidates",
								"label": "rollno",
								"offset": 0,
								"slot": "1",
								"type": "t_string_storage"
							},
							{
								"astId": 10,
								"contract": "contracts/candidates.sol:Candidates",
								"label": "voteCount",
								"offset": 0,
								"slot": "2",
								"type": "t_uint256"
							}
						],
						"numberOfBytes": "96"
					},
					"t_struct(Voter)101_storage": {
						"encoding": "inplace",
						"label": "struct Voters.Voter",
						"members": [
							{
								"astId": 96,
								"contract": "contracts/candidates.sol:Candidates",
								"label": "name",
								"offset": 0,
								"slot": "0",
								"type": "t_string_storage"
							},
							{
								"astId": 98,
								"contract": "contracts/candidates.sol:Candidates",
								"label": "rollno",
								"offset": 0,
								"slot": "1",
								"type": "t_string_storage"
							},
							{
								"astId": 100,
								"contract": "contracts/candidates.sol:Candidates",
								"label": "voteStatus",
								"offset": 0,
								"slot": "2",
								"type": "t_uint8"
							}
						],
						"numberOfBytes": "96"
					},
					"t_uint256": {
						"encoding": "inplace",
						"label": "uint256",
						"numberOfBytes": "32"
					},
					"t_uint8": {
						"encoding": "inplace",
						"label": "uint8",
						"numberOfBytes": "1"
					}
				}
			},
			"userdoc": {
				"kind": "user",
				"methods": {},
				"version": 1
			}
		}
	}
}