{
	"contracts/voter.sol": {
		"Voters": {
			"abi": [
				{
					"inputs": [
						{
							"internalType": "string",
							"name": "_name",
							"type": "string"
						},
						{
							"internalType": "string",
							"name": "_rollno",
							"type": "string"
						}
					],
					"name": "createVoter",
					"outputs": [],
					"stateMutability": "nonpayable",
					"type": "function"
				},
				{
					"inputs": [
						{
							"internalType": "uint256",
							"name": "",
							"type": "uint256"
						}
					],
					"name": "voters",
					"outputs": [
						{
							"internalType": "string",
							"name": "name",
							"type": "string"
						},
						{
							"internalType": "string",
							"name": "rollno",
							"type": "string"
						},
						{
							"internalType": "uint8",
							"name": "voteStatus",
							"type": "uint8"
						}
					],
					"stateMutability": "view",
					"type": "function"
				}
			],
			"devdoc": {
				"kind": "dev",
				"methods": {},
				"version": 1
			},
			"evm": {
				"assembly": "    /* \"contracts/voter.sol\":73:635  contract Voters{... */\n  mstore(0x40, 0x80)\n  callvalue\n  dup1\n  iszero\n  tag_1\n  jumpi\n  0x00\n  dup1\n  revert\ntag_1:\n  pop\n  dataSize(sub_0)\n  dup1\n  dataOffset(sub_0)\n  0x00\n  codecopy\n  0x00\n  return\nstop\n\nsub_0: assembly {\n        /* \"contracts/voter.sol\":73:635  contract Voters{... */\n      mstore(0x40, 0x80)\n      callvalue\n      dup1\n      iszero\n      tag_1\n      jumpi\n      0x00\n      dup1\n      revert\n    tag_1:\n      pop\n      jumpi(tag_2, lt(calldatasize, 0x04))\n      shr(0xe0, calldataload(0x00))\n      dup1\n      0x961e5800\n      eq\n      tag_3\n      jumpi\n      dup1\n      0xda58c7d9\n      eq\n      tag_4\n      jumpi\n    tag_2:\n      0x00\n      dup1\n      revert\n        /* \"contracts/voter.sol\":330:632  function createVoter(string memory _name, string memory _rollno) public{... */\n    tag_3:\n      tag_5\n      0x04\n      dup1\n      calldatasize\n      sub\n      dup2\n      add\n      swap1\n      tag_6\n      swap2\n      swap1\n      tag_7\n      jump\t// in\n    tag_6:\n      tag_8\n      jump\t// in\n    tag_5:\n      stop\n        /* \"contracts/voter.sol\":189:210  Voter[] public voters */\n    tag_4:\n      tag_9\n      0x04\n      dup1\n      calldatasize\n      sub\n      dup2\n      add\n      swap1\n      tag_10\n      swap2\n      swap1\n      tag_11\n      jump\t// in\n    tag_10:\n      tag_12\n      jump\t// in\n    tag_9:\n      mload(0x40)\n      tag_13\n      swap4\n      swap3\n      swap2\n      swap1\n      tag_14\n      jump\t// in\n    tag_13:\n      mload(0x40)\n      dup1\n      swap2\n      sub\n      swap1\n      return\n        /* \"contracts/voter.sol\":330:632  function createVoter(string memory _name, string memory _rollno) public{... */\n    tag_8:\n        /* \"contracts/voter.sol\":460:461  0 */\n      0x00\n        /* \"contracts/voter.sol\":425:436  voterRollno */\n      0x02\n        /* \"contracts/voter.sol\":425:448  voterRollno[msg.sender] */\n      0x00\n        /* \"contracts/voter.sol\":437:447  msg.sender */\n      caller\n        /* \"contracts/voter.sol\":425:448  voterRollno[msg.sender] */\n      0xffffffffffffffffffffffffffffffffffffffff\n      and\n      0xffffffffffffffffffffffffffffffffffffffff\n      and\n      dup2\n      mstore\n      0x20\n      add\n      swap1\n      dup2\n      mstore\n      0x20\n      add\n      0x00\n      keccak256\n        /* \"contracts/voter.sol\":419:456  bytes(voterRollno[msg.sender]).length */\n      dup1\n      sload\n      tag_16\n      swap1\n      tag_17\n      jump\t// in\n    tag_16:\n      swap1\n      pop\n        /* \"contracts/voter.sol\":419:461  bytes(voterRollno[msg.sender]).length == 0 */\n      eq\n        /* \"contracts/voter.sol\":411:487  require(bytes(voterRollno[msg.sender]).length == 0, \"Voter already exists!\") */\n      tag_18\n      jumpi\n      mload(0x40)\n      0x08c379a000000000000000000000000000000000000000000000000000000000\n      dup2\n      mstore\n      0x04\n      add\n      tag_19\n      swap1\n      tag_20\n      jump\t// in\n    tag_19:\n      mload(0x40)\n      dup1\n      swap2\n      sub\n      swap1\n      revert\n    tag_18:\n        /* \"contracts/voter.sol\":497:503  voters */\n      0x00\n        /* \"contracts/voter.sol\":509:532  Voter(_name, _rollno,0) */\n      mload(0x40)\n      dup1\n      0x60\n      add\n      0x40\n      mstore\n      dup1\n        /* \"contracts/voter.sol\":515:520  _name */\n      dup5\n        /* \"contracts/voter.sol\":509:532  Voter(_name, _rollno,0) */\n      dup2\n      mstore\n      0x20\n      add\n        /* \"contracts/voter.sol\":522:529  _rollno */\n      dup4\n        /* \"contracts/voter.sol\":509:532  Voter(_name, _rollno,0) */\n      dup2\n      mstore\n      0x20\n      add\n        /* \"contracts/voter.sol\":530:531  0 */\n      0x00\n        /* \"contracts/voter.sol\":509:532  Voter(_name, _rollno,0) */\n      0xff\n      and\n      dup2\n      mstore\n      pop\n        /* \"contracts/voter.sol\":497:533  voters.push(Voter(_name, _rollno,0)) */\n      swap1\n      dup1\n      0x01\n      dup2\n      sload\n      add\n      dup1\n      dup3\n      sstore\n      dup1\n      swap2\n      pop\n      pop\n      0x01\n      swap1\n      sub\n      swap1\n      0x00\n      mstore\n      keccak256(0x00, 0x20)\n      swap1\n      0x03\n      mul\n      add\n      0x00\n      swap1\n      swap2\n      swap1\n      swap2\n      swap1\n      swap2\n      pop\n      0x00\n      dup3\n      add\n      mload\n      dup2\n      0x00\n      add\n      swap1\n      dup2\n      tag_22\n      swap2\n      swap1\n      tag_23\n      jump\t// in\n    tag_22:\n      pop\n      0x20\n      dup3\n      add\n      mload\n      dup2\n      0x01\n      add\n      swap1\n      dup2\n      tag_24\n      swap2\n      swap1\n      tag_23\n      jump\t// in\n    tag_24:\n      pop\n      0x40\n      dup3\n      add\n      mload\n      dup2\n      0x02\n      add\n      exp(0x0100, 0x00)\n      dup2\n      sload\n      dup2\n      0xff\n      mul\n      not\n      and\n      swap1\n      dup4\n      0xff\n      and\n      mul\n      or\n      swap1\n      sstore\n      pop\n      pop\n      pop\n        /* \"contracts/voter.sol\":581:582  1 */\n      0x01\n        /* \"contracts/voter.sol\":565:571  voters */\n      0x00\n        /* \"contracts/voter.sol\":565:578  voters.length */\n      dup1\n      sload\n      swap1\n      pop\n        /* \"contracts/voter.sol\":565:582  voters.length - 1 */\n      tag_25\n      swap2\n      swap1\n      tag_26\n      jump\t// in\n    tag_25:\n        /* \"contracts/voter.sol\":543:553  voterIndex */\n      0x01\n        /* \"contracts/voter.sol\":554:561  _rollno */\n      dup3\n        /* \"contracts/voter.sol\":543:562  voterIndex[_rollno] */\n      mload(0x40)\n      tag_27\n      swap2\n      swap1\n      tag_28\n      jump\t// in\n    tag_27:\n      swap1\n      dup2\n      mstore\n      0x20\n      add\n      mload(0x40)\n      dup1\n      swap2\n      sub\n      swap1\n      keccak256\n        /* \"contracts/voter.sol\":543:582  voterIndex[_rollno] = voters.length - 1 */\n      dup2\n      swap1\n      sstore\n      pop\n        /* \"contracts/voter.sol\":618:625  _rollno */\n      dup1\n        /* \"contracts/voter.sol\":592:603  voterRollno */\n      0x02\n        /* \"contracts/voter.sol\":592:615  voterRollno[msg.sender] */\n      0x00\n        /* \"contracts/voter.sol\":604:614  msg.sender */\n      caller\n        /* \"contracts/voter.sol\":592:615  voterRollno[msg.sender] */\n      0xffffffffffffffffffffffffffffffffffffffff\n      and\n      0xffffffffffffffffffffffffffffffffffffffff\n      and\n      dup2\n      mstore\n      0x20\n      add\n      swap1\n      dup2\n      mstore\n      0x20\n      add\n      0x00\n      keccak256\n        /* \"contracts/voter.sol\":592:625  voterRollno[msg.sender] = _rollno */\n      swap1\n      dup2\n      tag_29\n      swap2\n      swap1\n      tag_23\n      jump\t// in\n    tag_29:\n      pop\n        /* \"contracts/voter.sol\":330:632  function createVoter(string memory _name, string memory _rollno) public{... */\n      pop\n      pop\n      jump\t// out\n        /* \"contracts/voter.sol\":189:210  Voter[] public voters */\n    tag_12:\n      0x00\n      dup2\n      dup2\n      sload\n      dup2\n      lt\n      tag_30\n      jumpi\n      0x00\n      dup1\n      revert\n    tag_30:\n      swap1\n      0x00\n      mstore\n      keccak256(0x00, 0x20)\n      swap1\n      0x03\n      mul\n      add\n      0x00\n      swap2\n      pop\n      swap1\n      pop\n      dup1\n      0x00\n      add\n      dup1\n      sload\n      tag_32\n      swap1\n      tag_17\n      jump\t// in\n    tag_32:\n      dup1\n      0x1f\n      add\n      0x20\n      dup1\n      swap2\n      div\n      mul\n      0x20\n      add\n      mload(0x40)\n      swap1\n      dup2\n      add\n      0x40\n      mstore\n      dup1\n      swap3\n      swap2\n      swap1\n      dup2\n      dup2\n      mstore\n      0x20\n      add\n      dup3\n      dup1\n      sload\n      tag_33\n      swap1\n      tag_17\n      jump\t// in\n    tag_33:\n      dup1\n      iszero\n      tag_34\n      jumpi\n      dup1\n      0x1f\n      lt\n      tag_35\n      jumpi\n      0x0100\n      dup1\n      dup4\n      sload\n      div\n      mul\n      dup4\n      mstore\n      swap2\n      0x20\n      add\n      swap2\n      jump(tag_34)\n    tag_35:\n      dup3\n      add\n      swap2\n      swap1\n      0x00\n      mstore\n      keccak256(0x00, 0x20)\n      swap1\n    tag_36:\n      dup2\n      sload\n      dup2\n      mstore\n      swap1\n      0x01\n      add\n      swap1\n      0x20\n      add\n      dup1\n      dup4\n      gt\n      tag_36\n      jumpi\n      dup3\n      swap1\n      sub\n      0x1f\n      and\n      dup3\n      add\n      swap2\n    tag_34:\n      pop\n      pop\n      pop\n      pop\n      pop\n      swap1\n      dup1\n      0x01\n      add\n      dup1\n      sload\n      tag_37\n      swap1\n      tag_17\n      jump\t// in\n    tag_37:\n      dup1\n      0x1f\n      add\n      0x20\n      dup1\n      swap2\n      div\n      mul\n      0x20\n      add\n      mload(0x40)\n      swap1\n      dup2\n      add\n      0x40\n      mstore\n      dup1\n      swap3\n      swap2\n      swap1\n      dup2\n      dup2\n      mstore\n      0x20\n      add\n      dup3\n      dup1\n      sload\n      tag_38\n      swap1\n      tag_17\n      jump\t// in\n    tag_38:\n      dup1\n      iszero\n      tag_39\n      jumpi\n      dup1\n      0x1f\n      lt\n      tag_40\n      jumpi\n      0x0100\n      dup1\n      dup4\n      sload\n      div\n      mul\n      dup4\n      mstore\n      swap2\n      0x20\n      add\n      swap2\n      jump(tag_39)\n    tag_40:\n      dup3\n      add\n      swap2\n      swap1\n      0x00\n      mstore\n      keccak256(0x00, 0x20)\n      swap1\n    tag_41:\n      dup2\n      sload\n      dup2\n      mstore\n      swap1\n      0x01\n      add\n      swap1\n      0x20\n      add\n      dup1\n      dup4\n      gt\n      tag_41\n      jumpi\n      dup3\n      swap1\n      sub\n      0x1f\n      and\n      dup3\n      add\n      swap2\n    tag_39:\n      pop\n      pop\n      pop\n      pop\n      pop\n      swap1\n      dup1\n      0x02\n      add\n      0x00\n      swap1\n      sload\n      swap1\n      0x0100\n      exp\n      swap1\n      div\n      0xff\n      and\n      swap1\n      pop\n      dup4\n      jump\t// out\n        /* \"#utility.yul\":7:82   */\n    tag_42:\n        /* \"#utility.yul\":40:46   */\n      0x00\n        /* \"#utility.yul\":73:75   */\n      0x40\n        /* \"#utility.yul\":67:76   */\n      mload\n        /* \"#utility.yul\":57:76   */\n      swap1\n      pop\n        /* \"#utility.yul\":7:82   */\n      swap1\n      jump\t// out\n        /* \"#utility.yul\":88:205   */\n    tag_43:\n        /* \"#utility.yul\":197:198   */\n      0x00\n        /* \"#utility.yul\":194:195   */\n      dup1\n        /* \"#utility.yul\":187:199   */\n      revert\n        /* \"#utility.yul\":211:328   */\n    tag_44:\n        /* \"#utility.yul\":320:321   */\n      0x00\n        /* \"#utility.yul\":317:318   */\n      dup1\n        /* \"#utility.yul\":310:322   */\n      revert\n        /* \"#utility.yul\":334:451   */\n    tag_45:\n        /* \"#utility.yul\":443:444   */\n      0x00\n        /* \"#utility.yul\":440:441   */\n      dup1\n        /* \"#utility.yul\":433:445   */\n      revert\n        /* \"#utility.yul\":457:574   */\n    tag_46:\n        /* \"#utility.yul\":566:567   */\n      0x00\n        /* \"#utility.yul\":563:564   */\n      dup1\n        /* \"#utility.yul\":556:568   */\n      revert\n        /* \"#utility.yul\":580:682   */\n    tag_47:\n        /* \"#utility.yul\":621:627   */\n      0x00\n        /* \"#utility.yul\":672:674   */\n      0x1f\n        /* \"#utility.yul\":668:675   */\n      not\n        /* \"#utility.yul\":663:665   */\n      0x1f\n        /* \"#utility.yul\":656:661   */\n      dup4\n        /* \"#utility.yul\":652:666   */\n      add\n        /* \"#utility.yul\":648:676   */\n      and\n        /* \"#utility.yul\":638:676   */\n      swap1\n      pop\n        /* \"#utility.yul\":580:682   */\n      swap2\n      swap1\n      pop\n      jump\t// out\n        /* \"#utility.yul\":688:868   */\n    tag_48:\n        /* \"#utility.yul\":736:813   */\n      0x4e487b7100000000000000000000000000000000000000000000000000000000\n        /* \"#utility.yul\":733:734   */\n      0x00\n        /* \"#utility.yul\":726:814   */\n      mstore\n        /* \"#utility.yul\":833:837   */\n      0x41\n        /* \"#utility.yul\":830:831   */\n      0x04\n        /* \"#utility.yul\":823:838   */\n      mstore\n        /* \"#utility.yul\":857:861   */\n      0x24\n        /* \"#utility.yul\":854:855   */\n      0x00\n        /* \"#utility.yul\":847:862   */\n      revert\n        /* \"#utility.yul\":874:1155   */\n    tag_49:\n        /* \"#utility.yul\":957:984   */\n      tag_94\n        /* \"#utility.yul\":979:983   */\n      dup3\n        /* \"#utility.yul\":957:984   */\n      tag_47\n      jump\t// in\n    tag_94:\n        /* \"#utility.yul\":949:955   */\n      dup2\n        /* \"#utility.yul\":945:985   */\n      add\n        /* \"#utility.yul\":1087:1093   */\n      dup2\n        /* \"#utility.yul\":1075:1085   */\n      dup2\n        /* \"#utility.yul\":1072:1094   */\n      lt\n        /* \"#utility.yul\":1051:1069   */\n      0xffffffffffffffff\n        /* \"#utility.yul\":1039:1049   */\n      dup3\n        /* \"#utility.yul\":1036:1070   */\n      gt\n        /* \"#utility.yul\":1033:1095   */\n      or\n        /* \"#utility.yul\":1030:1118   */\n      iszero\n      tag_95\n      jumpi\n        /* \"#utility.yul\":1098:1116   */\n      tag_96\n      tag_48\n      jump\t// in\n    tag_96:\n        /* \"#utility.yul\":1030:1118   */\n    tag_95:\n        /* \"#utility.yul\":1138:1148   */\n      dup1\n        /* \"#utility.yul\":1134:1136   */\n      0x40\n        /* \"#utility.yul\":1127:1149   */\n      mstore\n        /* \"#utility.yul\":917:1155   */\n      pop\n        /* \"#utility.yul\":874:1155   */\n      pop\n      pop\n      jump\t// out\n        /* \"#utility.yul\":1161:1290   */\n    tag_50:\n        /* \"#utility.yul\":1195:1201   */\n      0x00\n        /* \"#utility.yul\":1222:1242   */\n      tag_98\n      tag_42\n      jump\t// in\n    tag_98:\n        /* \"#utility.yul\":1212:1242   */\n      swap1\n      pop\n        /* \"#utility.yul\":1251:1284   */\n      tag_99\n        /* \"#utility.yul\":1279:1283   */\n      dup3\n        /* \"#utility.yul\":1271:1277   */\n      dup3\n        /* \"#utility.yul\":1251:1284   */\n      tag_49\n      jump\t// in\n    tag_99:\n        /* \"#utility.yul\":1161:1290   */\n      swap2\n      swap1\n      pop\n      jump\t// out\n        /* \"#utility.yul\":1296:1604   */\n    tag_51:\n        /* \"#utility.yul\":1358:1362   */\n      0x00\n        /* \"#utility.yul\":1448:1466   */\n      0xffffffffffffffff\n        /* \"#utility.yul\":1440:1446   */\n      dup3\n        /* \"#utility.yul\":1437:1467   */\n      gt\n        /* \"#utility.yul\":1434:1490   */\n      iszero\n      tag_101\n      jumpi\n        /* \"#utility.yul\":1470:1488   */\n      tag_102\n      tag_48\n      jump\t// in\n    tag_102:\n        /* \"#utility.yul\":1434:1490   */\n    tag_101:\n        /* \"#utility.yul\":1508:1537   */\n      tag_103\n        /* \"#utility.yul\":1530:1536   */\n      dup3\n        /* \"#utility.yul\":1508:1537   */\n      tag_47\n      jump\t// in\n    tag_103:\n        /* \"#utility.yul\":1500:1537   */\n      swap1\n      pop\n        /* \"#utility.yul\":1592:1596   */\n      0x20\n        /* \"#utility.yul\":1586:1590   */\n      dup2\n        /* \"#utility.yul\":1582:1597   */\n      add\n        /* \"#utility.yul\":1574:1597   */\n      swap1\n      pop\n        /* \"#utility.yul\":1296:1604   */\n      swap2\n      swap1\n      pop\n      jump\t// out\n        /* \"#utility.yul\":1610:1758   */\n    tag_52:\n        /* \"#utility.yul\":1708:1714   */\n      dup3\n        /* \"#utility.yul\":1703:1706   */\n      dup2\n        /* \"#utility.yul\":1698:1701   */\n      dup4\n        /* \"#utility.yul\":1685:1715   */\n      calldatacopy\n        /* \"#utility.yul\":1749:1750   */\n      0x00\n        /* \"#utility.yul\":1740:1746   */\n      dup4\n        /* \"#utility.yul\":1735:1738   */\n      dup4\n        /* \"#utility.yul\":1731:1747   */\n      add\n        /* \"#utility.yul\":1724:1751   */\n      mstore\n        /* \"#utility.yul\":1610:1758   */\n      pop\n      pop\n      pop\n      jump\t// out\n        /* \"#utility.yul\":1764:2189   */\n    tag_53:\n        /* \"#utility.yul\":1842:1847   */\n      0x00\n        /* \"#utility.yul\":1867:1933   */\n      tag_106\n        /* \"#utility.yul\":1883:1932   */\n      tag_107\n        /* \"#utility.yul\":1925:1931   */\n      dup5\n        /* \"#utility.yul\":1883:1932   */\n      tag_51\n      jump\t// in\n    tag_107:\n        /* \"#utility.yul\":1867:1933   */\n      tag_50\n      jump\t// in\n    tag_106:\n        /* \"#utility.yul\":1858:1933   */\n      swap1\n      pop\n        /* \"#utility.yul\":1956:1962   */\n      dup3\n        /* \"#utility.yul\":1949:1954   */\n      dup2\n        /* \"#utility.yul\":1942:1963   */\n      mstore\n        /* \"#utility.yul\":1994:1998   */\n      0x20\n        /* \"#utility.yul\":1987:1992   */\n      dup2\n        /* \"#utility.yul\":1983:1999   */\n      add\n        /* \"#utility.yul\":2032:2035   */\n      dup5\n        /* \"#utility.yul\":2023:2029   */\n      dup5\n        /* \"#utility.yul\":2018:2021   */\n      dup5\n        /* \"#utility.yul\":2014:2030   */\n      add\n        /* \"#utility.yul\":2011:2036   */\n      gt\n        /* \"#utility.yul\":2008:2120   */\n      iszero\n      tag_108\n      jumpi\n        /* \"#utility.yul\":2039:2118   */\n      tag_109\n      tag_46\n      jump\t// in\n    tag_109:\n        /* \"#utility.yul\":2008:2120   */\n    tag_108:\n        /* \"#utility.yul\":2129:2183   */\n      tag_110\n        /* \"#utility.yul\":2176:2182   */\n      dup5\n        /* \"#utility.yul\":2171:2174   */\n      dup3\n        /* \"#utility.yul\":2166:2169   */\n      dup6\n        /* \"#utility.yul\":2129:2183   */\n      tag_52\n      jump\t// in\n    tag_110:\n        /* \"#utility.yul\":1848:2189   */\n      pop\n        /* \"#utility.yul\":1764:2189   */\n      swap4\n      swap3\n      pop\n      pop\n      pop\n      jump\t// out\n        /* \"#utility.yul\":2209:2549   */\n    tag_54:\n        /* \"#utility.yul\":2265:2270   */\n      0x00\n        /* \"#utility.yul\":2314:2317   */\n      dup3\n        /* \"#utility.yul\":2307:2311   */\n      0x1f\n        /* \"#utility.yul\":2299:2305   */\n      dup4\n        /* \"#utility.yul\":2295:2312   */\n      add\n        /* \"#utility.yul\":2291:2318   */\n      slt\n        /* \"#utility.yul\":2281:2403   */\n      tag_112\n      jumpi\n        /* \"#utility.yul\":2322:2401   */\n      tag_113\n      tag_45\n      jump\t// in\n    tag_113:\n        /* \"#utility.yul\":2281:2403   */\n    tag_112:\n        /* \"#utility.yul\":2439:2445   */\n      dup2\n        /* \"#utility.yul\":2426:2446   */\n      calldataload\n        /* \"#utility.yul\":2464:2543   */\n      tag_114\n        /* \"#utility.yul\":2539:2542   */\n      dup5\n        /* \"#utility.yul\":2531:2537   */\n      dup3\n        /* \"#utility.yul\":2524:2528   */\n      0x20\n        /* \"#utility.yul\":2516:2522   */\n      dup7\n        /* \"#utility.yul\":2512:2529   */\n      add\n        /* \"#utility.yul\":2464:2543   */\n      tag_53\n      jump\t// in\n    tag_114:\n        /* \"#utility.yul\":2455:2543   */\n      swap2\n      pop\n        /* \"#utility.yul\":2271:2549   */\n      pop\n        /* \"#utility.yul\":2209:2549   */\n      swap3\n      swap2\n      pop\n      pop\n      jump\t// out\n        /* \"#utility.yul\":2555:3389   */\n    tag_7:\n        /* \"#utility.yul\":2643:2649   */\n      0x00\n        /* \"#utility.yul\":2651:2657   */\n      dup1\n        /* \"#utility.yul\":2700:2702   */\n      0x40\n        /* \"#utility.yul\":2688:2697   */\n      dup4\n        /* \"#utility.yul\":2679:2686   */\n      dup6\n        /* \"#utility.yul\":2675:2698   */\n      sub\n        /* \"#utility.yul\":2671:2703   */\n      slt\n        /* \"#utility.yul\":2668:2787   */\n      iszero\n      tag_116\n      jumpi\n        /* \"#utility.yul\":2706:2785   */\n      tag_117\n      tag_43\n      jump\t// in\n    tag_117:\n        /* \"#utility.yul\":2668:2787   */\n    tag_116:\n        /* \"#utility.yul\":2854:2855   */\n      0x00\n        /* \"#utility.yul\":2843:2852   */\n      dup4\n        /* \"#utility.yul\":2839:2856   */\n      add\n        /* \"#utility.yul\":2826:2857   */\n      calldataload\n        /* \"#utility.yul\":2884:2902   */\n      0xffffffffffffffff\n        /* \"#utility.yul\":2876:2882   */\n      dup2\n        /* \"#utility.yul\":2873:2903   */\n      gt\n        /* \"#utility.yul\":2870:2987   */\n      iszero\n      tag_118\n      jumpi\n        /* \"#utility.yul\":2906:2985   */\n      tag_119\n      tag_44\n      jump\t// in\n    tag_119:\n        /* \"#utility.yul\":2870:2987   */\n    tag_118:\n        /* \"#utility.yul\":3011:3074   */\n      tag_120\n        /* \"#utility.yul\":3066:3073   */\n      dup6\n        /* \"#utility.yul\":3057:3063   */\n      dup3\n        /* \"#utility.yul\":3046:3055   */\n      dup7\n        /* \"#utility.yul\":3042:3064   */\n      add\n        /* \"#utility.yul\":3011:3074   */\n      tag_54\n      jump\t// in\n    tag_120:\n        /* \"#utility.yul\":3001:3074   */\n      swap3\n      pop\n        /* \"#utility.yul\":2797:3084   */\n      pop\n        /* \"#utility.yul\":3151:3153   */\n      0x20\n        /* \"#utility.yul\":3140:3149   */\n      dup4\n        /* \"#utility.yul\":3136:3154   */\n      add\n        /* \"#utility.yul\":3123:3155   */\n      calldataload\n        /* \"#utility.yul\":3182:3200   */\n      0xffffffffffffffff\n        /* \"#utility.yul\":3174:3180   */\n      dup2\n        /* \"#utility.yul\":3171:3201   */\n      gt\n        /* \"#utility.yul\":3168:3285   */\n      iszero\n      tag_121\n      jumpi\n        /* \"#utility.yul\":3204:3283   */\n      tag_122\n      tag_44\n      jump\t// in\n    tag_122:\n        /* \"#utility.yul\":3168:3285   */\n    tag_121:\n        /* \"#utility.yul\":3309:3372   */\n      tag_123\n        /* \"#utility.yul\":3364:3371   */\n      dup6\n        /* \"#utility.yul\":3355:3361   */\n      dup3\n        /* \"#utility.yul\":3344:3353   */\n      dup7\n        /* \"#utility.yul\":3340:3362   */\n      add\n        /* \"#utility.yul\":3309:3372   */\n      tag_54\n      jump\t// in\n    tag_123:\n        /* \"#utility.yul\":3299:3372   */\n      swap2\n      pop\n        /* \"#utility.yul\":3094:3382   */\n      pop\n        /* \"#utility.yul\":2555:3389   */\n      swap3\n      pop\n      swap3\n      swap1\n      pop\n      jump\t// out\n        /* \"#utility.yul\":3395:3472   */\n    tag_55:\n        /* \"#utility.yul\":3432:3439   */\n      0x00\n        /* \"#utility.yul\":3461:3466   */\n      dup2\n        /* \"#utility.yul\":3450:3466   */\n      swap1\n      pop\n        /* \"#utility.yul\":3395:3472   */\n      swap2\n      swap1\n      pop\n      jump\t// out\n        /* \"#utility.yul\":3478:3600   */\n    tag_56:\n        /* \"#utility.yul\":3551:3575   */\n      tag_126\n        /* \"#utility.yul\":3569:3574   */\n      dup2\n        /* \"#utility.yul\":3551:3575   */\n      tag_55\n      jump\t// in\n    tag_126:\n        /* \"#utility.yul\":3544:3549   */\n      dup2\n        /* \"#utility.yul\":3541:3576   */\n      eq\n        /* \"#utility.yul\":3531:3594   */\n      tag_127\n      jumpi\n        /* \"#utility.yul\":3590:3591   */\n      0x00\n        /* \"#utility.yul\":3587:3588   */\n      dup1\n        /* \"#utility.yul\":3580:3592   */\n      revert\n        /* \"#utility.yul\":3531:3594   */\n    tag_127:\n        /* \"#utility.yul\":3478:3600   */\n      pop\n      jump\t// out\n        /* \"#utility.yul\":3606:3745   */\n    tag_57:\n        /* \"#utility.yul\":3652:3657   */\n      0x00\n        /* \"#utility.yul\":3690:3696   */\n      dup2\n        /* \"#utility.yul\":3677:3697   */\n      calldataload\n        /* \"#utility.yul\":3668:3697   */\n      swap1\n      pop\n        /* \"#utility.yul\":3706:3739   */\n      tag_129\n        /* \"#utility.yul\":3733:3738   */\n      dup2\n        /* \"#utility.yul\":3706:3739   */\n      tag_56\n      jump\t// in\n    tag_129:\n        /* \"#utility.yul\":3606:3745   */\n      swap3\n      swap2\n      pop\n      pop\n      jump\t// out\n        /* \"#utility.yul\":3751:4080   */\n    tag_11:\n        /* \"#utility.yul\":3810:3816   */\n      0x00\n        /* \"#utility.yul\":3859:3861   */\n      0x20\n        /* \"#utility.yul\":3847:3856   */\n      dup3\n        /* \"#utility.yul\":3838:3845   */\n      dup5\n        /* \"#utility.yul\":3834:3857   */\n      sub\n        /* \"#utility.yul\":3830:3862   */\n      slt\n        /* \"#utility.yul\":3827:3946   */\n      iszero\n      tag_131\n      jumpi\n        /* \"#utility.yul\":3865:3944   */\n      tag_132\n      tag_43\n      jump\t// in\n    tag_132:\n        /* \"#utility.yul\":3827:3946   */\n    tag_131:\n        /* \"#utility.yul\":3985:3986   */\n      0x00\n        /* \"#utility.yul\":4010:4063   */\n      tag_133\n        /* \"#utility.yul\":4055:4062   */\n      dup5\n        /* \"#utility.yul\":4046:4052   */\n      dup3\n        /* \"#utility.yul\":4035:4044   */\n      dup6\n        /* \"#utility.yul\":4031:4053   */\n      add\n        /* \"#utility.yul\":4010:4063   */\n      tag_57\n      jump\t// in\n    tag_133:\n        /* \"#utility.yul\":4000:4063   */\n      swap2\n      pop\n        /* \"#utility.yul\":3956:4073   */\n      pop\n        /* \"#utility.yul\":3751:4080   */\n      swap3\n      swap2\n      pop\n      pop\n      jump\t// out\n        /* \"#utility.yul\":4086:4185   */\n    tag_58:\n        /* \"#utility.yul\":4138:4144   */\n      0x00\n        /* \"#utility.yul\":4172:4177   */\n      dup2\n        /* \"#utility.yul\":4166:4178   */\n      mload\n        /* \"#utility.yul\":4156:4178   */\n      swap1\n      pop\n        /* \"#utility.yul\":4086:4185   */\n      swap2\n      swap1\n      pop\n      jump\t// out\n        /* \"#utility.yul\":4191:4360   */\n    tag_59:\n        /* \"#utility.yul\":4275:4286   */\n      0x00\n        /* \"#utility.yul\":4309:4315   */\n      dup3\n        /* \"#utility.yul\":4304:4307   */\n      dup3\n        /* \"#utility.yul\":4297:4316   */\n      mstore\n        /* \"#utility.yul\":4349:4353   */\n      0x20\n        /* \"#utility.yul\":4344:4347   */\n      dup3\n        /* \"#utility.yul\":4340:4354   */\n      add\n        /* \"#utility.yul\":4325:4354   */\n      swap1\n      pop\n        /* \"#utility.yul\":4191:4360   */\n      swap3\n      swap2\n      pop\n      pop\n      jump\t// out\n        /* \"#utility.yul\":4366:4505   */\n    tag_60:\n        /* \"#utility.yul\":4455:4461   */\n      dup3\n        /* \"#utility.yul\":4450:4453   */\n      dup2\n        /* \"#utility.yul\":4445:4448   */\n      dup4\n        /* \"#utility.yul\":4439:4462   */\n      mcopy\n        /* \"#utility.yul\":4496:4497   */\n      0x00\n        /* \"#utility.yul\":4487:4493   */\n      dup4\n        /* \"#utility.yul\":4482:4485   */\n      dup4\n        /* \"#utility.yul\":4478:4494   */\n      add\n        /* \"#utility.yul\":4471:4498   */\n      mstore\n        /* \"#utility.yul\":4366:4505   */\n      pop\n      pop\n      pop\n      jump\t// out\n        /* \"#utility.yul\":4511:4888   */\n    tag_61:\n        /* \"#utility.yul\":4599:4602   */\n      0x00\n        /* \"#utility.yul\":4627:4666   */\n      tag_138\n        /* \"#utility.yul\":4660:4665   */\n      dup3\n        /* \"#utility.yul\":4627:4666   */\n      tag_58\n      jump\t// in\n    tag_138:\n        /* \"#utility.yul\":4682:4753   */\n      tag_139\n        /* \"#utility.yul\":4746:4752   */\n      dup2\n        /* \"#utility.yul\":4741:4744   */\n      dup6\n        /* \"#utility.yul\":4682:4753   */\n      tag_59\n      jump\t// in\n    tag_139:\n        /* \"#utility.yul\":4675:4753   */\n      swap4\n      pop\n        /* \"#utility.yul\":4762:4827   */\n      tag_140\n        /* \"#utility.yul\":4820:4826   */\n      dup2\n        /* \"#utility.yul\":4815:4818   */\n      dup6\n        /* \"#utility.yul\":4808:4812   */\n      0x20\n        /* \"#utility.yul\":4801:4806   */\n      dup7\n        /* \"#utility.yul\":4797:4813   */\n      add\n        /* \"#utility.yul\":4762:4827   */\n      tag_60\n      jump\t// in\n    tag_140:\n        /* \"#utility.yul\":4852:4881   */\n      tag_141\n        /* \"#utility.yul\":4874:4880   */\n      dup2\n        /* \"#utility.yul\":4852:4881   */\n      tag_47\n      jump\t// in\n    tag_141:\n        /* \"#utility.yul\":4847:4850   */\n      dup5\n        /* \"#utility.yul\":4843:4882   */\n      add\n        /* \"#utility.yul\":4836:4882   */\n      swap2\n      pop\n        /* \"#utility.yul\":4603:4888   */\n      pop\n        /* \"#utility.yul\":4511:4888   */\n      swap3\n      swap2\n      pop\n      pop\n      jump\t// out\n        /* \"#utility.yul\":4894:4980   */\n    tag_62:\n        /* \"#utility.yul\":4929:4936   */\n      0x00\n        /* \"#utility.yul\":4969:4973   */\n      0xff\n        /* \"#utility.yul\":4962:4967   */\n      dup3\n        /* \"#utility.yul\":4958:4974   */\n      and\n        /* \"#utility.yul\":4947:4974   */\n      swap1\n      pop\n        /* \"#utility.yul\":4894:4980   */\n      swap2\n      swap1\n      pop\n      jump\t// out\n        /* \"#utility.yul\":4986:5098   */\n    tag_63:\n        /* \"#utility.yul\":5069:5091   */\n      tag_144\n        /* \"#utility.yul\":5085:5090   */\n      dup2\n        /* \"#utility.yul\":5069:5091   */\n      tag_62\n      jump\t// in\n    tag_144:\n        /* \"#utility.yul\":5064:5067   */\n      dup3\n        /* \"#utility.yul\":5057:5092   */\n      mstore\n        /* \"#utility.yul\":4986:5098   */\n      pop\n      pop\n      jump\t// out\n        /* \"#utility.yul\":5104:5720   */\n    tag_14:\n        /* \"#utility.yul\":5289:5293   */\n      0x00\n        /* \"#utility.yul\":5327:5329   */\n      0x60\n        /* \"#utility.yul\":5316:5325   */\n      dup3\n        /* \"#utility.yul\":5312:5330   */\n      add\n        /* \"#utility.yul\":5304:5330   */\n      swap1\n      pop\n        /* \"#utility.yul\":5376:5385   */\n      dup2\n        /* \"#utility.yul\":5370:5374   */\n      dup2\n        /* \"#utility.yul\":5366:5386   */\n      sub\n        /* \"#utility.yul\":5362:5363   */\n      0x00\n        /* \"#utility.yul\":5351:5360   */\n      dup4\n        /* \"#utility.yul\":5347:5364   */\n      add\n        /* \"#utility.yul\":5340:5387   */\n      mstore\n        /* \"#utility.yul\":5404:5482   */\n      tag_146\n        /* \"#utility.yul\":5477:5481   */\n      dup2\n        /* \"#utility.yul\":5468:5474   */\n      dup7\n        /* \"#utility.yul\":5404:5482   */\n      tag_61\n      jump\t// in\n    tag_146:\n        /* \"#utility.yul\":5396:5482   */\n      swap1\n      pop\n        /* \"#utility.yul\":5529:5538   */\n      dup2\n        /* \"#utility.yul\":5523:5527   */\n      dup2\n        /* \"#utility.yul\":5519:5539   */\n      sub\n        /* \"#utility.yul\":5514:5516   */\n      0x20\n        /* \"#utility.yul\":5503:5512   */\n      dup4\n        /* \"#utility.yul\":5499:5517   */\n      add\n        /* \"#utility.yul\":5492:5540   */\n      mstore\n        /* \"#utility.yul\":5557:5635   */\n      tag_147\n        /* \"#utility.yul\":5630:5634   */\n      dup2\n        /* \"#utility.yul\":5621:5627   */\n      dup6\n        /* \"#utility.yul\":5557:5635   */\n      tag_61\n      jump\t// in\n    tag_147:\n        /* \"#utility.yul\":5549:5635   */\n      swap1\n      pop\n        /* \"#utility.yul\":5645:5713   */\n      tag_148\n        /* \"#utility.yul\":5709:5711   */\n      0x40\n        /* \"#utility.yul\":5698:5707   */\n      dup4\n        /* \"#utility.yul\":5694:5712   */\n      add\n        /* \"#utility.yul\":5685:5691   */\n      dup5\n        /* \"#utility.yul\":5645:5713   */\n      tag_63\n      jump\t// in\n    tag_148:\n        /* \"#utility.yul\":5104:5720   */\n      swap5\n      swap4\n      pop\n      pop\n      pop\n      pop\n      jump\t// out\n        /* \"#utility.yul\":5726:5906   */\n    tag_64:\n        /* \"#utility.yul\":5774:5851   */\n      0x4e487b7100000000000000000000000000000000000000000000000000000000\n        /* \"#utility.yul\":5771:5772   */\n      0x00\n        /* \"#utility.yul\":5764:5852   */\n      mstore\n        /* \"#utility.yul\":5871:5875   */\n      0x22\n        /* \"#utility.yul\":5868:5869   */\n      0x04\n        /* \"#utility.yul\":5861:5876   */\n      mstore\n        /* \"#utility.yul\":5895:5899   */\n      0x24\n        /* \"#utility.yul\":5892:5893   */\n      0x00\n        /* \"#utility.yul\":5885:5900   */\n      revert\n        /* \"#utility.yul\":5912:6232   */\n    tag_17:\n        /* \"#utility.yul\":5956:5962   */\n      0x00\n        /* \"#utility.yul\":5993:5994   */\n      0x02\n        /* \"#utility.yul\":5987:5991   */\n      dup3\n        /* \"#utility.yul\":5983:5995   */\n      div\n        /* \"#utility.yul\":5973:5995   */\n      swap1\n      pop\n        /* \"#utility.yul\":6040:6041   */\n      0x01\n        /* \"#utility.yul\":6034:6038   */\n      dup3\n        /* \"#utility.yul\":6030:6042   */\n      and\n        /* \"#utility.yul\":6061:6079   */\n      dup1\n        /* \"#utility.yul\":6051:6132   */\n      tag_151\n      jumpi\n        /* \"#utility.yul\":6117:6121   */\n      0x7f\n        /* \"#utility.yul\":6109:6115   */\n      dup3\n        /* \"#utility.yul\":6105:6122   */\n      and\n        /* \"#utility.yul\":6095:6122   */\n      swap2\n      pop\n        /* \"#utility.yul\":6051:6132   */\n    tag_151:\n        /* \"#utility.yul\":6179:6181   */\n      0x20\n        /* \"#utility.yul\":6171:6177   */\n      dup3\n        /* \"#utility.yul\":6168:6182   */\n      lt\n        /* \"#utility.yul\":6148:6166   */\n      dup2\n        /* \"#utility.yul\":6145:6183   */\n      sub\n        /* \"#utility.yul\":6142:6226   */\n      tag_152\n      jumpi\n        /* \"#utility.yul\":6198:6216   */\n      tag_153\n      tag_64\n      jump\t// in\n    tag_153:\n        /* \"#utility.yul\":6142:6226   */\n    tag_152:\n        /* \"#utility.yul\":5963:6232   */\n      pop\n        /* \"#utility.yul\":5912:6232   */\n      swap2\n      swap1\n      pop\n      jump\t// out\n        /* \"#utility.yul\":6238:6409   */\n    tag_65:\n        /* \"#utility.yul\":6378:6401   */\n      0x566f74657220616c726561647920657869737473210000000000000000000000\n        /* \"#utility.yul\":6374:6375   */\n      0x00\n        /* \"#utility.yul\":6366:6372   */\n      dup3\n        /* \"#utility.yul\":6362:6376   */\n      add\n        /* \"#utility.yul\":6355:6402   */\n      mstore\n        /* \"#utility.yul\":6238:6409   */\n      pop\n      jump\t// out\n        /* \"#utility.yul\":6415:6781   */\n    tag_66:\n        /* \"#utility.yul\":6557:6560   */\n      0x00\n        /* \"#utility.yul\":6578:6645   */\n      tag_156\n        /* \"#utility.yul\":6642:6644   */\n      0x15\n        /* \"#utility.yul\":6637:6640   */\n      dup4\n        /* \"#utility.yul\":6578:6645   */\n      tag_59\n      jump\t// in\n    tag_156:\n        /* \"#utility.yul\":6571:6645   */\n      swap2\n      pop\n        /* \"#utility.yul\":6654:6747   */\n      tag_157\n        /* \"#utility.yul\":6743:6746   */\n      dup3\n        /* \"#utility.yul\":6654:6747   */\n      tag_65\n      jump\t// in\n    tag_157:\n        /* \"#utility.yul\":6772:6774   */\n      0x20\n        /* \"#utility.yul\":6767:6770   */\n      dup3\n        /* \"#utility.yul\":6763:6775   */\n      add\n        /* \"#utility.yul\":6756:6775   */\n      swap1\n      pop\n        /* \"#utility.yul\":6415:6781   */\n      swap2\n      swap1\n      pop\n      jump\t// out\n        /* \"#utility.yul\":6787:7206   */\n    tag_20:\n        /* \"#utility.yul\":6953:6957   */\n      0x00\n        /* \"#utility.yul\":6991:6993   */\n      0x20\n        /* \"#utility.yul\":6980:6989   */\n      dup3\n        /* \"#utility.yul\":6976:6994   */\n      add\n        /* \"#utility.yul\":6968:6994   */\n      swap1\n      pop\n        /* \"#utility.yul\":7040:7049   */\n      dup2\n        /* \"#utility.yul\":7034:7038   */\n      dup2\n        /* \"#utility.yul\":7030:7050   */\n      sub\n        /* \"#utility.yul\":7026:7027   */\n      0x00\n        /* \"#utility.yul\":7015:7024   */\n      dup4\n        /* \"#utility.yul\":7011:7028   */\n      add\n        /* \"#utility.yul\":7004:7051   */\n      mstore\n        /* \"#utility.yul\":7068:7199   */\n      tag_159\n        /* \"#utility.yul\":7194:7198   */\n      dup2\n        /* \"#utility.yul\":7068:7199   */\n      tag_66\n      jump\t// in\n    tag_159:\n        /* \"#utility.yul\":7060:7199   */\n      swap1\n      pop\n        /* \"#utility.yul\":6787:7206   */\n      swap2\n      swap1\n      pop\n      jump\t// out\n        /* \"#utility.yul\":7212:7353   */\n    tag_67:\n        /* \"#utility.yul\":7261:7265   */\n      0x00\n        /* \"#utility.yul\":7284:7287   */\n      dup2\n        /* \"#utility.yul\":7276:7287   */\n      swap1\n      pop\n        /* \"#utility.yul\":7307:7310   */\n      dup2\n        /* \"#utility.yul\":7304:7305   */\n      0x00\n        /* \"#utility.yul\":7297:7311   */\n      mstore\n        /* \"#utility.yul\":7341:7345   */\n      0x20\n        /* \"#utility.yul\":7338:7339   */\n      0x00\n        /* \"#utility.yul\":7328:7346   */\n      keccak256\n        /* \"#utility.yul\":7320:7346   */\n      swap1\n      pop\n        /* \"#utility.yul\":7212:7353   */\n      swap2\n      swap1\n      pop\n      jump\t// out\n        /* \"#utility.yul\":7359:7452   */\n    tag_68:\n        /* \"#utility.yul\":7396:7402   */\n      0x00\n        /* \"#utility.yul\":7443:7445   */\n      0x20\n        /* \"#utility.yul\":7438:7440   */\n      0x1f\n        /* \"#utility.yul\":7431:7436   */\n      dup4\n        /* \"#utility.yul\":7427:7441   */\n      add\n        /* \"#utility.yul\":7423:7446   */\n      div\n        /* \"#utility.yul\":7413:7446   */\n      swap1\n      pop\n        /* \"#utility.yul\":7359:7452   */\n      swap2\n      swap1\n      pop\n      jump\t// out\n        /* \"#utility.yul\":7458:7565   */\n    tag_69:\n        /* \"#utility.yul\":7502:7510   */\n      0x00\n        /* \"#utility.yul\":7552:7557   */\n      dup3\n        /* \"#utility.yul\":7546:7550   */\n      dup3\n        /* \"#utility.yul\":7542:7558   */\n      shl\n        /* \"#utility.yul\":7521:7558   */\n      swap1\n      pop\n        /* \"#utility.yul\":7458:7565   */\n      swap3\n      swap2\n      pop\n      pop\n      jump\t// out\n        /* \"#utility.yul\":7571:7964   */\n    tag_70:\n        /* \"#utility.yul\":7640:7646   */\n      0x00\n        /* \"#utility.yul\":7690:7691   */\n      0x08\n        /* \"#utility.yul\":7678:7688   */\n      dup4\n        /* \"#utility.yul\":7674:7692   */\n      mul\n        /* \"#utility.yul\":7713:7810   */\n      tag_164\n        /* \"#utility.yul\":7743:7809   */\n      0xffffffffffffffffffffffffffffffffffffffffffffffffffffffffffffffff\n        /* \"#utility.yul\":7732:7741   */\n      dup3\n        /* \"#utility.yul\":7713:7810   */\n      tag_69\n      jump\t// in\n    tag_164:\n        /* \"#utility.yul\":7831:7870   */\n      tag_165\n        /* \"#utility.yul\":7861:7869   */\n      dup7\n        /* \"#utility.yul\":7850:7859   */\n      dup4\n        /* \"#utility.yul\":7831:7870   */\n      tag_69\n      jump\t// in\n    tag_165:\n        /* \"#utility.yul\":7819:7870   */\n      swap6\n      pop\n        /* \"#utility.yul\":7903:7907   */\n      dup1\n        /* \"#utility.yul\":7899:7908   */\n      not\n        /* \"#utility.yul\":7892:7897   */\n      dup5\n        /* \"#utility.yul\":7888:7909   */\n      and\n        /* \"#utility.yul\":7879:7909   */\n      swap4\n      pop\n        /* \"#utility.yul\":7952:7956   */\n      dup1\n        /* \"#utility.yul\":7942:7950   */\n      dup7\n        /* \"#utility.yul\":7938:7957   */\n      and\n        /* \"#utility.yul\":7931:7936   */\n      dup5\n        /* \"#utility.yul\":7928:7958   */\n      or\n        /* \"#utility.yul\":7918:7958   */\n      swap3\n      pop\n        /* \"#utility.yul\":7647:7964   */\n      pop\n      pop\n        /* \"#utility.yul\":7571:7964   */\n      swap4\n      swap3\n      pop\n      pop\n      pop\n      jump\t// out\n        /* \"#utility.yul\":7970:8030   */\n    tag_71:\n        /* \"#utility.yul\":7998:8001   */\n      0x00\n        /* \"#utility.yul\":8019:8024   */\n      dup2\n        /* \"#utility.yul\":8012:8024   */\n      swap1\n      pop\n        /* \"#utility.yul\":7970:8030   */\n      swap2\n      swap1\n      pop\n      jump\t// out\n        /* \"#utility.yul\":8036:8178   */\n    tag_72:\n        /* \"#utility.yul\":8086:8095   */\n      0x00\n        /* \"#utility.yul\":8119:8172   */\n      tag_168\n        /* \"#utility.yul\":8137:8171   */\n      tag_169\n        /* \"#utility.yul\":8146:8170   */\n      tag_170\n        /* \"#utility.yul\":8164:8169   */\n      dup5\n        /* \"#utility.yul\":8146:8170   */\n      tag_55\n      jump\t// in\n    tag_170:\n        /* \"#utility.yul\":8137:8171   */\n      tag_71\n      jump\t// in\n    tag_169:\n        /* \"#utility.yul\":8119:8172   */\n      tag_55\n      jump\t// in\n    tag_168:\n        /* \"#utility.yul\":8106:8172   */\n      swap1\n      pop\n        /* \"#utility.yul\":8036:8178   */\n      swap2\n      swap1\n      pop\n      jump\t// out\n        /* \"#utility.yul\":8184:8259   */\n    tag_73:\n        /* \"#utility.yul\":8227:8230   */\n      0x00\n        /* \"#utility.yul\":8248:8253   */\n      dup2\n        /* \"#utility.yul\":8241:8253   */\n      swap1\n      pop\n        /* \"#utility.yul\":8184:8259   */\n      swap2\n      swap1\n      pop\n      jump\t// out\n        /* \"#utility.yul\":8265:8534   */\n    tag_74:\n        /* \"#utility.yul\":8375:8414   */\n      tag_173\n        /* \"#utility.yul\":8406:8413   */\n      dup4\n        /* \"#utility.yul\":8375:8414   */\n      tag_72\n      jump\t// in\n    tag_173:\n        /* \"#utility.yul\":8436:8527   */\n      tag_174\n        /* \"#utility.yul\":8485:8526   */\n      tag_175\n        /* \"#utility.yul\":8509:8525   */\n      dup3\n        /* \"#utility.yul\":8485:8526   */\n      tag_73\n      jump\t// in\n    tag_175:\n        /* \"#utility.yul\":8477:8483   */\n      dup5\n        /* \"#utility.yul\":8470:8474   */\n      dup5\n        /* \"#utility.yul\":8464:8475   */\n      sload\n        /* \"#utility.yul\":8436:8527   */\n      tag_70\n      jump\t// in\n    tag_174:\n        /* \"#utility.yul\":8430:8434   */\n      dup3\n        /* \"#utility.yul\":8423:8528   */\n      sstore\n        /* \"#utility.yul\":8341:8534   */\n      pop\n        /* \"#utility.yul\":8265:8534   */\n      pop\n      pop\n      pop\n      jump\t// out\n        /* \"#utility.yul\":8540:8613   */\n    tag_75:\n        /* \"#utility.yul\":8585:8588   */\n      0x00\n        /* \"#utility.yul\":8540:8613   */\n      swap1\n      jump\t// out\n        /* \"#utility.yul\":8619:8808   */\n    tag_76:\n        /* \"#utility.yul\":8696:8728   */\n      tag_178\n      tag_75\n      jump\t// in\n    tag_178:\n        /* \"#utility.yul\":8737:8802   */\n      tag_179\n        /* \"#utility.yul\":8795:8801   */\n      dup2\n        /* \"#utility.yul\":8787:8793   */\n      dup5\n        /* \"#utility.yul\":8781:8785   */\n      dup5\n        /* \"#utility.yul\":8737:8802   */\n      tag_74\n      jump\t// in\n    tag_179:\n        /* \"#utility.yul\":8672:8808   */\n      pop\n        /* \"#utility.yul\":8619:8808   */\n      pop\n      pop\n      jump\t// out\n        /* \"#utility.yul\":8814:9000   */\n    tag_77:\n        /* \"#utility.yul\":8874:8994   */\n    tag_181:\n        /* \"#utility.yul\":8891:8894   */\n      dup2\n        /* \"#utility.yul\":8884:8889   */\n      dup2\n        /* \"#utility.yul\":8881:8895   */\n      lt\n        /* \"#utility.yul\":8874:8994   */\n      iszero\n      tag_183\n      jumpi\n        /* \"#utility.yul\":8945:8984   */\n      tag_184\n        /* \"#utility.yul\":8982:8983   */\n      0x00\n        /* \"#utility.yul\":8975:8980   */\n      dup3\n        /* \"#utility.yul\":8945:8984   */\n      tag_76\n      jump\t// in\n    tag_184:\n        /* \"#utility.yul\":8918:8919   */\n      0x01\n        /* \"#utility.yul\":8911:8916   */\n      dup2\n        /* \"#utility.yul\":8907:8920   */\n      add\n        /* \"#utility.yul\":8898:8920   */\n      swap1\n      pop\n        /* \"#utility.yul\":8874:8994   */\n      jump(tag_181)\n    tag_183:\n        /* \"#utility.yul\":8814:9000   */\n      pop\n      pop\n      jump\t// out\n        /* \"#utility.yul\":9006:9549   */\n    tag_78:\n        /* \"#utility.yul\":9107:9109   */\n      0x1f\n        /* \"#utility.yul\":9102:9105   */\n      dup3\n        /* \"#utility.yul\":9099:9110   */\n      gt\n        /* \"#utility.yul\":9096:9542   */\n      iszero\n      tag_186\n      jumpi\n        /* \"#utility.yul\":9141:9179   */\n      tag_187\n        /* \"#utility.yul\":9173:9178   */\n      dup2\n        /* \"#utility.yul\":9141:9179   */\n      tag_67\n      jump\t// in\n    tag_187:\n        /* \"#utility.yul\":9225:9254   */\n      tag_188\n        /* \"#utility.yul\":9243:9253   */\n      dup5\n        /* \"#utility.yul\":9225:9254   */\n      tag_68\n      jump\t// in\n    tag_188:\n        /* \"#utility.yul\":9215:9223   */\n      dup2\n        /* \"#utility.yul\":9211:9255   */\n      add\n        /* \"#utility.yul\":9408:9410   */\n      0x20\n        /* \"#utility.yul\":9396:9406   */\n      dup6\n        /* \"#utility.yul\":9393:9411   */\n      lt\n        /* \"#utility.yul\":9390:9439   */\n      iszero\n      tag_189\n      jumpi\n        /* \"#utility.yul\":9429:9437   */\n      dup2\n        /* \"#utility.yul\":9414:9437   */\n      swap1\n      pop\n        /* \"#utility.yul\":9390:9439   */\n    tag_189:\n        /* \"#utility.yul\":9452:9532   */\n      tag_190\n        /* \"#utility.yul\":9508:9530   */\n      tag_191\n        /* \"#utility.yul\":9526:9529   */\n      dup6\n        /* \"#utility.yul\":9508:9530   */\n      tag_68\n      jump\t// in\n    tag_191:\n        /* \"#utility.yul\":9498:9506   */\n      dup4\n        /* \"#utility.yul\":9494:9531   */\n      add\n        /* \"#utility.yul\":9481:9492   */\n      dup3\n        /* \"#utility.yul\":9452:9532   */\n      tag_77\n      jump\t// in\n    tag_190:\n        /* \"#utility.yul\":9111:9542   */\n      pop\n      pop\n        /* \"#utility.yul\":9096:9542   */\n    tag_186:\n        /* \"#utility.yul\":9006:9549   */\n      pop\n      pop\n      pop\n      jump\t// out\n        /* \"#utility.yul\":9555:9672   */\n    tag_79:\n        /* \"#utility.yul\":9609:9617   */\n      0x00\n        /* \"#utility.yul\":9659:9664   */\n      dup3\n        /* \"#utility.yul\":9653:9657   */\n      dup3\n        /* \"#utility.yul\":9649:9665   */\n      shr\n        /* \"#utility.yul\":9628:9665   */\n      swap1\n      pop\n        /* \"#utility.yul\":9555:9672   */\n      swap3\n      swap2\n      pop\n      pop\n      jump\t// out\n        /* \"#utility.yul\":9678:9847   */\n    tag_80:\n        /* \"#utility.yul\":9722:9728   */\n      0x00\n        /* \"#utility.yul\":9755:9806   */\n      tag_194\n        /* \"#utility.yul\":9803:9804   */\n      0x00\n        /* \"#utility.yul\":9799:9805   */\n      not\n        /* \"#utility.yul\":9791:9796   */\n      dup5\n        /* \"#utility.yul\":9788:9789   */\n      0x08\n        /* \"#utility.yul\":9784:9797   */\n      mul\n        /* \"#utility.yul\":9755:9806   */\n      tag_79\n      jump\t// in\n    tag_194:\n        /* \"#utility.yul\":9751:9807   */\n      not\n        /* \"#utility.yul\":9836:9840   */\n      dup1\n        /* \"#utility.yul\":9830:9834   */\n      dup4\n        /* \"#utility.yul\":9826:9841   */\n      and\n        /* \"#utility.yul\":9816:9841   */\n      swap2\n      pop\n        /* \"#utility.yul\":9729:9847   */\n      pop\n        /* \"#utility.yul\":9678:9847   */\n      swap3\n      swap2\n      pop\n      pop\n      jump\t// out\n        /* \"#utility.yul\":9852:10147   */\n    tag_81:\n        /* \"#utility.yul\":9928:9932   */\n      0x00\n        /* \"#utility.yul\":10074:10103   */\n      tag_196\n        /* \"#utility.yul\":10099:10102   */\n      dup4\n        /* \"#utility.yul\":10093:10097   */\n      dup4\n        /* \"#utility.yul\":10074:10103   */\n      tag_80\n      jump\t// in\n    tag_196:\n        /* \"#utility.yul\":10066:10103   */\n      swap2\n      pop\n        /* \"#utility.yul\":10136:10139   */\n      dup3\n        /* \"#utility.yul\":10133:10134   */\n      0x02\n        /* \"#utility.yul\":10129:10140   */\n      mul\n        /* \"#utility.yul\":10123:10127   */\n      dup3\n        /* \"#utility.yul\":10120:10141   */\n      or\n        /* \"#utility.yul\":10112:10141   */\n      swap1\n      pop\n        /* \"#utility.yul\":9852:10147   */\n      swap3\n      swap2\n      pop\n      pop\n      jump\t// out\n        /* \"#utility.yul\":10152:11547   */\n    tag_23:\n        /* \"#utility.yul\":10269:10306   */\n      tag_198\n        /* \"#utility.yul\":10302:10305   */\n      dup3\n        /* \"#utility.yul\":10269:10306   */\n      tag_58\n      jump\t// in\n    tag_198:\n        /* \"#utility.yul\":10371:10389   */\n      0xffffffffffffffff\n        /* \"#utility.yul\":10363:10369   */\n      dup2\n        /* \"#utility.yul\":10360:10390   */\n      gt\n        /* \"#utility.yul\":10357:10413   */\n      iszero\n      tag_199\n      jumpi\n        /* \"#utility.yul\":10393:10411   */\n      tag_200\n      tag_48\n      jump\t// in\n    tag_200:\n        /* \"#utility.yul\":10357:10413   */\n    tag_199:\n        /* \"#utility.yul\":10437:10475   */\n      tag_201\n        /* \"#utility.yul\":10469:10473   */\n      dup3\n        /* \"#utility.yul\":10463:10474   */\n      sload\n        /* \"#utility.yul\":10437:10475   */\n      tag_17\n      jump\t// in\n    tag_201:\n        /* \"#utility.yul\":10522:10589   */\n      tag_202\n        /* \"#utility.yul\":10582:10588   */\n      dup3\n        /* \"#utility.yul\":10574:10580   */\n      dup3\n        /* \"#utility.yul\":10568:10572   */\n      dup6\n        /* \"#utility.yul\":10522:10589   */\n      tag_78\n      jump\t// in\n    tag_202:\n        /* \"#utility.yul\":10616:10617   */\n      0x00\n        /* \"#utility.yul\":10640:10644   */\n      0x20\n        /* \"#utility.yul\":10627:10644   */\n      swap1\n      pop\n        /* \"#utility.yul\":10672:10674   */\n      0x1f\n        /* \"#utility.yul\":10664:10670   */\n      dup4\n        /* \"#utility.yul\":10661:10675   */\n      gt\n        /* \"#utility.yul\":10689:10690   */\n      0x01\n        /* \"#utility.yul\":10684:11302   */\n      dup2\n      eq\n      tag_204\n      jumpi\n        /* \"#utility.yul\":11346:11347   */\n      0x00\n        /* \"#utility.yul\":11363:11369   */\n      dup5\n        /* \"#utility.yul\":11360:11437   */\n      iszero\n      tag_205\n      jumpi\n        /* \"#utility.yul\":11412:11421   */\n      dup3\n        /* \"#utility.yul\":11407:11410   */\n      dup8\n        /* \"#utility.yul\":11403:11422   */\n      add\n        /* \"#utility.yul\":11397:11423   */\n      mload\n        /* \"#utility.yul\":11388:11423   */\n      swap1\n      pop\n        /* \"#utility.yul\":11360:11437   */\n    tag_205:\n        /* \"#utility.yul\":11463:11530   */\n      tag_206\n        /* \"#utility.yul\":11523:11529   */\n      dup6\n        /* \"#utility.yul\":11516:11521   */\n      dup3\n        /* \"#utility.yul\":11463:11530   */\n      tag_81\n      jump\t// in\n    tag_206:\n        /* \"#utility.yul\":11457:11461   */\n      dup7\n        /* \"#utility.yul\":11450:11531   */\n      sstore\n        /* \"#utility.yul\":11319:11541   */\n      pop\n        /* \"#utility.yul\":10654:11541   */\n      jump(tag_203)\n        /* \"#utility.yul\":10684:11302   */\n    tag_204:\n        /* \"#utility.yul\":10736:10740   */\n      0x1f\n        /* \"#utility.yul\":10732:10741   */\n      not\n        /* \"#utility.yul\":10724:10730   */\n      dup5\n        /* \"#utility.yul\":10720:10742   */\n      and\n        /* \"#utility.yul\":10770:10807   */\n      tag_207\n        /* \"#utility.yul\":10802:10806   */\n      dup7\n        /* \"#utility.yul\":10770:10807   */\n      tag_67\n      jump\t// in\n    tag_207:\n        /* \"#utility.yul\":10829:10830   */\n      0x00\n        /* \"#utility.yul\":10843:11051   */\n    tag_208:\n        /* \"#utility.yul\":10857:10864   */\n      dup3\n        /* \"#utility.yul\":10854:10855   */\n      dup2\n        /* \"#utility.yul\":10851:10865   */\n      lt\n        /* \"#utility.yul\":10843:11051   */\n      iszero\n      tag_210\n      jumpi\n        /* \"#utility.yul\":10936:10945   */\n      dup5\n        /* \"#utility.yul\":10931:10934   */\n      dup10\n        /* \"#utility.yul\":10927:10946   */\n      add\n        /* \"#utility.yul\":10921:10947   */\n      mload\n        /* \"#utility.yul\":10913:10919   */\n      dup3\n        /* \"#utility.yul\":10906:10948   */\n      sstore\n        /* \"#utility.yul\":10987:10988   */\n      0x01\n        /* \"#utility.yul\":10979:10985   */\n      dup3\n        /* \"#utility.yul\":10975:10989   */\n      add\n        /* \"#utility.yul\":10965:10989   */\n      swap2\n      pop\n        /* \"#utility.yul\":11034:11036   */\n      0x20\n        /* \"#utility.yul\":11023:11032   */\n      dup6\n        /* \"#utility.yul\":11019:11037   */\n      add\n        /* \"#utility.yul\":11006:11037   */\n      swap5\n      pop\n        /* \"#utility.yul\":10880:10884   */\n      0x20\n        /* \"#utility.yul\":10877:10878   */\n      dup2\n        /* \"#utility.yul\":10873:10885   */\n      add\n        /* \"#utility.yul\":10868:10885   */\n      swap1\n      pop\n        /* \"#utility.yul\":10843:11051   */\n      jump(tag_208)\n    tag_210:\n        /* \"#utility.yul\":11079:11085   */\n      dup7\n        /* \"#utility.yul\":11070:11077   */\n      dup4\n        /* \"#utility.yul\":11067:11086   */\n      lt\n        /* \"#utility.yul\":11064:11243   */\n      iszero\n      tag_211\n      jumpi\n        /* \"#utility.yul\":11137:11146   */\n      dup5\n        /* \"#utility.yul\":11132:11135   */\n      dup10\n        /* \"#utility.yul\":11128:11147   */\n      add\n        /* \"#utility.yul\":11122:11148   */\n      mload\n        /* \"#utility.yul\":11180:11228   */\n      tag_212\n        /* \"#utility.yul\":11222:11226   */\n      0x1f\n        /* \"#utility.yul\":11214:11220   */\n      dup10\n        /* \"#utility.yul\":11210:11227   */\n      and\n        /* \"#utility.yul\":11199:11208   */\n      dup3\n        /* \"#utility.yul\":11180:11228   */\n      tag_80\n      jump\t// in\n    tag_212:\n        /* \"#utility.yul\":11172:11178   */\n      dup4\n        /* \"#utility.yul\":11165:11229   */\n      sstore\n        /* \"#utility.yul\":11087:11243   */\n      pop\n        /* \"#utility.yul\":11064:11243   */\n    tag_211:\n        /* \"#utility.yul\":11289:11290   */\n      0x01\n        /* \"#utility.yul\":11285:11286   */\n      0x02\n        /* \"#utility.yul\":11277:11283   */\n      dup9\n        /* \"#utility.yul\":11273:11287   */\n      mul\n        /* \"#utility.yul\":11269:11291   */\n      add\n        /* \"#utility.yul\":11263:11267   */\n      dup9\n        /* \"#utility.yul\":11256:11292   */\n      sstore\n        /* \"#utility.yul\":10691:11302   */\n      pop\n      pop\n      pop\n        /* \"#utility.yul\":10654:11541   */\n    tag_203:\n      pop\n        /* \"#utility.yul\":10244:11547   */\n      pop\n      pop\n      pop\n        /* \"#utility.yul\":10152:11547   */\n      pop\n      pop\n      jump\t// out\n        /* \"#utility.yul\":11553:11733   */\n    tag_82:\n        /* \"#utility.yul\":11601:11678   */\n      0x4e487b7100000000000000000000000000000000000000000000000000000000\n        /* \"#utility.yul\":11598:11599   */\n      0x00\n        /* \"#utility.yul\":11591:11679   */\n      mstore\n        /* \"#utility.yul\":11698:11702   */\n      0x11\n        /* \"#utility.yul\":11695:11696   */\n      0x04\n        /* \"#utility.yul\":11688:11703   */\n      mstore\n        /* \"#utility.yul\":11722:11726   */\n      0x24\n        /* \"#utility.yul\":11719:11720   */\n      0x00\n        /* \"#utility.yul\":11712:11727   */\n      revert\n        /* \"#utility.yul\":11739:11933   */\n    tag_26:\n        /* \"#utility.yul\":11779:11783   */\n      0x00\n        /* \"#utility.yul\":11799:11819   */\n      tag_215\n        /* \"#utility.yul\":11817:11818   */\n      dup3\n        /* \"#utility.yul\":11799:11819   */\n      tag_55\n      jump\t// in\n    tag_215:\n        /* \"#utility.yul\":11794:11819   */\n      swap2\n      pop\n        /* \"#utility.yul\":11833:11853   */\n      tag_216\n        /* \"#utility.yul\":11851:11852   */\n      dup4\n        /* \"#utility.yul\":11833:11853   */\n      tag_55\n      jump\t// in\n    tag_216:\n        /* \"#utility.yul\":11828:11853   */\n      swap3\n      pop\n        /* \"#utility.yul\":11877:11878   */\n      dup3\n        /* \"#utility.yul\":11874:11875   */\n      dup3\n        /* \"#utility.yul\":11870:11879   */\n      sub\n        /* \"#utility.yul\":11862:11879   */\n      swap1\n      pop\n        /* \"#utility.yul\":11901:11902   */\n      dup2\n        /* \"#utility.yul\":11895:11899   */\n      dup2\n        /* \"#utility.yul\":11892:11903   */\n      gt\n        /* \"#utility.yul\":11889:11926   */\n      iszero\n      tag_217\n      jumpi\n        /* \"#utility.yul\":11906:11924   */\n      tag_218\n      tag_82\n      jump\t// in\n    tag_218:\n        /* \"#utility.yul\":11889:11926   */\n    tag_217:\n        /* \"#utility.yul\":11739:11933   */\n      swap3\n      swap2\n      pop\n      pop\n      jump\t// out\n        /* \"#utility.yul\":11939:12087   */\n    tag_83:\n        /* \"#utility.yul\":12041:12052   */\n      0x00\n        /* \"#utility.yul\":12078:12081   */\n      dup2\n        /* \"#utility.yul\":12063:12081   */\n      swap1\n      pop\n        /* \"#utility.yul\":11939:12087   */\n      swap3\n      swap2\n      pop\n      pop\n      jump\t// out\n        /* \"#utility.yul\":12093:12483   */\n    tag_84:\n        /* \"#utility.yul\":12199:12202   */\n      0x00\n        /* \"#utility.yul\":12227:12266   */\n      tag_221\n        /* \"#utility.yul\":12260:12265   */\n      dup3\n        /* \"#utility.yul\":12227:12266   */\n      tag_58\n      jump\t// in\n    tag_221:\n        /* \"#utility.yul\":12282:12371   */\n      tag_222\n        /* \"#utility.yul\":12364:12370   */\n      dup2\n        /* \"#utility.yul\":12359:12362   */\n      dup6\n        /* \"#utility.yul\":12282:12371   */\n      tag_83\n      jump\t// in\n    tag_222:\n        /* \"#utility.yul\":12275:12371   */\n      swap4\n      pop\n        /* \"#utility.yul\":12380:12445   */\n      tag_223\n        /* \"#utility.yul\":12438:12444   */\n      dup2\n        /* \"#utility.yul\":12433:12436   */\n      dup6\n        /* \"#utility.yul\":12426:12430   */\n      0x20\n        /* \"#utility.yul\":12419:12424   */\n      dup7\n        /* \"#utility.yul\":12415:12431   */\n      add\n        /* \"#utility.yul\":12380:12445   */\n      tag_60\n      jump\t// in\n    tag_223:\n        /* \"#utility.yul\":12470:12476   */\n      dup1\n        /* \"#utility.yul\":12465:12468   */\n      dup5\n        /* \"#utility.yul\":12461:12477   */\n      add\n        /* \"#utility.yul\":12454:12477   */\n      swap2\n      pop\n        /* \"#utility.yul\":12203:12483   */\n      pop\n        /* \"#utility.yul\":12093:12483   */\n      swap3\n      swap2\n      pop\n      pop\n      jump\t// out\n        /* \"#utility.yul\":12489:12764   */\n    tag_28:\n        /* \"#utility.yul\":12621:12624   */\n      0x00\n        /* \"#utility.yul\":12643:12738   */\n      tag_225\n        /* \"#utility.yul\":12734:12737   */\n      dup3\n        /* \"#utility.yul\":12725:12731   */\n      dup5\n        /* \"#utility.yul\":12643:12738   */\n      tag_84\n      jump\t// in\n    tag_225:\n        /* \"#utility.yul\":12636:12738   */\n      swap2\n      pop\n        /* \"#utility.yul\":12755:12758   */\n      dup2\n        /* \"#utility.yul\":12748:12758   */\n      swap1\n      pop\n        /* \"#utility.yul\":12489:12764   */\n      swap3\n      swap2\n      pop\n      pop\n      jump\t// out\n\n    auxdata: 0xa26469706673582212200293ef676919c7645385b3076b8b4a2246e9668b38a2effca514989bbbbcdb0d64736f6c634300081a0033\n}\n",
				"bytecode": {
					"linkReferences": {},
					"object": "6080604052348015600e575f80fd5b50610a668061001c5f395ff3fe608060405234801561000f575f80fd5b5060043610610034575f3560e01c8063961e580014610038578063da58c7d914610054575b5f80fd5b610052600480360381019061004d91906104bd565b610086565b005b61006e60048036038101906100699190610566565b610224565b60405161007d9392919061060c565b60405180910390f35b5f60025f3373ffffffffffffffffffffffffffffffffffffffff1673ffffffffffffffffffffffffffffffffffffffff1681526020019081526020015f2080546100cf9061067c565b905014610111576040517f08c379a0000000000000000000000000000000000000000000000000000000008152600401610108906106f6565b60405180910390fd5b5f60405180606001604052808481526020018381526020015f60ff16815250908060018154018082558091505060019003905f5260205f2090600302015f909190919091505f820151815f01908161016991906108b1565b50602082015181600101908161017f91906108b1565b506040820151816002015f6101000a81548160ff021916908360ff160217905550505060015f805490506101b391906109ad565b6001826040516101c39190610a1a565b9081526020016040518091039020819055508060025f3373ffffffffffffffffffffffffffffffffffffffff1673ffffffffffffffffffffffffffffffffffffffff1681526020019081526020015f20908161021f91906108b1565b505050565b5f8181548110610232575f80fd5b905f5260205f2090600302015f91509050805f0180546102519061067c565b80601f016020809104026020016040519081016040528092919081815260200182805461027d9061067c565b80156102c85780601f1061029f576101008083540402835291602001916102c8565b820191905f5260205f20905b8154815290600101906020018083116102ab57829003601f168201915b5050505050908060010180546102dd9061067c565b80601f01602080910402602001604051908101604052809291908181526020018280546103099061067c565b80156103545780601f1061032b57610100808354040283529160200191610354565b820191905f5260205f20905b81548152906001019060200180831161033757829003601f168201915b505050505090806002015f9054906101000a900460ff16905083565b5f604051905090565b5f80fd5b5f80fd5b5f80fd5b5f80fd5b5f601f19601f8301169050919050565b7f4e487b71000000000000000000000000000000000000000000000000000000005f52604160045260245ffd5b6103cf82610389565b810181811067ffffffffffffffff821117156103ee576103ed610399565b5b80604052505050565b5f610400610370565b905061040c82826103c6565b919050565b5f67ffffffffffffffff82111561042b5761042a610399565b5b61043482610389565b9050602081019050919050565b828183375f83830152505050565b5f61046161045c84610411565b6103f7565b90508281526020810184848401111561047d5761047c610385565b5b610488848285610441565b509392505050565b5f82601f8301126104a4576104a3610381565b5b81356104b484826020860161044f565b91505092915050565b5f80604083850312156104d3576104d2610379565b5b5f83013567ffffffffffffffff8111156104f0576104ef61037d565b5b6104fc85828601610490565b925050602083013567ffffffffffffffff81111561051d5761051c61037d565b5b61052985828601610490565b9150509250929050565b5f819050919050565b61054581610533565b811461054f575f80fd5b50565b5f813590506105608161053c565b92915050565b5f6020828403121561057b5761057a610379565b5b5f61058884828501610552565b91505092915050565b5f81519050919050565b5f82825260208201905092915050565b8281835e5f83830152505050565b5f6105c382610591565b6105cd818561059b565b93506105dd8185602086016105ab565b6105e681610389565b840191505092915050565b5f60ff82169050919050565b610606816105f1565b82525050565b5f6060820190508181035f83015261062481866105b9565b9050818103602083015261063881856105b9565b905061064760408301846105fd565b949350505050565b7f4e487b71000000000000000000000000000000000000000000000000000000005f52602260045260245ffd5b5f600282049050600182168061069357607f821691505b6020821081036106a6576106a561064f565b5b50919050565b7f566f74657220616c7265616479206578697374732100000000000000000000005f82015250565b5f6106e060158361059b565b91506106eb826106ac565b602082019050919050565b5f6020820190508181035f83015261070d816106d4565b9050919050565b5f819050815f5260205f209050919050565b5f6020601f8301049050919050565b5f82821b905092915050565b5f600883026107707fffffffffffffffffffffffffffffffffffffffffffffffffffffffffffffffff82610735565b61077a8683610735565b95508019841693508086168417925050509392505050565b5f819050919050565b5f6107b56107b06107ab84610533565b610792565b610533565b9050919050565b5f819050919050565b6107ce8361079b565b6107e26107da826107bc565b848454610741565b825550505050565b5f90565b6107f66107ea565b6108018184846107c5565b505050565b5b81811015610824576108195f826107ee565b600181019050610807565b5050565b601f8211156108695761083a81610714565b61084384610726565b81016020851015610852578190505b61086661085e85610726565b830182610806565b50505b505050565b5f82821c905092915050565b5f6108895f198460080261086e565b1980831691505092915050565b5f6108a1838361087a565b9150826002028217905092915050565b6108ba82610591565b67ffffffffffffffff8111156108d3576108d2610399565b5b6108dd825461067c565b6108e8828285610828565b5f60209050601f831160018114610919575f8415610907578287015190505b6109118582610896565b865550610978565b601f19841661092786610714565b5f5b8281101561094e57848901518255600182019150602085019450602081019050610929565b8683101561096b5784890151610967601f89168261087a565b8355505b6001600288020188555050505b505050505050565b7f4e487b71000000000000000000000000000000000000000000000000000000005f52601160045260245ffd5b5f6109b782610533565b91506109c283610533565b92508282039050818111156109da576109d9610980565b5b92915050565b5f81905092915050565b5f6109f482610591565b6109fe81856109e0565b9350610a0e8185602086016105ab565b80840191505092915050565b5f610a2582846109ea565b91508190509291505056fea26469706673582212200293ef676919c7645385b3076b8b4a2246e9668b38a2effca514989bbbbcdb0d64736f6c634300081a0033",
					"opcodes": "PUSH1 0x80 PUSH1 0x40 MSTORE CALLVALUE DUP1 ISZERO PUSH1 0xE JUMPI PUSH0 DUP1 REVERT JUMPDEST POP PUSH2 0xA66 DUP1 PUSH2 0x1C PUSH0 CODECOPY PUSH0 RETURN INVALID PUSH1 0x80 PUSH1 0x40 MSTORE CALLVALUE DUP1 ISZERO PUSH2 0xF JUMPI PUSH0 DUP1 REVERT JUMPDEST POP PUSH1 0x4 CALLDATASIZE LT PUSH2 0x34 JUMPI PUSH0 CALLDATALOAD PUSH1 0xE0 SHR DUP1 PUSH4 0x961E5800 EQ PUSH2 0x38 JUMPI DUP1 PUSH4 0xDA58C7D9 EQ PUSH2 0x54 JUMPI JUMPDEST PUSH0 DUP1 REVERT JUMPDEST PUSH2 0x52 PUSH1 0x4 DUP1 CALLDATASIZE SUB DUP2 ADD SWAP1 PUSH2 0x4D SWAP2 SWAP1 PUSH2 0x4BD JUMP JUMPDEST PUSH2 0x86 JUMP JUMPDEST STOP JUMPDEST PUSH2 0x6E PUSH1 0x4 DUP1 CALLDATASIZE SUB DUP2 ADD SWAP1 PUSH2 0x69 SWAP2 SWAP1 PUSH2 0x566 JUMP JUMPDEST PUSH2 0x224 JUMP JUMPDEST PUSH1 0x40 MLOAD PUSH2 0x7D SWAP4 SWAP3 SWAP2 SWAP1 PUSH2 0x60C JUMP JUMPDEST PUSH1 0x40 MLOAD DUP1 SWAP2 SUB SWAP1 RETURN JUMPDEST PUSH0 PUSH1 0x2 PUSH0 CALLER PUSH20 0xFFFFFFFFFFFFFFFFFFFFFFFFFFFFFFFFFFFFFFFF AND PUSH20 0xFFFFFFFFFFFFFFFFFFFFFFFFFFFFFFFFFFFFFFFF AND DUP2 MSTORE PUSH1 0x20 ADD SWAP1 DUP2 MSTORE PUSH1 0x20 ADD PUSH0 KECCAK256 DUP1 SLOAD PUSH2 0xCF SWAP1 PUSH2 0x67C JUMP JUMPDEST SWAP1 POP EQ PUSH2 0x111 JUMPI PUSH1 0x40 MLOAD PUSH32 0x8C379A000000000000000000000000000000000000000000000000000000000 DUP2 MSTORE PUSH1 0x4 ADD PUSH2 0x108 SWAP1 PUSH2 0x6F6 JUMP JUMPDEST PUSH1 0x40 MLOAD DUP1 SWAP2 SUB SWAP1 REVERT JUMPDEST PUSH0 PUSH1 0x40 MLOAD DUP1 PUSH1 0x60 ADD PUSH1 0x40 MSTORE DUP1 DUP5 DUP2 MSTORE PUSH1 0x20 ADD DUP4 DUP2 MSTORE PUSH1 0x20 ADD PUSH0 PUSH1 0xFF AND DUP2 MSTORE POP SWAP1 DUP1 PUSH1 0x1 DUP2 SLOAD ADD DUP1 DUP3 SSTORE DUP1 SWAP2 POP POP PUSH1 0x1 SWAP1 SUB SWAP1 PUSH0 MSTORE PUSH1 0x20 PUSH0 KECCAK256 SWAP1 PUSH1 0x3 MUL ADD PUSH0 SWAP1 SWAP2 SWAP1 SWAP2 SWAP1 SWAP2 POP PUSH0 DUP3 ADD MLOAD DUP2 PUSH0 ADD SWAP1 DUP2 PUSH2 0x169 SWAP2 SWAP1 PUSH2 0x8B1 JUMP JUMPDEST POP PUSH1 0x20 DUP3 ADD MLOAD DUP2 PUSH1 0x1 ADD SWAP1 DUP2 PUSH2 0x17F SWAP2 SWAP1 PUSH2 0x8B1 JUMP JUMPDEST POP PUSH1 0x40 DUP3 ADD MLOAD DUP2 PUSH1 0x2 ADD PUSH0 PUSH2 0x100 EXP DUP2 SLOAD DUP2 PUSH1 0xFF MUL NOT AND SWAP1 DUP4 PUSH1 0xFF AND MUL OR SWAP1 SSTORE POP POP POP PUSH1 0x1 PUSH0 DUP1 SLOAD SWAP1 POP PUSH2 0x1B3 SWAP2 SWAP1 PUSH2 0x9AD JUMP JUMPDEST PUSH1 0x1 DUP3 PUSH1 0x40 MLOAD PUSH2 0x1C3 SWAP2 SWAP1 PUSH2 0xA1A JUMP JUMPDEST SWAP1 DUP2 MSTORE PUSH1 0x20 ADD PUSH1 0x40 MLOAD DUP1 SWAP2 SUB SWAP1 KECCAK256 DUP2 SWAP1 SSTORE POP DUP1 PUSH1 0x2 PUSH0 CALLER PUSH20 0xFFFFFFFFFFFFFFFFFFFFFFFFFFFFFFFFFFFFFFFF AND PUSH20 0xFFFFFFFFFFFFFFFFFFFFFFFFFFFFFFFFFFFFFFFF AND DUP2 MSTORE PUSH1 0x20 ADD SWAP1 DUP2 MSTORE PUSH1 0x20 ADD PUSH0 KECCAK256 SWAP1 DUP2 PUSH2 0x21F SWAP2 SWAP1 PUSH2 0x8B1 JUMP JUMPDEST POP POP POP JUMP JUMPDEST PUSH0 DUP2 DUP2 SLOAD DUP2 LT PUSH2 0x232 JUMPI PUSH0 DUP1 REVERT JUMPDEST SWAP1 PUSH0 MSTORE PUSH1 0x20 PUSH0 KECCAK256 SWAP1 PUSH1 0x3 MUL ADD PUSH0 SWAP2 POP SWAP1 POP DUP1 PUSH0 ADD DUP1 SLOAD PUSH2 0x251 SWAP1 PUSH2 0x67C JUMP JUMPDEST DUP1 PUSH1 0x1F ADD PUSH1 0x20 DUP1 SWAP2 DIV MUL PUSH1 0x20 ADD PUSH1 0x40 MLOAD SWAP1 DUP2 ADD PUSH1 0x40 MSTORE DUP1 SWAP3 SWAP2 SWAP1 DUP2 DUP2 MSTORE PUSH1 0x20 ADD DUP3 DUP1 SLOAD PUSH2 0x27D SWAP1 PUSH2 0x67C JUMP JUMPDEST DUP1 ISZERO PUSH2 0x2C8 JUMPI DUP1 PUSH1 0x1F LT PUSH2 0x29F JUMPI PUSH2 0x100 DUP1 DUP4 SLOAD DIV MUL DUP4 MSTORE SWAP2 PUSH1 0x20 ADD SWAP2 PUSH2 0x2C8 JUMP JUMPDEST DUP3 ADD SWAP2 SWAP1 PUSH0 MSTORE PUSH1 0x20 PUSH0 KECCAK256 SWAP1 JUMPDEST DUP2 SLOAD DUP2 MSTORE SWAP1 PUSH1 0x1 ADD SWAP1 PUSH1 0x20 ADD DUP1 DUP4 GT PUSH2 0x2AB JUMPI DUP3 SWAP1 SUB PUSH1 0x1F AND DUP3 ADD SWAP2 JUMPDEST POP POP POP POP POP SWAP1 DUP1 PUSH1 0x1 ADD DUP1 SLOAD PUSH2 0x2DD SWAP1 PUSH2 0x67C JUMP JUMPDEST DUP1 PUSH1 0x1F ADD PUSH1 0x20 DUP1 SWAP2 DIV MUL PUSH1 0x20 ADD PUSH1 0x40 MLOAD SWAP1 DUP2 ADD PUSH1 0x40 MSTORE DUP1 SWAP3 SWAP2 SWAP1 DUP2 DUP2 MSTORE PUSH1 0x20 ADD DUP3 DUP1 SLOAD PUSH2 0x309 SWAP1 PUSH2 0x67C JUMP JUMPDEST DUP1 ISZERO PUSH2 0x354 JUMPI DUP1 PUSH1 0x1F LT PUSH2 0x32B JUMPI PUSH2 0x100 DUP1 DUP4 SLOAD DIV MUL DUP4 MSTORE SWAP2 PUSH1 0x20 ADD SWAP2 PUSH2 0x354 JUMP JUMPDEST DUP3 ADD SWAP2 SWAP1 PUSH0 MSTORE PUSH1 0x20 PUSH0 KECCAK256 SWAP1 JUMPDEST DUP2 SLOAD DUP2 MSTORE SWAP1 PUSH1 0x1 ADD SWAP1 PUSH1 0x20 ADD DUP1 DUP4 GT PUSH2 0x337 JUMPI DUP3 SWAP1 SUB PUSH1 0x1F AND DUP3 ADD SWAP2 JUMPDEST POP POP POP POP POP SWAP1 DUP1 PUSH1 0x2 ADD PUSH0 SWAP1 SLOAD SWAP1 PUSH2 0x100 EXP SWAP1 DIV PUSH1 0xFF AND SWAP1 POP DUP4 JUMP JUMPDEST PUSH0 PUSH1 0x40 MLOAD SWAP1 POP SWAP1 JUMP JUMPDEST PUSH0 DUP1 REVERT JUMPDEST PUSH0 DUP1 REVERT JUMPDEST PUSH0 DUP1 REVERT JUMPDEST PUSH0 DUP1 REVERT JUMPDEST PUSH0 PUSH1 0x1F NOT PUSH1 0x1F DUP4 ADD AND SWAP1 POP SWAP2 SWAP1 POP JUMP JUMPDEST PUSH32 0x4E487B7100000000000000000000000000000000000000000000000000000000 PUSH0 MSTORE PUSH1 0x41 PUSH1 0x4 MSTORE PUSH1 0x24 PUSH0 REVERT JUMPDEST PUSH2 0x3CF DUP3 PUSH2 0x389 JUMP JUMPDEST DUP2 ADD DUP2 DUP2 LT PUSH8 0xFFFFFFFFFFFFFFFF DUP3 GT OR ISZERO PUSH2 0x3EE JUMPI PUSH2 0x3ED PUSH2 0x399 JUMP JUMPDEST JUMPDEST DUP1 PUSH1 0x40 MSTORE POP POP POP JUMP JUMPDEST PUSH0 PUSH2 0x400 PUSH2 0x370 JUMP JUMPDEST SWAP1 POP PUSH2 0x40C DUP3 DUP3 PUSH2 0x3C6 JUMP JUMPDEST SWAP2 SWAP1 POP JUMP JUMPDEST PUSH0 PUSH8 0xFFFFFFFFFFFFFFFF DUP3 GT ISZERO PUSH2 0x42B JUMPI PUSH2 0x42A PUSH2 0x399 JUMP JUMPDEST JUMPDEST PUSH2 0x434 DUP3 PUSH2 0x389 JUMP JUMPDEST SWAP1 POP PUSH1 0x20 DUP2 ADD SWAP1 POP SWAP2 SWAP1 POP JUMP JUMPDEST DUP3 DUP2 DUP4 CALLDATACOPY PUSH0 DUP4 DUP4 ADD MSTORE POP POP POP JUMP JUMPDEST PUSH0 PUSH2 0x461 PUSH2 0x45C DUP5 PUSH2 0x411 JUMP JUMPDEST PUSH2 0x3F7 JUMP JUMPDEST SWAP1 POP DUP3 DUP2 MSTORE PUSH1 0x20 DUP2 ADD DUP5 DUP5 DUP5 ADD GT ISZERO PUSH2 0x47D JUMPI PUSH2 0x47C PUSH2 0x385 JUMP JUMPDEST JUMPDEST PUSH2 0x488 DUP5 DUP3 DUP6 PUSH2 0x441 JUMP JUMPDEST POP SWAP4 SWAP3 POP POP POP JUMP JUMPDEST PUSH0 DUP3 PUSH1 0x1F DUP4 ADD SLT PUSH2 0x4A4 JUMPI PUSH2 0x4A3 PUSH2 0x381 JUMP JUMPDEST JUMPDEST DUP2 CALLDATALOAD PUSH2 0x4B4 DUP5 DUP3 PUSH1 0x20 DUP7 ADD PUSH2 0x44F JUMP JUMPDEST SWAP2 POP POP SWAP3 SWAP2 POP POP JUMP JUMPDEST PUSH0 DUP1 PUSH1 0x40 DUP4 DUP6 SUB SLT ISZERO PUSH2 0x4D3 JUMPI PUSH2 0x4D2 PUSH2 0x379 JUMP JUMPDEST JUMPDEST PUSH0 DUP4 ADD CALLDATALOAD PUSH8 0xFFFFFFFFFFFFFFFF DUP2 GT ISZERO PUSH2 0x4F0 JUMPI PUSH2 0x4EF PUSH2 0x37D JUMP JUMPDEST JUMPDEST PUSH2 0x4FC DUP6 DUP3 DUP7 ADD PUSH2 0x490 JUMP JUMPDEST SWAP3 POP POP PUSH1 0x20 DUP4 ADD CALLDATALOAD PUSH8 0xFFFFFFFFFFFFFFFF DUP2 GT ISZERO PUSH2 0x51D JUMPI PUSH2 0x51C PUSH2 0x37D JUMP JUMPDEST JUMPDEST PUSH2 0x529 DUP6 DUP3 DUP7 ADD PUSH2 0x490 JUMP JUMPDEST SWAP2 POP POP SWAP3 POP SWAP3 SWAP1 POP JUMP JUMPDEST PUSH0 DUP2 SWAP1 POP SWAP2 SWAP1 POP JUMP JUMPDEST PUSH2 0x545 DUP2 PUSH2 0x533 JUMP JUMPDEST DUP2 EQ PUSH2 0x54F JUMPI PUSH0 DUP1 REVERT JUMPDEST POP JUMP JUMPDEST PUSH0 DUP2 CALLDATALOAD SWAP1 POP PUSH2 0x560 DUP2 PUSH2 0x53C JUMP JUMPDEST SWAP3 SWAP2 POP POP JUMP JUMPDEST PUSH0 PUSH1 0x20 DUP3 DUP5 SUB SLT ISZERO PUSH2 0x57B JUMPI PUSH2 0x57A PUSH2 0x379 JUMP JUMPDEST JUMPDEST PUSH0 PUSH2 0x588 DUP5 DUP3 DUP6 ADD PUSH2 0x552 JUMP JUMPDEST SWAP2 POP POP SWAP3 SWAP2 POP POP JUMP JUMPDEST PUSH0 DUP2 MLOAD SWAP1 POP SWAP2 SWAP1 POP JUMP JUMPDEST PUSH0 DUP3 DUP3 MSTORE PUSH1 0x20 DUP3 ADD SWAP1 POP SWAP3 SWAP2 POP POP JUMP JUMPDEST DUP3 DUP2 DUP4 MCOPY PUSH0 DUP4 DUP4 ADD MSTORE POP POP POP JUMP JUMPDEST PUSH0 PUSH2 0x5C3 DUP3 PUSH2 0x591 JUMP JUMPDEST PUSH2 0x5CD DUP2 DUP6 PUSH2 0x59B JUMP JUMPDEST SWAP4 POP PUSH2 0x5DD DUP2 DUP6 PUSH1 0x20 DUP7 ADD PUSH2 0x5AB JUMP JUMPDEST PUSH2 0x5E6 DUP2 PUSH2 0x389 JUMP JUMPDEST DUP5 ADD SWAP2 POP POP SWAP3 SWAP2 POP POP JUMP JUMPDEST PUSH0 PUSH1 0xFF DUP3 AND SWAP1 POP SWAP2 SWAP1 POP JUMP JUMPDEST PUSH2 0x606 DUP2 PUSH2 0x5F1 JUMP JUMPDEST DUP3 MSTORE POP POP JUMP JUMPDEST PUSH0 PUSH1 0x60 DUP3 ADD SWAP1 POP DUP2 DUP2 SUB PUSH0 DUP4 ADD MSTORE PUSH2 0x624 DUP2 DUP7 PUSH2 0x5B9 JUMP JUMPDEST SWAP1 POP DUP2 DUP2 SUB PUSH1 0x20 DUP4 ADD MSTORE PUSH2 0x638 DUP2 DUP6 PUSH2 0x5B9 JUMP JUMPDEST SWAP1 POP PUSH2 0x647 PUSH1 0x40 DUP4 ADD DUP5 PUSH2 0x5FD JUMP JUMPDEST SWAP5 SWAP4 POP POP POP POP JUMP JUMPDEST PUSH32 0x4E487B7100000000000000000000000000000000000000000000000000000000 PUSH0 MSTORE PUSH1 0x22 PUSH1 0x4 MSTORE PUSH1 0x24 PUSH0 REVERT JUMPDEST PUSH0 PUSH1 0x2 DUP3 DIV SWAP1 POP PUSH1 0x1 DUP3 AND DUP1 PUSH2 0x693 JUMPI PUSH1 0x7F DUP3 AND SWAP2 POP JUMPDEST PUSH1 0x20 DUP3 LT DUP2 SUB PUSH2 0x6A6 JUMPI PUSH2 0x6A5 PUSH2 0x64F JUMP JUMPDEST JUMPDEST POP SWAP2 SWAP1 POP JUMP JUMPDEST PUSH32 0x566F74657220616C726561647920657869737473210000000000000000000000 PUSH0 DUP3 ADD MSTORE POP JUMP JUMPDEST PUSH0 PUSH2 0x6E0 PUSH1 0x15 DUP4 PUSH2 0x59B JUMP JUMPDEST SWAP2 POP PUSH2 0x6EB DUP3 PUSH2 0x6AC JUMP JUMPDEST PUSH1 0x20 DUP3 ADD SWAP1 POP SWAP2 SWAP1 POP JUMP JUMPDEST PUSH0 PUSH1 0x20 DUP3 ADD SWAP1 POP DUP2 DUP2 SUB PUSH0 DUP4 ADD MSTORE PUSH2 0x70D DUP2 PUSH2 0x6D4 JUMP JUMPDEST SWAP1 POP SWAP2 SWAP1 POP JUMP JUMPDEST PUSH0 DUP2 SWAP1 POP DUP2 PUSH0 MSTORE PUSH1 0x20 PUSH0 KECCAK256 SWAP1 POP SWAP2 SWAP1 POP JUMP JUMPDEST PUSH0 PUSH1 0x20 PUSH1 0x1F DUP4 ADD DIV SWAP1 POP SWAP2 SWAP1 POP JUMP JUMPDEST PUSH0 DUP3 DUP3 SHL SWAP1 POP SWAP3 SWAP2 POP POP JUMP JUMPDEST PUSH0 PUSH1 0x8 DUP4 MUL PUSH2 0x770 PUSH32 0xFFFFFFFFFFFFFFFFFFFFFFFFFFFFFFFFFFFFFFFFFFFFFFFFFFFFFFFFFFFFFFFF DUP3 PUSH2 0x735 JUMP JUMPDEST PUSH2 0x77A DUP7 DUP4 PUSH2 0x735 JUMP JUMPDEST SWAP6 POP DUP1 NOT DUP5 AND SWAP4 POP DUP1 DUP7 AND DUP5 OR SWAP3 POP POP POP SWAP4 SWAP3 POP POP POP JUMP JUMPDEST PUSH0 DUP2 SWAP1 POP SWAP2 SWAP1 POP JUMP JUMPDEST PUSH0 PUSH2 0x7B5 PUSH2 0x7B0 PUSH2 0x7AB DUP5 PUSH2 0x533 JUMP JUMPDEST PUSH2 0x792 JUMP JUMPDEST PUSH2 0x533 JUMP JUMPDEST SWAP1 POP SWAP2 SWAP1 POP JUMP JUMPDEST PUSH0 DUP2 SWAP1 POP SWAP2 SWAP1 POP JUMP JUMPDEST PUSH2 0x7CE DUP4 PUSH2 0x79B JUMP JUMPDEST PUSH2 0x7E2 PUSH2 0x7DA DUP3 PUSH2 0x7BC JUMP JUMPDEST DUP5 DUP5 SLOAD PUSH2 0x741 JUMP JUMPDEST DUP3 SSTORE POP POP POP POP JUMP JUMPDEST PUSH0 SWAP1 JUMP JUMPDEST PUSH2 0x7F6 PUSH2 0x7EA JUMP JUMPDEST PUSH2 0x801 DUP2 DUP5 DUP5 PUSH2 0x7C5 JUMP JUMPDEST POP POP POP JUMP JUMPDEST JUMPDEST DUP2 DUP2 LT ISZERO PUSH2 0x824 JUMPI PUSH2 0x819 PUSH0 DUP3 PUSH2 0x7EE JUMP JUMPDEST PUSH1 0x1 DUP2 ADD SWAP1 POP PUSH2 0x807 JUMP JUMPDEST POP POP JUMP JUMPDEST PUSH1 0x1F DUP3 GT ISZERO PUSH2 0x869 JUMPI PUSH2 0x83A DUP2 PUSH2 0x714 JUMP JUMPDEST PUSH2 0x843 DUP5 PUSH2 0x726 JUMP JUMPDEST DUP2 ADD PUSH1 0x20 DUP6 LT ISZERO PUSH2 0x852 JUMPI DUP2 SWAP1 POP JUMPDEST PUSH2 0x866 PUSH2 0x85E DUP6 PUSH2 0x726 JUMP JUMPDEST DUP4 ADD DUP3 PUSH2 0x806 JUMP JUMPDEST POP POP JUMPDEST POP POP POP JUMP JUMPDEST PUSH0 DUP3 DUP3 SHR SWAP1 POP SWAP3 SWAP2 POP POP JUMP JUMPDEST PUSH0 PUSH2 0x889 PUSH0 NOT DUP5 PUSH1 0x8 MUL PUSH2 0x86E JUMP JUMPDEST NOT DUP1 DUP4 AND SWAP2 POP POP SWAP3 SWAP2 POP POP JUMP JUMPDEST PUSH0 PUSH2 0x8A1 DUP4 DUP4 PUSH2 0x87A JUMP JUMPDEST SWAP2 POP DUP3 PUSH1 0x2 MUL DUP3 OR SWAP1 POP SWAP3 SWAP2 POP POP JUMP JUMPDEST PUSH2 0x8BA DUP3 PUSH2 0x591 JUMP JUMPDEST PUSH8 0xFFFFFFFFFFFFFFFF DUP2 GT ISZERO PUSH2 0x8D3 JUMPI PUSH2 0x8D2 PUSH2 0x399 JUMP JUMPDEST JUMPDEST PUSH2 0x8DD DUP3 SLOAD PUSH2 0x67C JUMP JUMPDEST PUSH2 0x8E8 DUP3 DUP3 DUP6 PUSH2 0x828 JUMP JUMPDEST PUSH0 PUSH1 0x20 SWAP1 POP PUSH1 0x1F DUP4 GT PUSH1 0x1 DUP2 EQ PUSH2 0x919 JUMPI PUSH0 DUP5 ISZERO PUSH2 0x907 JUMPI DUP3 DUP8 ADD MLOAD SWAP1 POP JUMPDEST PUSH2 0x911 DUP6 DUP3 PUSH2 0x896 JUMP JUMPDEST DUP7 SSTORE POP PUSH2 0x978 JUMP JUMPDEST PUSH1 0x1F NOT DUP5 AND PUSH2 0x927 DUP7 PUSH2 0x714 JUMP JUMPDEST PUSH0 JUMPDEST DUP3 DUP2 LT ISZERO PUSH2 0x94E JUMPI DUP5 DUP10 ADD MLOAD DUP3 SSTORE PUSH1 0x1 DUP3 ADD SWAP2 POP PUSH1 0x20 DUP6 ADD SWAP5 POP PUSH1 0x20 DUP2 ADD SWAP1 POP PUSH2 0x929 JUMP JUMPDEST DUP7 DUP4 LT ISZERO PUSH2 0x96B JUMPI DUP5 DUP10 ADD MLOAD PUSH2 0x967 PUSH1 0x1F DUP10 AND DUP3 PUSH2 0x87A JUMP JUMPDEST DUP4 SSTORE POP JUMPDEST PUSH1 0x1 PUSH1 0x2 DUP9 MUL ADD DUP9 SSTORE POP POP POP JUMPDEST POP POP POP POP POP POP JUMP JUMPDEST PUSH32 0x4E487B7100000000000000000000000000000000000000000000000000000000 PUSH0 MSTORE PUSH1 0x11 PUSH1 0x4 MSTORE PUSH1 0x24 PUSH0 REVERT JUMPDEST PUSH0 PUSH2 0x9B7 DUP3 PUSH2 0x533 JUMP JUMPDEST SWAP2 POP PUSH2 0x9C2 DUP4 PUSH2 0x533 JUMP JUMPDEST SWAP3 POP DUP3 DUP3 SUB SWAP1 POP DUP2 DUP2 GT ISZERO PUSH2 0x9DA JUMPI PUSH2 0x9D9 PUSH2 0x980 JUMP JUMPDEST JUMPDEST SWAP3 SWAP2 POP POP JUMP JUMPDEST PUSH0 DUP2 SWAP1 POP SWAP3 SWAP2 POP POP JUMP JUMPDEST PUSH0 PUSH2 0x9F4 DUP3 PUSH2 0x591 JUMP JUMPDEST PUSH2 0x9FE DUP2 DUP6 PUSH2 0x9E0 JUMP JUMPDEST SWAP4 POP PUSH2 0xA0E DUP2 DUP6 PUSH1 0x20 DUP7 ADD PUSH2 0x5AB JUMP JUMPDEST DUP1 DUP5 ADD SWAP2 POP POP SWAP3 SWAP2 POP POP JUMP JUMPDEST PUSH0 PUSH2 0xA25 DUP3 DUP5 PUSH2 0x9EA JUMP JUMPDEST SWAP2 POP DUP2 SWAP1 POP SWAP3 SWAP2 POP POP JUMP INVALID LOG2 PUSH5 0x6970667358 0x22 SLT KECCAK256 MUL SWAP4 0xEF PUSH8 0x6919C7645385B307 PUSH12 0x8B4A2246E9668B38A2EFFCA5 EQ SWAP9 SWAP12 0xBB 0xBC 0xDB 0xD PUSH5 0x736F6C6343 STOP ADDMOD BYTE STOP CALLER "
				},
				"gasEstimates": {
					"creation": {
						"codeDepositCost": "532400",
						"executionCost": "566",
						"totalCost": "532966"
					},
					"external": {
						"createVoter(string,string)": "infinite",
						"voters(uint256)": "infinite"
					}
				},
				"methodIdentifiers": {
					"createVoter(string,string)": "961e5800",
					"voters(uint256)": "da58c7d9"
				}
			},
			"storageLayout": {
				"storage": [
					{
						"astId": 105,
						"contract": "contracts/voter.sol:Voters",
						"label": "voters",
						"offset": 0,
						"slot": "0",
						"type": "t_array(t_struct(Voter)101_storage)dyn_storage"
					},
					{
						"astId": 109,
						"contract": "contracts/voter.sol:Voters",
						"label": "voterIndex",
						"offset": 0,
						"slot": "1",
						"type": "t_mapping(t_string_memory_ptr,t_uint256)"
					},
					{
						"astId": 113,
						"contract": "contracts/voter.sol:Voters",
						"label": "voterRollno",
						"offset": 0,
						"slot": "2",
						"type": "t_mapping(t_address,t_string_storage)"
					}
				],
				"types": {
					"t_address": {
						"encoding": "inplace",
						"label": "address",
						"numberOfBytes": "20"
					},
					"t_array(t_struct(Voter)101_storage)dyn_storage": {
						"base": "t_struct(Voter)101_storage",
						"encoding": "dynamic_array",
						"label": "struct Voters.Voter[]",
						"numberOfBytes": "32"
					},
					"t_mapping(t_address,t_string_storage)": {
						"encoding": "mapping",
						"key": "t_address",
						"label": "mapping(address => string)",
						"numberOfBytes": "32",
						"value": "t_string_storage"
					},
					"t_mapping(t_string_memory_ptr,t_uint256)": {
						"encoding": "mapping",
						"key": "t_string_memory_ptr",
						"label": "mapping(string => uint256)",
						"numberOfBytes": "32",
						"value": "t_uint256"
					},
					"t_string_memory_ptr": {
						"encoding": "bytes",
						"label": "string",
						"numberOfBytes": "32"
					},
					"t_string_storage": {
						"encoding": "bytes",
						"label": "string",
						"numberOfBytes": "32"
					},
					"t_struct(Voter)101_storage": {
						"encoding": "inplace",
						"label": "struct Voters.Voter",
						"members": [
							{
								"astId": 96,
								"contract": "contracts/voter.sol:Voters",
								"label": "name",
								"offset": 0,
								"slot": "0",
								"type": "t_string_storage"
							},
							{
								"astId": 98,
								"contract": "contracts/voter.sol:Voters",
								"label": "rollno",
								"offset": 0,
								"slot": "1",
								"type": "t_string_storage"
							},
							{
								"astId": 100,
								"contract": "contracts/voter.sol:Voters",
								"label": "voteStatus",
								"offset": 0,
								"slot": "2",
								"type": "t_uint8"
							}
						],
						"numberOfBytes": "96"
					},
					"t_uint256": {
						"encoding": "inplace",
						"label": "uint256",
						"numberOfBytes": "32"
					},
					"t_uint8": {
						"encoding": "inplace",
						"label": "uint8",
						"numberOfBytes": "1"
					}
				}
			},
			"userdoc": {
				"kind": "user",
				"methods": {},
				"version": 1
			}
		}
	}
}